{
  "_format": "hh-sol-artifact-1",
  "contractName": "CCIPArbitrationSender",
  "sourceName": "contracts/ccip/CCIPArbitrationSender.sol",
  "abi": [
    {
      "inputs": [
        {
          "internalType": "address",
          "name": "router",
          "type": "address"
        },
        {
          "internalType": "address",
          "name": "linkToken",
          "type": "address"
        },
        {
          "internalType": "uint64",
          "name": "_oracleChainSelector",
          "type": "uint64"
        },
        {
          "internalType": "address",
          "name": "_oracleReceiver",
          "type": "address"
        }
      ],
      "stateMutability": "nonpayable",
      "type": "constructor"
    },
    {
      "anonymous": false,
      "inputs": [
        {
          "indexed": true,
          "internalType": "bytes32",
          "name": "messageId",
          "type": "bytes32"
        },
        {
          "indexed": true,
          "internalType": "bytes32",
          "name": "disputeId",
          "type": "bytes32"
        },
        {
          "indexed": true,
          "internalType": "address",
          "name": "contractAddress",
          "type": "address"
        },
        {
          "indexed": false,
          "internalType": "uint256",
          "name": "caseId",
          "type": "uint256"
        }
      ],
      "name": "ArbitrationRequestSent",
      "type": "event"
    },
    {
      "anonymous": false,
      "inputs": [
        {
          "indexed": true,
          "internalType": "address",
          "name": "contractAddr",
          "type": "address"
        },
        {
          "indexed": false,
          "internalType": "bool",
          "name": "authorized",
          "type": "bool"
        }
      ],
      "name": "ContractAuthorized",
      "type": "event"
    },
    {
      "anonymous": false,
      "inputs": [
        {
          "indexed": false,
          "internalType": "uint64",
          "name": "chainSelector",
          "type": "uint64"
        },
        {
          "indexed": false,
          "internalType": "address",
          "name": "receiver",
          "type": "address"
        }
      ],
      "name": "OracleConfigUpdated",
      "type": "event"
    },
    {
      "inputs": [
        {
          "internalType": "address",
          "name": "",
          "type": "address"
        }
      ],
      "name": "authorizedContracts",
      "outputs": [
        {
          "internalType": "bool",
          "name": "",
          "type": "bool"
        }
      ],
      "stateMutability": "view",
      "type": "function"
    },
    {
      "inputs": [
        {
          "internalType": "enum CCIPArbitrationSender.PayFeesIn",
          "name": "payFeesIn",
          "type": "uint8"
        }
      ],
      "name": "getArbitrationFees",
      "outputs": [
        {
          "internalType": "uint256",
          "name": "",
          "type": "uint256"
        }
      ],
      "stateMutability": "view",
      "type": "function"
    },
    {
      "inputs": [],
      "name": "oracleChainSelector",
      "outputs": [
        {
          "internalType": "uint64",
          "name": "",
          "type": "uint64"
        }
      ],
      "stateMutability": "view",
      "type": "function"
    },
    {
      "inputs": [],
      "name": "oracleReceiver",
      "outputs": [
        {
          "internalType": "address",
          "name": "",
          "type": "address"
        }
      ],
      "stateMutability": "view",
      "type": "function"
    },
    {
      "inputs": [],
      "name": "owner",
      "outputs": [
        {
          "internalType": "address",
          "name": "",
          "type": "address"
        }
      ],
      "stateMutability": "view",
      "type": "function"
    },
    {
      "inputs": [
        {
          "internalType": "bytes32",
          "name": "",
          "type": "bytes32"
        }
      ],
      "name": "pendingRequests",
      "outputs": [
        {
          "internalType": "bytes32",
          "name": "disputeId",
          "type": "bytes32"
        },
        {
          "internalType": "address",
          "name": "contractAddress",
          "type": "address"
        },
        {
          "internalType": "uint256",
          "name": "caseId",
          "type": "uint256"
        },
        {
          "internalType": "address",
          "name": "requester",
          "type": "address"
        },
        {
          "internalType": "bytes32",
          "name": "evidenceHash",
          "type": "bytes32"
        },
        {
          "internalType": "string",
          "name": "evidenceURI",
          "type": "string"
        },
        {
          "internalType": "uint256",
          "name": "requestedAmount",
          "type": "uint256"
        },
        {
          "internalType": "uint256",
          "name": "timestamp",
          "type": "uint256"
        }
      ],
      "stateMutability": "view",
      "type": "function"
    },
    {
      "inputs": [
        {
          "internalType": "bytes32",
          "name": "",
          "type": "bytes32"
        }
      ],
      "name": "processedRequests",
      "outputs": [
        {
          "internalType": "bool",
          "name": "",
          "type": "bool"
        }
      ],
      "stateMutability": "view",
      "type": "function"
    },
    {
      "inputs": [
        {
          "internalType": "bytes32",
          "name": "disputeId",
          "type": "bytes32"
        },
        {
          "internalType": "address",
          "name": "contractAddress",
          "type": "address"
        },
        {
          "internalType": "uint256",
          "name": "caseId",
          "type": "uint256"
        },
        {
          "internalType": "bytes32",
          "name": "evidenceHash",
          "type": "bytes32"
        },
        {
          "internalType": "string",
          "name": "evidenceURI",
          "type": "string"
        },
        {
          "internalType": "uint256",
          "name": "requestedAmount",
          "type": "uint256"
        },
        {
          "internalType": "enum CCIPArbitrationSender.PayFeesIn",
          "name": "payFeesIn",
          "type": "uint8"
        }
      ],
      "name": "sendArbitrationRequest",
      "outputs": [
        {
          "internalType": "bytes32",
          "name": "messageId",
          "type": "bytes32"
        }
      ],
      "stateMutability": "payable",
      "type": "function"
    },
    {
      "inputs": [
        {
          "internalType": "address",
          "name": "contractAddr",
          "type": "address"
        },
        {
          "internalType": "bool",
          "name": "authorized",
          "type": "bool"
        }
      ],
      "name": "setContractAuthorization",
      "outputs": [],
      "stateMutability": "nonpayable",
      "type": "function"
    },
    {
      "inputs": [
        {
          "internalType": "uint64",
          "name": "_oracleChainSelector",
          "type": "uint64"
        },
        {
          "internalType": "address",
          "name": "_oracleReceiver",
          "type": "address"
        }
      ],
      "name": "updateOracleConfig",
      "outputs": [],
      "stateMutability": "nonpayable",
      "type": "function"
    },
    {
      "inputs": [
        {
          "internalType": "address",
          "name": "to",
          "type": "address"
        }
      ],
      "name": "withdrawNative",
      "outputs": [],
      "stateMutability": "nonpayable",
      "type": "function"
    },
    {
      "inputs": [
        {
          "internalType": "address",
          "name": "token",
          "type": "address"
        },
        {
          "internalType": "address",
          "name": "to",
          "type": "address"
        },
        {
          "internalType": "uint256",
          "name": "amount",
          "type": "uint256"
        }
      ],
      "name": "withdrawToken",
      "outputs": [],
      "stateMutability": "nonpayable",
      "type": "function"
    },
    {
      "stateMutability": "payable",
      "type": "receive"
    }
  ],
  "bytecode": "0x60c034620001df57601f620013f438819003918201601f1916830192916001600160401b039182851184861017620001e4578160809285926040978852833981010312620001df576200005282620001fa565b6200006060208401620001fa565b9284810151928316809303620001df5760606200007e9101620001fa565b926001600160a01b03918216908115620001aa57821691821562000171578416156200012d5760805260a052600080546001600160e01b0319169190911791831b600160401b600160e01b0316919091179055600180546001600160a01b03191633179055516111e490816200021082396080518181816102eb0152818161094a015281816109fd0152610ab3015260a051818181610284015281816108d1015281816109b80152610a400152f35b845162461bcd60e51b815260206004820152601760248201527f496e76616c6964206f7261636c652072656365697665720000000000000000006044820152606490fd5b855162461bcd60e51b815260206004820152601260248201527124b73b30b634b2102624a725903a37b5b2b760711b6044820152606490fd5b855162461bcd60e51b815260206004820152600e60248201526d24b73b30b634b2103937baba32b960911b6044820152606490fd5b600080fd5b634e487b7160e01b600052604160045260246000fd5b51906001600160a01b0382168203620001df5756fe6080604052600436101561001b575b361561001957600080fd5b005b60003560e01c806301e3366714610e3a57806306d9f637146106955780632795ad20146105625780632adf05a51461053b5780632f622e6b1461048b5780633622d37a146103a75780636c6d6ded1461037c57806374b65491146101c95780638da5cb5b146101a0578063ce0fa5a91461016f578063d5b9221b146101305763f60ccc860361000e573461012b57604036600319011261012b576100bd610ee7565b6024359081151580920361012b5760207f3213ab8ec2ed122402f038736b41878b69ae9f61f49a7edd0666bce891d29fc99160018060a01b039061010682600154163314611135565b16928360005260028252604060002060ff1981541660ff8316179055604051908152a2005b600080fd5b3461012b57602036600319011261012b576001600160a01b03610151610ee7565b166000526002602052602060ff604060002054166040519015158152f35b3461012b57602036600319011261012b576004356000526004602052602060ff604060002054166040519015158152f35b3461012b57600036600319011261012b576001546040516001600160a01b039091168152602090f35b3461012b5760208060031936011261012b57600435600281101561012b576000549060405160018060a01b03808460401c168583015284825261020b82610f4d565b604051928580850152600660408501526573616d706c6560d01b60608501526060845260808401946001600160401b03918587108388111761036657838896886102e79960405261025b81610f68565b60008152600161027b60405161027081610f68565b620493e081526110fe565b940361035e57827f000000000000000000000000000000000000000000000000000000000000000016915b604051986102b38a610f83565b89528989015260408801521660608601526080850152604051958694859384936320487ded60e01b8552166004840161101a565b03917f0000000000000000000000000000000000000000000000000000000000000000165afa90811561035257600091610325575b50604051908152f35b90508181813d831161034b575b61033c8183610f9e565b8101031261012b57518261031c565b503d610332565b6040513d6000823e3d90fd5b6000916102a6565b634e487b7160e01b600052604160045260246000fd5b3461012b57600036600319011261012b576000546040805191901c6001600160a01b03168152602090f35b3461012b57604036600319011261012b576004356001600160401b03811680910361012b576103d4610efd565b6001546001600160a01b03906103ed9082163314611135565b811691821561044c57600080546001600160e01b0319168217604093841b600160401b600160e01b0316179055815190815260208101929092527f3a367dffbb145d685eb81231beded46a9f817df2434b0c66d406309726876f5691a1005b60405162461bcd60e51b815260206004820152601760248201527624b73b30b634b21037b930b1b632903932b1b2b4bb32b960491b6044820152606490fd5b3461012b57602036600319011261012b5760008080806104a9610ee7565b6104cb60018060a01b036104c281600154163314611135565b8216151561116e565b47905af13d15610536573d6104df81610fff565b906104ed6040519283610f9e565b8152600060203d92013e5b156104ff57005b60405162461bcd60e51b815260206004820152600f60248201526e151c985b9cd9995c8819985a5b1959608a1b6044820152606490fd5b6104f8565b3461012b57600036600319011261012b5760206001600160401b0360005416604051908152f35b3461012b5760208060031936011261012b57600435600052600381526040600020805460018060a01b039160019280848301541690600283015490600384015416600484015490600585019260405193896000998254926105c284610f13565b808952938281169081156106725750600114610634575b505050506105ef84610625969798990385610f9e565b6007600688015497015495604051998a998a528901526040880152606087015260808601526101008060a0870152850190610fbf565b9160c084015260e08301520390f35b6000908152828120929b5092915b82841061065f575050508401909701966105ef89610625866105d9565b80548885018d0152928b01928101610642565b60ff1916848a015250505090151560051b85010197506105ef89610625866105d9565b60e036600319011261012b576106a9610efd565b608435906001600160401b03821161012b573660238301121561012b578160040135916001600160401b03831161012b57366024848301011161012b57600260c435101561012b5733600052600260205260ff6040600020541615610dfb576040519261010084018481106001600160401b0382111761036657600091602091604052600435865260018060a01b038516828701526044356040870152336060870152606435608087015280602461076082610fff565b9561076e6040519788610f9e565b82875201838601378301015260a083015260a43560c08301524260e0830152604051906020808301528251604083015260018060a01b0360208401511660608301526040830151608083015260018060a01b0360608401511660a0830152608083015160c0830152610819826107f560a086015161010060e0840152610140830190610fbf565b60c086015161010083015260e086015161012083015203601f198101845283610f9e565b6040519161082683610f4d565b600083526020830152600054916040519060018060a01b038460401c1660208301526020825261085582610f4d565b604051936020808601528151906003821015610de5576108a586610897602080966001600160401b039660408501520151604060608401526080830190610fbf565b03601f198101885287610f9e565b6040516108b181610f68565b600081526108c460405161027081610f68565b9060c435600103610ddd577f00000000000000000000000000000000000000000000000000000000000000006001600160a01b0316905b60405198899761090a89610f83565b885286880152604087015260018060a01b03166060860152608085015261094660405194859384936320487ded60e01b8552166004840161101a565b03817f00000000000000000000000000000000000000000000000000000000000000006001600160a01b03165afa90811561035257600091610dab575b5060c435600103610d53576040516323b872dd60e01b81523360048201523060248201526044810182905260208160648160007f00000000000000000000000000000000000000000000000000000000000000006001600160a01b03165af1801561035257610d34575b5060405163095ea7b360e01b81527f00000000000000000000000000000000000000000000000000000000000000006001600160a01b0316600482015260248101829052926020848060448101038160007f00000000000000000000000000000000000000000000000000000000000000006001600160a01b03165af191821561035257610aaf94602093610d07575b505b60c435610cff575b6001600160401b03600054166040518096819482936396f4e9f960e01b84526004840161101a565b03917f00000000000000000000000000000000000000000000000000000000000000006001600160a01b03165af191821561035257600092610ccb575b508160005260036020526040600020835181556001810160018060a01b036020860151169060018060a01b0319918282541617905560408501516002830155600382019060018060a01b03606087015116908254161790556080840151600482015560a08401519384516001600160401b03811161036657610b716005840154610f13565b95601f8711610c84575b602096508690601f8311600114610c115791806007949260e094600092610c06575b50508160011b916000199060031b1c19161760058501555b60c08101516006850155015191015560405190604435825260018060a01b031690827f05057bfa15ec9aff5757f295c4220d2acfafda187102d1f7b7529373b73a8edb8560043593a4604051908152f35b015190508980610b9d565b9060058501600052876000209160005b601f1985168110610c6d5750926007949260019260e09583601f19811610610c54575b505050811b016005850155610bb5565b015160001960f88460031b161c19169055898080610c44565b919289600181928685015181550194019201610c21565b600584016000526020600020601f830160051c810160208410610cc4575b601f890160051c82018110610cb8575050610b7b565b60008155600101610ca2565b5080610ca2565b9091506020813d602011610cf7575b81610ce760209383610f9e565b8101031261012b57519083610aec565b3d9150610cda565b506000610a87565b610d2690843d8611610d2d575b610d1e8183610f9e565b8101906110e6565b5086610a7d565b503d610d14565b610d4c9060203d602011610d2d57610d1e8183610f9e565b50846109ed565b803410610d6657610aaf92602091610a7f565b60405162461bcd60e51b815260206004820152601c60248201527f496e73756666696369656e74206e617469766520666f722066656573000000006044820152606490fd5b90506020813d602011610dd5575b81610dc660209383610f9e565b8101031261012b575184610983565b3d9150610db9565b6000906108fb565b634e487b7160e01b600052602160045260246000fd5b60405162461bcd60e51b815260206004820152601760248201527610dbdb9d1c9858dd081b9bdd08185d5d1a1bdc9a5e9959604a1b6044820152606490fd5b3461012b57606036600319011261012b57610e53610ee7565b6020610ebf610e60610efd565b6001546001600160a01b03949190610e7b9086163314611135565b610e88858216151561116e565b60405163a9059cbb60e01b81526001600160a01b039091166004820152604480356024830152909485938492600092918491820190565b0393165af1801561035257610ed057005b6100199060203d8111610d2d57610d1e8183610f9e565b600435906001600160a01b038216820361012b57565b602435906001600160a01b038216820361012b57565b90600182811c92168015610f43575b6020831014610f2d57565b634e487b7160e01b600052602260045260246000fd5b91607f1691610f22565b604081019081106001600160401b0382111761036657604052565b602081019081106001600160401b0382111761036657604052565b60a081019081106001600160401b0382111761036657604052565b90601f801991011681019081106001600160401b0382111761036657604052565b919082519283825260005b848110610feb575050826000602080949584010152601f8019910116010190565b602081830181015184830182015201610fca565b6001600160401b03811161036657601f01601f191660200190565b906001600160401b039093929316815260406020918183820152611049855160a08484015260e0830190610fbf565b916110658487015193603f199485858303016060860152610fbf565b8187015194848483030160808501528080875193848152019601926000905b8382106110bd57505050505060c060806110ba959660018060a01b0360608201511660a085015201519282850301910152610fbf565b90565b845180516001600160a01b03168952830151888401529687019693820193600190910190611084565b9081602091031261012b5751801515810361012b5790565b604051906397a657c960e01b602083015251602482015260248152606081018181106001600160401b038211176103665760405290565b1561113c57565b60405162461bcd60e51b815260206004820152600a60248201526927b7363c9037bbb732b960b11b6044820152606490fd5b1561117557565b60405162461bcd60e51b8152602060048201526011602482015270125b9d985b1a59081c9958da5c1a595b9d607a1b6044820152606490fdfea26469706673582212201519dd131be54de60d1db3c4135dff1a50682ddcbf11349e8f4582e6badbeb0264736f6c63430008140033",
  "linkReferences": {},
  "deployedLinkReferences": {}
}