{
  "_format": "hh-sol-artifact-1",
  "contractName": "CCIPArbitrationReceiver",
  "sourceName": "contracts/ccip/CCIPArbitrationReceiver.sol",
  "abi": [
    {
      "inputs": [
        {
          "internalType": "address",
          "name": "router",
          "type": "address"
        },
        {
          "internalType": "address",
          "name": "_arbitrationService",
          "type": "address"
        }
      ],
      "stateMutability": "nonpayable",
      "type": "constructor"
    },
    {
      "anonymous": false,
      "inputs": [
        {
          "indexed": true,
          "internalType": "bytes32",
          "name": "messageId",
          "type": "bytes32"
        },
        {
          "indexed": true,
          "internalType": "bytes32",
          "name": "disputeId",
          "type": "bytes32"
        },
        {
          "indexed": true,
          "internalType": "uint64",
          "name": "sourceChainSelector",
          "type": "uint64"
        },
        {
          "indexed": false,
          "internalType": "bool",
          "name": "approved",
          "type": "bool"
        },
        {
          "indexed": false,
          "internalType": "uint256",
          "name": "appliedAmount",
          "type": "uint256"
        }
      ],
      "name": "ArbitrationDecisionReceived",
      "type": "event"
    },
    {
      "anonymous": false,
      "inputs": [
        {
          "indexed": true,
          "internalType": "bytes32",
          "name": "disputeId",
          "type": "bytes32"
        },
        {
          "indexed": true,
          "internalType": "address",
          "name": "targetContract",
          "type": "address"
        },
        {
          "indexed": true,
          "internalType": "uint256",
          "name": "caseId",
          "type": "uint256"
        },
        {
          "indexed": false,
          "internalType": "bool",
          "name": "success",
          "type": "bool"
        }
      ],
      "name": "ArbitrationExecuted",
      "type": "event"
    },
    {
      "anonymous": false,
      "inputs": [
        {
          "indexed": true,
          "internalType": "bytes32",
          "name": "messageId",
          "type": "bytes32"
        },
        {
          "indexed": true,
          "internalType": "bytes32",
          "name": "disputeId",
          "type": "bytes32"
        },
        {
          "indexed": true,
          "internalType": "uint64",
          "name": "destinationChainSelector",
          "type": "uint64"
        },
        {
          "indexed": false,
          "internalType": "address",
          "name": "contractAddress",
          "type": "address"
        },
        {
          "indexed": false,
          "internalType": "uint256",
          "name": "caseId",
          "type": "uint256"
        }
      ],
      "name": "ArbitrationRequestSent",
      "type": "event"
    },
    {
      "anonymous": false,
      "inputs": [
        {
          "indexed": false,
          "internalType": "address",
          "name": "sender",
          "type": "address"
        },
        {
          "indexed": false,
          "internalType": "bool",
          "name": "authorized",
          "type": "bool"
        }
      ],
      "name": "SenderAuthorized",
      "type": "event"
    },
    {
      "anonymous": false,
      "inputs": [
        {
          "indexed": false,
          "internalType": "uint64",
          "name": "chainSelector",
          "type": "uint64"
        },
        {
          "indexed": false,
          "internalType": "bool",
          "name": "authorized",
          "type": "bool"
        }
      ],
      "name": "SourceChainAuthorized",
      "type": "event"
    },
    {
      "inputs": [],
      "name": "arbitrationService",
      "outputs": [
        {
          "internalType": "contract IArbitrationService",
          "name": "",
          "type": "address"
        }
      ],
      "stateMutability": "view",
      "type": "function"
    },
    {
      "inputs": [
        {
          "internalType": "address",
          "name": "",
          "type": "address"
        }
      ],
      "name": "authorizedSenders",
      "outputs": [
        {
          "internalType": "bool",
          "name": "",
          "type": "bool"
        }
      ],
      "stateMutability": "view",
      "type": "function"
    },
    {
      "inputs": [
        {
          "internalType": "uint64",
          "name": "",
          "type": "uint64"
        }
      ],
      "name": "authorizedSourceChains",
      "outputs": [
        {
          "internalType": "bool",
          "name": "",
          "type": "bool"
        }
      ],
      "stateMutability": "view",
      "type": "function"
    },
    {
      "inputs": [
        {
          "components": [
            {
              "internalType": "bytes32",
              "name": "messageId",
              "type": "bytes32"
            },
            {
              "internalType": "uint64",
              "name": "sourceChainSelector",
              "type": "uint64"
            },
            {
              "internalType": "bytes",
              "name": "sender",
              "type": "bytes"
            },
            {
              "internalType": "bytes",
              "name": "data",
              "type": "bytes"
            },
            {
              "components": [
                {
                  "internalType": "address",
                  "name": "token",
                  "type": "address"
                },
                {
                  "internalType": "uint256",
                  "name": "amount",
                  "type": "uint256"
                }
              ],
              "internalType": "struct Client.EVMTokenAmount[]",
              "name": "destTokenAmounts",
              "type": "tuple[]"
            }
          ],
          "internalType": "struct Client.Any2EVMMessage",
          "name": "message",
          "type": "tuple"
        }
      ],
      "name": "ccipReceive",
      "outputs": [],
      "stateMutability": "nonpayable",
      "type": "function"
    },
    {
      "inputs": [],
      "name": "ccipRouter",
      "outputs": [
        {
          "internalType": "contract ICCIPRouter",
          "name": "",
          "type": "address"
        }
      ],
      "stateMutability": "view",
      "type": "function"
    },
    {
      "inputs": [
        {
          "internalType": "bytes32",
          "name": "messageId",
          "type": "bytes32"
        },
        {
          "components": [
            {
              "internalType": "bytes32",
              "name": "disputeId",
              "type": "bytes32"
            },
            {
              "internalType": "bool",
              "name": "approved",
              "type": "bool"
            },
            {
              "internalType": "uint256",
              "name": "appliedAmount",
              "type": "uint256"
            },
            {
              "internalType": "address",
              "name": "beneficiary",
              "type": "address"
            },
            {
              "internalType": "string",
              "name": "rationale",
              "type": "string"
            },
            {
              "internalType": "bytes32",
              "name": "oracleId",
              "type": "bytes32"
            },
            {
              "internalType": "uint256",
              "name": "timestamp",
              "type": "uint256"
            }
          ],
          "internalType": "struct CCIPArbitrationTypes.ArbitrationDecision",
          "name": "decision",
          "type": "tuple"
        }
      ],
      "name": "emergencyExecuteDecision",
      "outputs": [],
      "stateMutability": "nonpayable",
      "type": "function"
    },
    {
      "inputs": [
        {
          "internalType": "bytes32",
          "name": "",
          "type": "bytes32"
        }
      ],
      "name": "executedDecisions",
      "outputs": [
        {
          "internalType": "bytes32",
          "name": "disputeId",
          "type": "bytes32"
        },
        {
          "internalType": "bool",
          "name": "approved",
          "type": "bool"
        },
        {
          "internalType": "uint256",
          "name": "appliedAmount",
          "type": "uint256"
        },
        {
          "internalType": "address",
          "name": "beneficiary",
          "type": "address"
        },
        {
          "internalType": "string",
          "name": "rationale",
          "type": "string"
        },
        {
          "internalType": "bytes32",
          "name": "oracleId",
          "type": "bytes32"
        },
        {
          "internalType": "uint256",
          "name": "timestamp",
          "type": "uint256"
        }
      ],
      "stateMutability": "view",
      "type": "function"
    },
    {
      "inputs": [
        {
          "internalType": "bytes32",
          "name": "messageId",
          "type": "bytes32"
        }
      ],
      "name": "getDecision",
      "outputs": [
        {
          "components": [
            {
              "internalType": "bytes32",
              "name": "disputeId",
              "type": "bytes32"
            },
            {
              "internalType": "bool",
              "name": "approved",
              "type": "bool"
            },
            {
              "internalType": "uint256",
              "name": "appliedAmount",
              "type": "uint256"
            },
            {
              "internalType": "address",
              "name": "beneficiary",
              "type": "address"
            },
            {
              "internalType": "string",
              "name": "rationale",
              "type": "string"
            },
            {
              "internalType": "bytes32",
              "name": "oracleId",
              "type": "bytes32"
            },
            {
              "internalType": "uint256",
              "name": "timestamp",
              "type": "uint256"
            }
          ],
          "internalType": "struct CCIPArbitrationTypes.ArbitrationDecision",
          "name": "",
          "type": "tuple"
        }
      ],
      "stateMutability": "view",
      "type": "function"
    },
    {
      "inputs": [
        {
          "internalType": "bytes32",
          "name": "messageId",
          "type": "bytes32"
        }
      ],
      "name": "isMessageProcessed",
      "outputs": [
        {
          "internalType": "bool",
          "name": "",
          "type": "bool"
        }
      ],
      "stateMutability": "view",
      "type": "function"
    },
    {
      "inputs": [],
      "name": "owner",
      "outputs": [
        {
          "internalType": "address",
          "name": "",
          "type": "address"
        }
      ],
      "stateMutability": "view",
      "type": "function"
    },
    {
      "inputs": [
        {
          "internalType": "bytes32",
          "name": "",
          "type": "bytes32"
        }
      ],
      "name": "processedMessages",
      "outputs": [
        {
          "internalType": "bool",
          "name": "",
          "type": "bool"
        }
      ],
      "stateMutability": "view",
      "type": "function"
    },
    {
      "inputs": [
        {
          "internalType": "address",
          "name": "sender",
          "type": "address"
        },
        {
          "internalType": "bool",
          "name": "authorized",
          "type": "bool"
        }
      ],
      "name": "setSenderAuthorization",
      "outputs": [],
      "stateMutability": "nonpayable",
      "type": "function"
    },
    {
      "inputs": [
        {
          "internalType": "uint64",
          "name": "chainSelector",
          "type": "uint64"
        },
        {
          "internalType": "bool",
          "name": "authorized",
          "type": "bool"
        }
      ],
      "name": "setSourceChainAuthorization",
      "outputs": [],
      "stateMutability": "nonpayable",
      "type": "function"
    },
    {
      "inputs": [
        {
          "internalType": "address",
          "name": "newOwner",
          "type": "address"
        }
      ],
      "name": "transferOwnership",
      "outputs": [],
      "stateMutability": "nonpayable",
      "type": "function"
    }
  ],
  "bytecode": "0x60c03461012157601f6112d038819003918201601f19168301916001600160401b0383118484101761012657808492604094855283398101031261012157610052602061004b8361013c565b920161013c565b6001600160a01b03918216919082156100eb57169081156100a65760805260a052600080546001600160a01b0319163317905560405161117f9081610151823960805181610dd3015260a05181610cff0152f35b60405162461bcd60e51b815260206004820152601b60248201527f496e76616c6964206172626974726174696f6e207365727669636500000000006044820152606490fd5b60405162461bcd60e51b815260206004820152600e60248201526d24b73b30b634b2103937baba32b960911b6044820152606490fd5b600080fd5b634e487b7160e01b600052604160045260246000fd5b51906001600160a01b03821682036101215756fe608080604052600436101561001357600080fd5b60003560e01c9081630de2298414610dc0575080630de88bf914610d2e5780631b4cf8c614610ce95780631bd31ef6146102785780631df043a214610c6657806324532f3014610c275780632c7157a314610b925780635e88832b146109085780636f324967146108c957806385572ffb146102a957806388ba16ab146102785780638da5cb5b1461024f578063d8c57892146101425763f2fde38b146100b957600080fd5b3461013d57602036600319011261013d576100d2610f66565b600054906001600160a01b03906100ec3383851614611110565b16908115610104576001600160a01b03191617600055005b60405162461bcd60e51b815260206004820152601160248201527024b73b30b634b2103732bb9037bbb732b960791b6044820152606490fd5b600080fd5b3461013d5760208060031936011261013d57600060c060405161016481610e3c565b8281528284820152826040820152826060820152606060808201528260a08201520152600435600052600381526040600020604051906101a382610e3c565b8054825260ff600182015416838301901515815261023e60028301546040850190815260018060a01b0380600386015416606087019081526101e760048701610e78565b9260808801938452600660058801549760a08a0198895201549560c08901968752604051998a99818b5251908a01525115156040890152516060880152511660808601525160e060a0860152610100850190610f41565b915160c08401525160e08301520390f35b3461013d57600036600319011261013d576000546040516001600160a01b039091168152602090f35b3461013d57602036600319011261013d576004356000526004602052602060ff604060002054166040519015158152f35b3461013d5760031960203682011261013d57600435906001600160401b03821161013d5760a08260040191833603011261013d5760248201916001600160401b036102f384610ff3565b16600052600160205260ff60406000205416156108845760206103196044830184611007565b908092918101031261013d57356001600160a01b0381169081900361013d57600052600260205260ff6040600020541615610849576064610391918335600052600460205261037060ff6040600020541615611039565b833560005260046020526040600020600160ff198254161790550182611007565b8101929060208185031261013d578035906001600160401b03821161013d57019260408482031261013d5760405193604085018581106001600160401b038211176106e5576040528035600381101561013d5785526020810135906001600160401b03821161013d57019080601f8301121561013d5781602061041693359101610fbc565b926020810193845280516003811015610833576001036106fb575061043a90610ff3565b9151908151820160208382031261013d5760208301516001600160401b03811161013d5760e081850183031261013d576040519361047785610e3c565b8082016020810151865260400151801515810361013d576020860152808201606081015160408701526104ac90608001611085565b606086015260a08282010151926001600160401b03841161013d5760e0936020806104dd9301918585010101611099565b608086015260c0828201015160a086015201015160c0830152803560005260036020526040600020928251845561052960208401511515600186019060ff801983541691151516179055565b6040830151600285015560608301516003850180546001600160a01b0319166001600160a01b03929092169190911790556080830151805194906001600160401b0386116106e55761057e6004830154610e02565b601f811161069e575b50602090601f871160011461062b5761061e969160009183610620575b50508160011b916000199060031b1c19161760048201555b60a08401516005820155600660c08501519101558251907f87261b858e3fa6f6866029cd6d1186a2044fbe95bc7719f510592efc65f8393a60406001600160401b036020870151151593828801518351958652602086015216943592a46110de565b005b0151905087806105a4565b906004830160005260206000209160005b601f1989168110610686575091879160019361061e99601f1981161061066d575b505050811b0160048201556105bc565b015160001960f88460031b161c1916905587808061065d565b9192602060018192868501518155019401920161063c565b600483016000526020600020601f880160051c8101602089106106de575b601f830160051c820181106106d2575050610587565b600081556001016106bc565b50806106bc565b634e487b7160e01b600052604160045260246000fd5b929192516003811015610833571561070f57005b61071890610ff3565b9051805181019060208183031261013d576020810151906001600160401b03821161013d570161010091828282031261013d57604051928084018481106001600160401b038211176106e5576040526020830151845261077a60408401611085565b94602085019586526060840151946040810195865261079b60808601611085565b606082015260a0850151608082015260c0850151926001600160401b03841161013d577fdf4a18618d9c4ad20001b098771d6ddf56e6cf2280c8738c93cd34cee23f7d83956107fc6001600160401b03956020806040990191840101611099565b60a084015260e08181015160c085015291015190820152519551945183516001600160a01b039096168652602086015216943592a4005b634e487b7160e01b600052602160045260246000fd5b60405162461bcd60e51b81526020600482015260136024820152722ab730baba3437b934bd32b21039b2b73232b960691b6044820152606490fd5b60405162461bcd60e51b815260206004820152601960248201527f556e617574686f72697a656420736f7572636520636861696e000000000000006044820152606490fd5b3461013d57602036600319011261013d576001600160a01b036108ea610f66565b166000526002602052602060ff604060002054166040519015158152f35b3461013d5760031960403682011261013d57600435602435916001600160401b039081841161013d5760e090843603011261013d576040519161094a83610e3c565b83600401358352602484013591821515830361013d5760208481019384526044860135604086019081526001600160a01b0392916064880135848116810361013d5760608801908152608489013584811161013d5789013660238201121561013d576109c0903690602460048201359101610fbc565b946080890195865260a089019660a48b0135885260c460c08b019b01358b526109ee82600054163314611110565b8060005260048452610a0860ff6040600020541615611039565b600052600483526040600020936001948560ff1982541617905560038452610a4a6040600020998b518b55511515868b019060ff801983541691151516179055565b5160028901556003880191511660018060a01b031982541617905560048601935180519384116106e557610a7e8554610e02565b601f8111610b49575b5081601f8511600114610ad75750928061061e999593819360069896600094610acc575b50501b916000199060031b1c19161790555b516005840155519101556110de565b015192508b80610aab565b9190601f9493941984168660005283600020936000905b828210610b32575050916006979593918561061e9c98969410610b19575b505050811b019055610abd565b015160001960f88460031b161c19169055898080610b0c565b808886978294978701518155019601940190610aee565b8560005282600020601f860160051c810191848710610b88575b601f0160051c019084905b828110610b7c575050610a87565b60008155018490610b6e565b9091508190610b63565b3461013d57604036600319011261013d577f521367d58b83c365ec9fb90bfa01423c3bbec4fc0e776e21830e4375b1211e376040610bce610f8b565b6001600160401b03610bde610f7c565b91610bf460018060a01b03600054163314611110565b1690816000526001602052610c1881846000209060ff801983541691151516179055565b825191825215156020820152a1005b3461013d57602036600319011261013d576001600160401b03610c48610f8b565b166000526001602052602060ff604060002054166040519015158152f35b3461013d57604036600319011261013d577f7acf88556057e561645e1c63ec27acf561f4bced268a556772140d1dde13f7776040610ca2610f66565b610caa610f7c565b60005490916001600160a01b0391610cc59083163314611110565b1690816000526002602052610c1881846000209060ff801983541691151516179055565b3461013d57600036600319011261013d576040517f00000000000000000000000000000000000000000000000000000000000000006001600160a01b03168152602090f35b3461013d57602036600319011261013d5760043560005260036020526040600020805460ff600183015416916002810154610db160018060a01b03600384015416610d7b60048501610e78565b9060066005860154950154936040519788978852151560208801526040870152606086015260e0608086015260e0850190610f41565b9160a084015260c08301520390f35b3461013d57600036600319011261013d577f00000000000000000000000000000000000000000000000000000000000000006001600160a01b03168152602090f35b90600182811c92168015610e32575b6020831014610e1c57565b634e487b7160e01b600052602260045260246000fd5b91607f1691610e11565b60e081019081106001600160401b038211176106e557604052565b90601f801991011681019081106001600160401b038211176106e557604052565b9060405191826000825492610e8c84610e02565b908184526001948581169081600014610efb5750600114610eb8575b5050610eb692500383610e57565b565b9093915060005260209081600020936000915b818310610ee3575050610eb693508201013880610ea8565b85548884018501529485019487945091830191610ecb565b915050610eb694506020925060ff191682840152151560051b8201013880610ea8565b60005b838110610f315750506000910152565b8181015183820152602001610f21565b90602091610f5a81518092818552858086019101610f1e565b601f01601f1916010190565b600435906001600160a01b038216820361013d57565b60243590811515820361013d57565b600435906001600160401b038216820361013d57565b6001600160401b0381116106e557601f01601f191660200190565b929192610fc882610fa1565b91610fd66040519384610e57565b82948184528183011161013d578281602093846000960137010152565b356001600160401b038116810361013d5790565b903590601e198136030182121561013d57018035906001600160401b03821161013d5760200191813603831361013d57565b1561104057565b60405162461bcd60e51b815260206004820152601960248201527f4d65737361676520616c72656164792070726f636573736564000000000000006044820152606490fd5b51906001600160a01b038216820361013d57565b81601f8201121561013d5780516110af81610fa1565b926110bd6040519485610e57565b8184526020828401011161013d576110db9160208085019101610f1e565b90565b60008091517f6c78a4693ff13dc7ba1a3ff619717b46fc7fc51f4057a814bcc0be741a09f306602060405160018152a4565b1561111757565b60405162461bcd60e51b815260206004820152600a60248201526927b7363c9037bbb732b960b11b6044820152606490fdfea2646970667358221220edca0e24e84f0a66760744638d5ee65f7638890111f3ebcb1cedeba87282083b64736f6c63430008140033",
  "linkReferences": {},
  "deployedLinkReferences": {}
}