{
  "_format": "hh-sol-artifact-1",
  "contractName": "_EnhancedRentDeployer",
  "sourceName": "contracts/ContractFactory.sol",
  "abi": [
    {
      "inputs": [
        {
          "internalType": "address",
          "name": "_landlord",
          "type": "address"
        },
        {
          "internalType": "address",
          "name": "_tenant",
          "type": "address"
        },
        {
          "internalType": "uint256",
          "name": "_rentAmount",
          "type": "uint256"
        },
        {
          "internalType": "address",
          "name": "_priceFeed",
          "type": "address"
        },
        {
          "internalType": "uint256",
          "name": "_dueDate",
          "type": "uint256"
        },
        {
          "internalType": "uint256",
          "name": "_propertyId",
          "type": "uint256"
        },
        {
          "internalType": "address",
          "name": "_arbitrationService",
          "type": "address"
        },
        {
          "internalType": "address",
          "name": "_merkleEvidenceManager",
          "type": "address"
        }
      ],
      "name": "deploy",
      "outputs": [
        {
          "internalType": "address",
          "name": "",
          "type": "address"
        }
      ],
      "stateMutability": "nonpayable",
      "type": "function"
    }
  ],
  "bytecode": "0x6080806040523461001657614a3f908161001c8239f35b600080fdfe608080604052600436101561001357600080fd5b6000803560e01c636e4db8011461002957600080fd5b34610130576101008060031936011261012c576001600160a01b03600435818116949192908590036101285760243594838616809603610124576064358481168091036101205760c43585811680910361011c5760e43591868316809303610118576148d6988987019487861067ffffffffffffffff871117610104578798999a97969761013488398552602085015260443560408501526060840152608435608084015260a43560a084015260c083015260e082015203019083f09081156100f9576020925060405191168152f35b6040513d84823e3d90fd5b634e487b7160e01b8a52604160045260248afd5b8780fd5b8680fd5b8580fd5b8480fd5b8380fd5b5080fd5b80fdfe610220346200055257601f620048d638819003918201601f19168301916001600160401b038311848410176200053c578084926101009460405283398101031262000552576200004f8162000573565b906200005e6020820162000573565b90604081015190620000736060820162000573565b60808201519260a0830151906200009b60e06200009360c0870162000573565b950162000573565b60405190959091602083016001600160401b038111848210176200053c576040526000835260405190620000cf8262000557565b601482527f54656d706c61746552656e74436f6e7472616374000000000000000000000000602083015260405191620001088362000557565b60018352603160f81b6020840152620001218162000588565b6101205262000130836200075b565b6101405260208151910120918260e052602081519101209182610100524660a0526040519260208401917f8b73c3c69bb8fe3d512ecc4cf759cc79239f7b179b0ffacaa9a75d522b39400f8352604085015260608401524660808401523060a084015260a0835260c083019280841060018060401b038511176200053c576001936040525190206080523060c0528160025560ff199060058260095416176009556101609a8b52610180998a526101a095865260035580600454166004556000600555600654161760065560018060a01b0391826101c09516855261ff001960105416601055600060115561ffff19601254166012556101e0958652600060155580519060018060401b0382116200053c5760195490600182811c9216801562000531575b60208310146200051b5781601f849311620004a6575b50602090601f83116001146200041b576000926200040f575b50508160011b916000199060031b1c1916176019555b6008556102009416845260405194613fe39687620008f38839608051876138fd015260a051876139c8015260c051876138c7015260e0518761394c01526101005187613972015261012051876119f301526101405187611a1c0152518681816103e0015281816105bb015281816108ab01528181610fce015281816111a7015281816112b101528181611384015281816118e20152818161266c0152818161281e01528181612a1701528181612b2801528181612c8e015281816131900152818161329c0152613b7e01525185818161036c0152818161053b015281816108f001528181611079015281816110ee015281816114f00152818161175a015281816119b501528181612776015281816127d0015281816128f601528181612a4f01528181612b5801528181612ccf015281816131270152613ba501525184610502015251838181611bda0152613a16015251828181611d74015281816129b10152612ffc015251818181610c350152612c440152f35b01519050388062000284565b601960009081527f944998273e477b495144fb8794c914197f3ccb46be2900f4698fd0ef743c96959350601f198516905b8181106200048d575090846001959493921062000473575b505050811b016019556200029a565b015160001960f88460031b161c1916905538808062000464565b929360206001819287860151815501950193016200044c565b60196000529091507f944998273e477b495144fb8794c914197f3ccb46be2900f4698fd0ef743c9695601f840160051c8101916020851062000510575b90601f859493920160051c01905b8181106200050057506200026b565b60008155849350600101620004f1565b9091508190620004e3565b634e487b7160e01b600052602260045260246000fd5b91607f169162000255565b634e487b7160e01b600052604160045260246000fd5b600080fd5b604081019081106001600160401b038211176200053c57604052565b51906001600160a01b03821682036200055257565b8051602091908281101562000627575090601f825111620005c65780825192015190808310620005b757501790565b82600019910360031b1b161790565b90604051809263305a27a960e01b82528060048301528251908160248401526000935b8285106200060d575050604492506000838284010152601f80199101168101030190fd5b8481018201518686016044015293810193859350620005e9565b6001600160401b0381116200053c576000928354926001938481811c9116801562000750575b838210146200073c57601f811162000706575b5081601f84116001146200069f5750928293918392869462000693575b50501b916000199060031b1c191617905560ff90565b0151925038806200067d565b919083601f1981168780528488209488905b88838310620006eb5750505010620006d1575b505050811b01905560ff90565b015160001960f88460031b161c19169055388080620006c4565b858701518855909601959485019487935090810190620006b1565b85805284601f848820920160051c820191601f860160051c015b8281106200073057505062000660565b87815501859062000720565b634e487b7160e01b86526022600452602486fd5b90607f16906200064d565b805160209081811015620007e95750601f825111620007885780825192015190808310620005b757501790565b90604051809263305a27a960e01b82528060048301528251908160248401526000935b828510620007cf575050604492506000838284010152601f80199101168101030190fd5b8481018201518686016044015293810193859350620007ab565b9192916001600160401b0381116200053c5760019182548381811c91168015620008e7575b828210146200051b57601f8111620008ae575b5080601f83116001146200086157508192939460009262000855575b5050600019600383901b1c191690821b17905560ff90565b0151905038806200083d565b90601f198316958460005282600020926000905b888210620008965750508385969710620006d157505050811b01905560ff90565b80878596829496860151815501950193019062000875565b8360005283601f83600020920160051c820191601f850160051c015b828110620008da57505062000821565b60008155018490620008ca565b90607f16906200080e56fe608080604052600436101561001357600080fd5b60003560e01c908162bf08111461327a5750806302fb0c5e14613257578063061c40a114611c095780630675d432146132365780630691dc2114613111578063078760cc146130f65780630dadd460146130bc5780630ff2d003146130965780631048ceb61461305757806317a6e5341461302b5780631b4cf8c614612fe65780631d963e0614612d545780631df3efbd1461291d5780631ecd624414612c2e578063256fa82414612d365780632b18c38a14612cf75780632fd480cf14612c73578063308599df14612c2e57806331ea548414612c1057806333d939e31461299057806338b903331461294e5780633a8554c11461291d57806340b93ff2146127f757806341ea3b831461262657806342a24991146125fa57806343fe79ec146125df5780635e361c5e146125b95780636103d70b146124a7578063614d08f81461245257806362708a9114611cfa5780636a9293f914611c2c5780636c51bb7314611c09578063741bef1a14611bc4578063786716fe14611ba65780637bb7a03014611b615780637c07a83d14611b095780637f02556614611ae657806384b0196e146119dd5780638d2387c4146118bc57806396c05a571461188f5780639b14d4c6146118715780639c63558a146118535780639d14b3f2146117a3578063a04e67fa14611781578063a519cf6714611337578063a5d8b6501461129b578063a6a7f0eb1461126b578063aa52e7b714611174578063abc5ffcc14611143578063ad7fac361461111d578063adf07791146110d8578063b243dce9146110a1578063bc53aca914610f9b578063bea2dd7c14610b1e578063cbcacdab14610ae4578063ce057d6414610ab7578063ce513b6f14610a7d578063d58de8d514610a04578063d6ee0d141461098e578063d9e8843f146108da578063dc1997ea14610895578063e30c821914610721578063e3a96cbd1461064d578063e7b0f6661461062f578063e9d5201314610525578063ee7a3b8e146104ea578063f8c7978c14610356578063f8ef1e13146103385763fb7cfdd71461031557600080fd5b34610333576000366003190112610333576020601554604051908152f35b600080fd5b34610333576000366003190112610333576020600354604051908152f35b6000366003190112610333576001600160a01b037f0000000000000000000000000000000000000000000000000000000000000000811633036104d85760ff60065416156104c65760ff60105416156104b45760009060085480421190816104aa575b506104a1575b6103cb346005546136cf565b806005556103d7613a01565b111561048f575b7f000000000000000000000000000000000000000000000000000000000000000016600080808034855af1610411613b09565b5015610456575b5060408051348152911515602083015233917fa0e44cc6f4f184bc83e145bf7f0cc703b7f698476124cf6a9d7d403d202e77fd91819081015b0390a2005b80600052600a602052604060002061046f3482546136cf565b9055600080516020613f8e8339815191526020604051348152a281610418565b600160ff1960045416176004556103de565b600191506103bf565b90501515836103b9565b60405163ac37e5cb60e01b8152600490fd5b604051634065aaf160e11b8152600490fd5b60405163873cf48b60e01b8152600490fd5b346103335760003660031901126103335760206040517f00000000000000000000000000000000000000000000000000000000000000008152f35b6000366003190112610333576001600160a01b037f0000000000000000000000000000000000000000000000000000000000000000811633036104d85760ff60065416156104c65760ff60105416156104b457610580613a01565b906000916008548042119081610625575b506105fe575b34106105ec576105a9346005546136cf565b600555600160ff1960045416176004557f000000000000000000000000000000000000000000000000000000000000000016600080808034855af1610411613b09565b604051631fbaba3560e01b8152600490fd5b61061c919250606461061560ff60095416836139ee565b04906136cf565b90600191610597565b9050151584610591565b34610333576000366003190112610333576020600554604051908152f35b34610333576020366003190112610333576106766004356106716017548210613be1565b613c37565b50600281549160ff8360a01c169060018101546003820154926106af6004840154936106a8604051809881930161345c565b0386613397565b6040516001600160a01b039096168652600781101561070b57859460ff926106ec926020880152604087015260e0606087015260e08601906133d3565b928181161515608086015260081c16151560a084015260c08301520390f35b634e487b7160e01b600052602160045260246000fd5b602080600319360112610333576004359060ff60065416156104c65761074a6017548310613be1565b6000828152600c825260409020546001600160a01b0316330361085757600161077283613c37565b500154801561081c57341561080a57336000526016825260406000206107993482546136cf565b9055336000526016825260406000205460405190348252838201527fbf1aa192c46bca8374cb6283fdf4d37fb62c9c903f007cd6c85bdea930ca0ed860403392a2336000526016825260406000205410156107f057005b6000918252600d905260409020805460ff19166001179055005b604051632b7786bd60e21b8152600490fd5b60405162461bcd60e51b81526004810183905260136024820152721b9bc81c995c5d595cdd195908185b5bdd5b9d606a1b6044820152606490fd5b6064906040519062461bcd60e51b8252600482015260176024820152761bdb9b1e481919589d1bdc881b585e4819195c1bdcda5d604a1b6044820152fd5b34610333576000366003190112610333576040517f00000000000000000000000000000000000000000000000000000000000000006001600160a01b03168152602090f35b34610333576020366003190112610333576004357f00000000000000000000000000000000000000000000000000000000000000006001600160a01b031633036104d85760ff60065416156104c65760ff60105416156104b45760035481106105ec57600160ff196004541617600455610956816005546136cf565b600555604051908152600060208201527fa0e44cc6f4f184bc83e145bf7f0cc703b7f698476124cf6a9d7d403d202e77fd60403392a2005b34610333576020366003190112610333576004356109af6017548210613be1565b6000526018602052600160406000206109f1604051916109da836109d3818461345c565b0384613397565b6109ea604051809581930161345c565b0383613397565b610a00604051928392836134f2565b0390f35b60203660031901126103335760043560ff60065416156104c657610a2b6017548210613be1565b3415610a4d57600052600b6020526040600020610a493482546136cf565b9055005b60405162461bcd60e51b81526020600482015260086024820152676e6f2076616c756560c01b6044820152606490fd5b34610333576020366003190112610333576001600160a01b03610a9e61331e565b16600052600a6020526020604060002054604051908152f35b346103335760003660031901126103335760065460405160089190911c6001600160a01b03168152602090f35b34610333576020366003190112610333576001600160a01b03610b0561331e565b16600052600e6020526020604060002054604051908152f35b34610333576101003660031901126103335760a0366043190112610333576001600160401b0360e435116103335736602360e435011215610333576001600160401b0360e43560040135116103335736602460e4356004013560051b60e435010111610333576044356004358103610f6357610b986136ac565b336001600160a01b0390911603610f1457604051630c8823c560e21b81526024803560048301528101919091526064803560448301526084359082015260a4356001600160a01b0381169081900361033357608482015260c4803560a483015260e09082015260e48035600401359082018190526001600160fb1b03106103335761010460e4356004013560051b602460e43501828401376020917f00000000000000000000000000000000000000000000000000000000000000006001600160a01b03169183908290600460e435013560051b820182900301816000865af1908115610e8457600091610edf575b5015610e905760a060249160405192838092632d62214160e11b8252823560048301525afa908115610e8457600091610ddf575b50805115610da357602435600052601c82526040600020600160ff1982541617905551604051338152602435907fcda0f9343754a1f1eb70b2bfc89e5460363c97d0aeb9a81e50998cc2b4cf2cff8460043592a4610d176136ac565b604080516001600160a01b039092168252606435838301526084359160243591600435917f9eded2f92e1536c963ca9a2d5497d90dccdb5c4f90f6f6f2b909ed8e48b81fe79190a460408051916064358352820152600060408201523390608435907f10991e8f7e7beee5c54f4c2aadd4bfc06ec25b487a6e800adecfb06ef88e4e10606060043592a4005b60405162461bcd60e51b815260048101839052601460248201527310985d18da08191bd95cc81b9bdd08195e1a5cdd60621b6044820152606490fd5b905060a0813d60a011610e7c575b81610dfa60a09383613397565b81010312610333576040519060a082018281106001600160401b03821117610e66576040908152815183528382015184840152818101519083015260608101516001600160a01b0381168103610333576060830152610e5b906080016136c2565b608082015282610cbb565b634e487b7160e01b600052604160045260246000fd5b3d9150610ded565b6040513d6000823e3d90fd5b60405162461bcd60e51b815260048101839052602160248201527f496e76616c6964204d65726b6c652070726f6f6620666f722065766964656e636044820152606560f81b6064820152608490fd5b90508281813d8311610f0d575b610ef68183613397565b8101031261033357610f07906136c2565b83610c87565b503d610eec565b60405162461bcd60e51b815260206004820152602160248201527f4f6e6c792065766964656e63652075706c6f616465722063616e207375626d696044820152601d60fa1b6064820152608490fd5b60405162461bcd60e51b815260206004820152601060248201526f086c2e6ca40928840dad2e6dac2e8c6d60831b6044820152606490fd5b34610333576040366003190112610333576004356001600160a01b038181169182810361033357610fca613413565b91807f0000000000000000000000000000000000000000000000000000000000000000163314908115611075575b50156110635760068054610100600160b01b03191660089290921b610100600160a81b03169190911791151560a881901b60ff60a81b169290921790556040519081527fbc4904a0d966a8e4425b1f254fbc8c0e7ad6a82d6df04834fc136017fbabe0da90602090a2005b60405163c8ee2d1d60e01b8152600490fd5b90507f000000000000000000000000000000000000000000000000000000000000000016331484610ff8565b34610333576060366003190112610333576024356001600160401b038111610333576110d1903690600401613334565b50506136dc565b34610333576000366003190112610333576040517f00000000000000000000000000000000000000000000000000000000000000006001600160a01b03168152602090f35b3461033357600036600319011261033357602060ff60125460101c166040519015158152f35b3461033357602036600319011261033357600435600052601a602052602060ff604060002054166040519015158152f35b346103335760603660031901126103335760043560243561ffff81168091036103335760443591821515809303610333577f00000000000000000000000000000000000000000000000000000000000000006001600160a01b031633036112595760ff60065416156104c6576127108211611247577fddb90d16162bf80f3a2eef91afa4209060997fa5804c0582625f721bae94295592606092826011558061ffff19601254161760125560105461ff008360081b169061ff0019161760105560405192835260208301526040820152a1005b604051638bff87cf60e01b8152600490fd5b604051636dd80efb60e01b8152600490fd5b34610333576040366003190112610333576024356001600160401b038111610333576110d1903690600401613334565b34610333576020366003190112610333576004357f00000000000000000000000000000000000000000000000000000000000000006001600160a01b031633036112595760ff60065416156104c65760ff60105416611325576020817f55d7e6f1a179e3ea50ffc19aaf954604d6fe7263c7afd9d254f0f52ec8c6396a92600855604051908152a1005b60405163072b8fab60e21b8152600490fd5b60603660031901126103335760043560078110158061033357602435604435916001600160401b039283811161033357611375903690600401613334565b909360ff60065416156104c6577f00000000000000000000000000000000000000000000000000000000000000009060018060a01b0394858316331493848015611756575b1561106357811590818061171c575b6105ec5760175498600160401b8a1015610e665760018a016017556113ed8a613c37565b50506113f88a613c37565b5080546001600160a01b0319808216331783559990919061070b576001600160a81b03199091163360ff60a01b19161760a08d901b60ff60a01b1617815560018101859055600201948211610e6657819061145d826114578854613422565b88613c6c565b600090601f83116001146116af576000926116a4575b50508160011b916000199060031b1c19161783555b6000908015611659575b50341061164857867f77cab04088373d57fb883a7e27e3a4698242bf37032f5b1ca70f66a6b866eae393819534611633575b1561160857507f80ea24f07b68cea4c5718e5b12578e3191d61aad86d48bb974ceb3cd5bcd77446115a67f0000000000000000000000000000000000000000000000000000000000000000945b8360005260209b8c96600c88528b60406000209116809b82541617905589600052601687528560406000205410156000146115ee5784600052600d87526040600020600160ff198254161790555b60ff604051911681528587820152847fffcd42e6086c659e0aa984404519562964882864865af05ba1f6737b7528566060403393a36040519182918783528783019061345c565b0390a2604051908152a36006549060ff8260a81c1691826115df575b50506115d1575b604051908152f35b6115da81613d42565b6115c9565b60081c161515905083806115c2565b84600052600d8752604060002060ff19815416905561155f565b6115a67f80ea24f07b68cea4c5718e5b12578e3191d61aad86d48bb974ceb3cd5bcd77449194611511565b82600052600b602052346040600020556114c4565b60405162976f7560e21b8152600490fd5b6032838102925083830414171561168e57612710900466038d7ea4c680008082111561168757505b89611492565b9050611681565b634e487b7160e01b600052601160045260246000fd5b013590508b80611473565b600087815260208082209450919291601f19861691905b8282106117045750509084600195949392106116ea575b505050811b018355611488565b0135600019600384901b60f8161c191690558b80806116dd565b806001859782949688013581550196019301906116c6565b506000965089158015611748575b878115611738575b506113c9565b905061070b5760058a1487611732565b506000965060038a1461172a565b50867f00000000000000000000000000000000000000000000000000000000000000001633146113ba565b3461033357600036600319011261033357602061ffff60125416604051908152f35b60003660031901126103335760ff60065416156104c65760ff60105416156104b457341561080a5733600052601660205260406000206117e43482546136cf565b90553360005260166020526040600020546040519034825260208201527fbf1aa192c46bca8374cb6283fdf4d37fb62c9c903f007cd6c85bdea930ca0ed860403392a2601554801515908161183b575b5061080a57005b90503360005260166020526040600020541081611834565b34610333576000366003190112610333576020601754604051908152f35b34610333576000366003190112610333576020601154604051908152f35b346103335760003660031901126103335760125460405160189190911c6001600160a01b03168152602090f35b346103335760003660031901126103335760ff60065416156104c65760018060a01b03807f00000000000000000000000000000000000000000000000000000000000000001633149081156119b1575b50156110635760125460ff8160101c1661199f5762010000600160b81b0319163360181b6301000000600160b81b031617620100001760125560115461195290426136cf565b6013553360005260146020526040600020600160ff198254161790556013546040519081527f9126012700f3a7594e4990c0663b7ead6e59cf0d7e70a0e95d83b0c77d0a26d560203392a2005b6040516323355c1560e01b8152600490fd5b90507f00000000000000000000000000000000000000000000000000000000000000001633148161190c565b3461033357600036600319011261033357611a177f000000000000000000000000000000000000000000000000000000000000000061351a565b611a407f0000000000000000000000000000000000000000000000000000000000000000613610565b6040516020808201928284106001600160401b03851117610e66579181611a998594611a8b979660405260008452604051978897600f60f81b895260e0858a015260e08901906133d3565b9087820360408901526133d3565b91466060870152306080870152600060a087015285830360c0870152519182815201929160005b828110611acf57505050500390f35b835185528695509381019392810192600101611ac0565b3461033357600036600319011261033357602060ff600454166040519015158152f35b3461033357602036600319011261033357610a006002611b4d611b356004356106716017548210613be1565b50611b46604051809481930161345c565b0382613397565b6040519182916020835260208301906133d3565b3461033357600036600319011261033357602060065460ff8160a81c169081611b90575b506040519015158152f35b60081c6001600160a01b03161515905082611b85565b34610333576000366003190112610333576020600854604051908152f35b34610333576000366003190112610333576040517f00000000000000000000000000000000000000000000000000000000000000006001600160a01b03168152602090f35b3461033357600036600319011261033357602060ff601054166040519015158152f35b3461033357600036600319011261033357604051600090601954611c4f81613422565b808352600191808316908115611cd25750600114611c78575b610a0083611b4d81870382613397565b6019600090815260209450917f944998273e477b495144fb8794c914197f3ccb46be2900f4698fd0ef743c96955b828410611cbf57505050810190910190611b4d81611c68565b8054858501870152928501928101611ca6565b610a009550611b4d93506020915091849260ff191682840152151560051b8201019350611c68565b346103335760c036600319011261033357611d13613413565b606435906001600160a01b03908183168303610333576001600160401b039160843583811161033357611d4a903690600401613334565b60a49591953585811161033357611d65903690600401613334565b969060ff60065416156104c6577f000000000000000000000000000000000000000000000000000000000000000092858416330361244057611db492611dac913691613736565b973691613736565b94601754600435101561242e578383161561241c57604087511161240a576102008651116123f857611de7600435613c37565b5060038101805460ff81166123e65761ffff191687151560081b61ff00161760011790556004356000908152600b602052604090208054939084151590816123dc575b50600094600c602052876040600020541691886001860154948b6000146122af575050612252575b50816120fb575b50505b82600482015560058101600160ff19825416179055600642910155604051906040820182811082821117610e665760405287825260208201878152600435600052601860205260406000209251805190838211610e66578190611ec3826114578854613422565b602090601f83116001146120955760009261208a575b50508160011b916000199060031b1c19161783555b518051918211610e6657611f1282611f096001860154613422565b60018601613c6c565b602090601f8311600114611ff157827fb29443cc73fb0bd9a42a1f881bc6c674dfabfb7565c6fb98c92ab2f3b29796459997959361045199979593600193600092611fe6575b5050600019600383901b1c191690821b179101555b604051931515845260208401521660408201527fbc80199b8b6d57392fcdc07ab3ab44d4790a6793778077535a5ac9b5b19fb518606060043592a26040514281527fb894f5e1ecd878c1aa203fcddc4638ca3a97185ae7b965bc545afe736eb8c9e5602060043592a260405191829160043595836134f2565b015190508c80611f58565b906001840160005260206000209160005b601f19851681106120725750836104519997959360019384937fb29443cc73fb0bd9a42a1f881bc6c674dfabfb7565c6fb98c92ab2f3b29796459d9b9997601f19811610612059575b505050811b01910155611f6d565b015160001960f88460031b161c191690558c808061204b565b91926020600181928685015181550194019201612002565b015190508b80611ed9565b6000878152602081209350601f198516905b8181106120e357509084600195949392106120ca575b505050811b018355611eee565b015160001960f88460031b161c191690558b80806120bd565b929360206001819287860151815501950193016120a7565b6000818152601660205260409020549294509082612121575050506000915b8880611e59565b808310156121fb57816000526016602052600060408120556040519081528260208201528260408201527fcd60b499efa615cff4e7d50ac9776293a94cf420176cd6b1b8be23a139ef70c8606060043592a27f965951a28e7153e192b02969d770243905e850ff56cefff8dccebd8247f90e716020604051848152a26000808080848989165af16121b0613b09565b50156121bd575b9161211a565b848416600052600a60205260406000206121d88282546136cf565b9055604051818152600080516020613f8e833981519152602087871692a26121b7565b9182810390811161168e578160005260166020526040600020557f965951a28e7153e192b02969d770243905e850ff56cefff8dccebd8247f90e716020604051848152a26000808080848989165af16121b0613b09565b8784541690600080808084865af1612268613b09565b5015612275575b50611e52565b6020600080516020613f8e8339815191529183600052600a8252604060002061229f8282546136cf565b9055604051908152a28a8061226f565b92945092506122c1575b505050611e5c565b60009082811661236e575b501690811561233257600080808084865af16122e6613b09565b50156122f8575b50505b8885816122b9565b6020600080516020613f8e8339815191529183600052600a825260406000206123228282546136cf565b9055604051908152a288806122ed565b905030600052600a602052604060002061234d8282546136cf565b9055604051908152600080516020613f8e83398151915260203092a26122f0565b600080916040516020810190638da5cb5b60e01b8252600481526123918161337c565b51915afa61239d613b09565b90806123d0575b156122cc578080935060209250518101031261033357602001518681168091036103335786908b6122cc565b506020815110156123a4565b600090558a611e2a565b60405163f10068b560e01b8152600490fd5b60405163bd3f9d0f60e01b8152600490fd5b604051633ad93d5560e11b8152600490fd5b604051634033e4e360e01b8152600490fd5b60405163023dcbf960e51b8152600490fd5b604051631777988560e11b8152600490fd5b3461033357600036600319011261033357610a006040516124728161337c565b601481527315195b5c1b185d1954995b9d10dbdb9d1c9858dd60621b60208201526040519182916020835260208301906133d3565b346103335760003660031901126103335760028054146125a7576002805533600052600a602052604060002054801561256b5733600052600a60205260006040812055600080808084335af16124fb613b09565b5015612534576040519081527f84511ecc081974f18e7f3e0dcc19db078b55bbd3852ddd0dd85b3aebb7bf94c260203392a26001600255005b60405162461bcd60e51b815260206004820152600f60248201526e15da5d1a191c985dc819985a5b1959608a1b6044820152606490fd5b60405162461bcd60e51b81526020600482015260146024820152734e6f2066756e647320746f20776974686472617760601b6044820152606490fd5b604051633ee5aeb560e01b8152600490fd5b3461033357600036600319011261033357602060ff60105460081c166040519015158152f35b346103335760003660031901126103335760206115c9613b39565b3461033357602036600319011261033357600435600052601b6020526020604060002054604051908152f35b34610333576020366003190112610333576004356001600160401b03811161033357612656903690600401613334565b9060ff60065416156104c6576001600160a01b037f000000000000000000000000000000000000000000000000000000000000000081169290919033841480156127cc575b15611063576126c26126cb916126bc85946126b4613b39565b923691613736565b9061376d565b9092919261382f565b16913383036127ba5782600052600f60205260ff604060002054166127a85782600052600f60205260406000209260ff19936001858254161790557f9857431f631691e1f06c88f0ff16dd0b4186442cea75ff32797fcbb94e585f286020604051428152a2600052600f60205260ff604060002054169081612772575b5080612765575b61275557005b6001906010541617601055600080f35b5060ff601054161561274f565b90507f00000000000000000000000000000000000000000000000000000000000000001660005260ff6040600020541682612748565b60405163585eb56560e11b8152600490fd5b604051630e751dc360e31b8152600490fd5b50827f000000000000000000000000000000000000000000000000000000000000000016331461269b565b346103335760003660031901126103335760ff60065416156104c6576001600160a01b03337f000000000000000000000000000000000000000000000000000000000000000082161480156128f2575b156110635760125460ff8160101c16156128e05760181c1633146128ce5733600052601460205260ff604060002054166128bc573360005260146020526040600020600160ff19825416179055337f36dd776851abba943db092881b249cd975f9187e89eefc980f489a459916e600600080a2005b60405163080fc0bd60e11b8152600490fd5b60405163215af1ad60e11b8152600490fd5b6040516399fcd6df60e01b8152600490fd5b50807f0000000000000000000000000000000000000000000000000000000000000000163314612847565b3461033357602036600319011261033357600435600052601c602052602060ff604060002054166040519015158152f35b3461033357600036600319011261033357610a0060405161296e8161337c565b60018152603160f81b60208201526040519182916020835260208301906133d3565b60003660031901126103335760ff60065416156104c6576001600160a01b037f0000000000000000000000000000000000000000000000000000000000000000811633036124405760125460ff8160101c16156128e05761ffff811680612b07575b505060065460ff811615612af55760ff199081166006556012805462ff0000191681557f000000000000000000000000000000000000000000000000000000000000000083166000908152601460205260408082208054851690557f0000000000000000000000000000000000000000000000000000000000000000851682528120805490931690925580546301000000600160b81b0319811690915560139190915560181c811680612af05750335b167f127a6f1a35dab59c491a32a71869783bdb5702256f5709cb1e60f322ac1529d4600080a2337f4f21b2ca7ec7dda0fd6fe7d3a95d41ea761769df6e1db889d65943ad2de21865600080a2005b612aa2565b60405163232990cb60e01b8152600490fd5b612b1b61271091612b16613a01565b6139ee565b04908134106116485782907f00000000000000000000000000000000000000000000000000000000000000009060181c821681831603612c0b57507f00000000000000000000000000000000000000000000000000000000000000005b82612b84575b506129f2565b1690600080808084865af1612b97613b09565b5015612bd2575b6040519081527f1be0ae4000a6b9a3a509e243d7a015c99eec4953d0a9197f6844a7904a2c6bbb60203392a3818181612b7e565b81600052600a6020526040600020612beb8282546136cf565b905581600080516020613f8e8339815191526020604051848152a2612b9e565b612b78565b34610333576000366003190112610333576020601354604051908152f35b34610333576000366003190112610333576040517f00000000000000000000000000000000000000000000000000000000000000006001600160a01b03168152602090f35b346103335760203660031901126103335760018060a01b03807f0000000000000000000000000000000000000000000000000000000000000000163314908115612ccb575b501561106357612cc9600435613d42565b005b90507f000000000000000000000000000000000000000000000000000000000000000016331481612cb8565b34610333576020366003190112610333576001600160a01b03612d1861331e565b16600052600f602052602060ff604060002054166040519015158152f35b346103335760203660031901126103335760206115c9600435613c16565b346103335760a0366003190112610333576004356001600160401b0360243581811161033357612d88903690600401613334565b9290916044359060843590811161033357612da7903690600401613334565b8294919415612fa857612dbb368784613736565b9081516020809301209586600052601a835260ff60406000205416612f6e57612e57916126bc6126c2926126b4612df3368d8a613736565b878151910120604051888101917f6a5d549bc06bb91708418ef9ae7e948aef42ab925ab8ce5b1acb80eadc9c536c83528c60408301528b606083015260643560808301523360a083015260c082015260c08152612e4f81613361565b51902061389e565b6001600160a01b0316338103612f0857507f10991e8f7e7beee5c54f4c2aadd4bfc06ec25b487a6e800adecfb06ef88e4e1092916040879287600052601a815281600020600160ff19825416179055601b81528482600020558151943389897fae15643747230560610304fe9253c92ead4485f1a378ac7e00b190ce76080ee4600080a4855284015281604084015260608301376000606086830101526060813396601f80199101168101030190a4005b6064925085856040519283527fa639501eb9eb8f0b1a8bebf597ae815288302a99aab858a877e11593910d50de843394a46040519062461bcd60e51b825260048201526011602482015270496e76616c6964207369676e617475726560781b6044820152fd5b60405162461bcd60e51b815260048101849052601260248201527145766964656e6365206475706c696361746560701b6044820152606490fd5b60405162461bcd60e51b815260206004820152601660248201527510dbdb9d195b9d111a59d95cdd081c995c5d5a5c995960521b6044820152606490fd5b34610333576000366003190112610333576040517f00000000000000000000000000000000000000000000000000000000000000006001600160a01b03168152602090f35b346103335760203660031901126103335760043560005260076020526020604060002054604051908152f35b34610333576020366003190112610333576001600160a01b0361307861331e565b166000526014602052602060ff604060002054166040519015158152f35b3461033357600036600319011261033357602060ff60065460a81c166040519015158152f35b34610333576020366003190112610333576001600160a01b036130dd61331e565b1660005260166020526020604060002054604051908152f35b346103335760003660031901126103335760206115c9613a01565b6000366003190112610333576001600160a01b037f0000000000000000000000000000000000000000000000000000000000000000811633036104d85760ff60065416156104c65760ff60105416156104b45761316c613a01565b34106105ec57600160ff19600454161760045561318b346005546136cf565b6005557f000000000000000000000000000000000000000000000000000000000000000016600080808034855af16131c1613b09565b50156131fd575b604051348152600060208201527fa0e44cc6f4f184bc83e145bf7f0cc703b7f698476124cf6a9d7d403d202e77fd60403392a2005b80600052600a60205260406000206132163482546136cf565b9055600080516020613f8e8339815191526020604051348152a2806131c8565b3461033357600036600319011261033357602060ff60095416604051908152f35b3461033357600036600319011261033357602060ff600654166040519015158152f35b34610333576020366003190112610333576004359060ff8216809203610333577f00000000000000000000000000000000000000000000000000000000000000006001600160a01b0316330361330f575060ff60065416156104c6576020817f1f00fcf307a35be155989649663855bd59c43b39cba01f65853483c25cf63c569260ff196009541617600955604051908152a1005b636dd80efb60e01b8152600490fd5b600435906001600160a01b038216820361033357565b9181601f84011215610333578235916001600160401b038311610333576020838186019501011161033357565b60e081019081106001600160401b03821117610e6657604052565b604081019081106001600160401b03821117610e6657604052565b90601f801991011681019081106001600160401b03821117610e6657604052565b6001600160401b038111610e6657601f01601f191660200190565b919082519283825260005b8481106133ff575050826000602080949584010152601f8019910116010190565b6020818301810151848301820152016133de565b60243590811515820361033357565b90600182811c92168015613452575b602083101461343c57565b634e487b7160e01b600052602260045260246000fd5b91607f1691613431565b906000929180549161346d83613422565b9182825260019384811690816000146134cf575060011461348f575b50505050565b90919394506000526020928360002092846000945b8386106134bb575050505001019038808080613489565b8054858701830152940193859082016134a4565b9294505050602093945060ff191683830152151560051b01019038808080613489565b9091613509613517936040845260408401906133d3565b9160208184039101526133d3565b90565b60ff81146135585760ff811690601f8211613546576040519161353c8361337c565b8252602082015290565b604051632cd44ac360e21b8152600490fd5b5060405160008181549161356b83613422565b8083526001938085169081156135ef5750600114613591575b5061351792500382613397565b60008080527f290decd9548b62a8d60345a988386fc84ba6bc95484008f6362f93160ef3e56394602093509091905b8183106135d7575050613517935082010138613584565b855487840185015294850194869450918301916135c0565b905061351794506020925060ff191682840152151560051b82010138613584565b60ff81146136325760ff811690601f8211613546576040519161353c8361337c565b50604051600081600191825461364781613422565b808452908481169081156135ef575060011461366a575061351792500382613397565b9280915060005260209081600020936000915b818310613694575050613517935082010138613584565b8554878401850152948501948694509183019161367d565b60a4356001600160a01b03811681036103335790565b5190811515820361033357565b9190820180921161168e57565b60405162461bcd60e51b815260206004820152602c60248201527f557365207375626d697445766964656e6365576974685369676e61747572652060448201526b666f7220736563757269747960a01b6064820152608490fd5b929192613742826133b8565b916137506040519384613397565b829481845281830111610333578281602093846000960137010152565b815191906041830361379e5761379792506020820151906060604084015193015160001a906137a9565b9192909190565b505060009160029190565b91906fa2a8918ca85bafe22016d0b997e4df60600160ff1b03841161382357926020929160ff608095604051948552168484015260408301526060820152600092839182805260015afa156138175780516001600160a01b0381161561380e57918190565b50809160019190565b604051903d90823e3d90fd5b50505060009160039190565b600481101561070b5780613841575050565b6001810361385b5760405163f645eedf60e01b8152600490fd5b6002810361387c5760405163fce698f760e01b815260048101839052602490fd5b6003146138865750565b602490604051906335e2f38360e21b82526004820152fd5b6042906138a96138c4565b906040519161190160f01b8352600283015260228201522090565b307f00000000000000000000000000000000000000000000000000000000000000006001600160a01b031614806139c5575b1561391f577f000000000000000000000000000000000000000000000000000000000000000090565b60405160208101907f8b73c3c69bb8fe3d512ecc4cf759cc79239f7b179b0ffacaa9a75d522b39400f82527f000000000000000000000000000000000000000000000000000000000000000060408201527f000000000000000000000000000000000000000000000000000000000000000060608201524660808201523060a082015260a0815260c081018181106001600160401b03821117610e665760405251902090565b507f000000000000000000000000000000000000000000000000000000000000000046146138f6565b8181029291811591840414171561168e57565b604051633fabe5a360e21b815260a0816004817f00000000000000000000000000000000000000000000000000000000000000006001600160a01b03165afa908115610e8457600091613aa3575b506000811315613a92576003546305f5e1009081810291818304149015171561168e578115613a7c570490565b634e487b7160e01b600052601260045260246000fd5b60405162bfc92160e01b8152600490fd5b9060a0823d8211613aea575b81613abc60a09383613397565b81010312613ae75750613ace81613af2565b50613ae0608060208301519201613af2565b5038613a4f565b80fd5b3d9150613aaf565b519069ffffffffffffffffffff8216820361033357565b3d15613b34573d90613b1a826133b8565b91613b286040519384613397565b82523d6000602084013e565b606090565b6135176003546008546040519060208201927fc3c36f1afc30ba5f82b8e21c3357404dd1f6837934ac8d4adcf2f9f3fbb18321845230604084015260018060a01b03807f00000000000000000000000000000000000000000000000000000000000000001660608501527f000000000000000000000000000000000000000000000000000000000000000016608084015260a083015260c082015260c08152612e4f81613361565b15613be857565b60405162461bcd60e51b8152602060048201526006602482015265189859081a5960d21b6044820152606490fd5b601754811015613c3157600052600b60205260406000205490565b50600090565b601754811015613c565760176000526007602060002091020190600090565b634e487b7160e01b600052603260045260246000fd5b90601f8111613c7a57505050565b600091825260208220906020601f850160051c83019410613cb6575b601f0160051c01915b828110613cab57505050565b818155600101613c9f565b9092508290613c96565b600092918154613ccf81613422565b92600191808316908115613d275750600114613ceb5750505050565b90919293945060005260209081600020906000915b858310613d165750505050019038808080613489565b805485840152918301918101613d00565b60ff1916845250505081151590910201915038808080613489565b6006549060ff8260a81c16158015613f78575b613f7457601754811015613f7457613d6c81613c37565b509060ff6003830154168015613f66575b613f615760408051602093848201943060601b86528460348401524260548401526054835260808301966001600160401b0390848910828a1117610e6657888652845190972083546001600160a01b03908116996002860199919660a081019190613dfe90613dec848e613cc0565b03609f1981018352607f190182613397565b5190209160018601549288519061010082019582871090871117610e6657613ebe9c87968b5283835230878401528b8b84015260608301526080820152611b46613e4d8c8b519283809261345c565b60a08201528360c082015260e042910152898851613e8081613e728882018095613cc0565b03601f198101835282613397565b5190209288519b8c9b8c9586946306d9f63760e01b865260048601523060248601528c6044860152606485015260e0608485015260e484019061345c565b9060a4830152600160c48301528760009c8d92039360081c165af1879681613f2e575b50613ef0575b50505050505050565b7fbc88cd3bb31b6e8e0df53ad910b3ac822102afd04c1f71486b348a01016e35259360078792878a525287205554169380a438808080808080613ee7565b9096508181813d8311613f5a575b613f468183613397565b81010312613f5657519538613ee1565b8780fd5b503d613f3c565b505050565b5060ff600583015416613d7d565b5050565b50600882901c6001600160a01b031615613d5556febf377c684817c24483856b59fef97f3394a5556f5e6e25b2d922e951f4944d2ba26469706673582212209a8dc50016e33ce295de1a51f827ca16add1c156f175f0686bc78fe26af9c0c964736f6c63430008140033a26469706673582212200342453ba95b37f2ffc1710d7a908d43d6a749f20750603d6adf70b1630a369564736f6c63430008140033",
  "linkReferences": {},
  "deployedLinkReferences": {}
}