{
  "_format": "hh-sol-artifact-1",
  "contractName": "_NDADeployer",
  "sourceName": "contracts/ContractFactory.sol",
  "abi": [
    {
      "inputs": [
        {
          "internalType": "address",
          "name": "_partyA",
          "type": "address"
        },
        {
          "internalType": "address",
          "name": "_partyB",
          "type": "address"
        },
        {
          "internalType": "uint256",
          "name": "_expiryDate",
          "type": "uint256"
        },
        {
          "internalType": "uint16",
          "name": "_penaltyBps",
          "type": "uint16"
        },
        {
          "internalType": "bytes32",
          "name": "_customClausesHash",
          "type": "bytes32"
        },
        {
          "internalType": "uint256",
          "name": "_minDeposit",
          "type": "uint256"
        },
        {
          "internalType": "address",
          "name": "_arbitrationService",
          "type": "address"
        },
        {
          "internalType": "address",
          "name": "_merkleEvidenceManager",
          "type": "address"
        },
        {
          "internalType": "enum PayFeesIn",
          "name": "_payFeesIn",
          "type": "uint8"
        }
      ],
      "name": "deploy",
      "outputs": [
        {
          "internalType": "address",
          "name": "",
          "type": "address"
        }
      ],
      "stateMutability": "nonpayable",
      "type": "function"
    }
  ],
  "bytecode": "0x6080806040523461001657613bff908161001c8239f35b600080fdfe608080604052600436101561001357600080fd5b600090813560e01c6382c2cb811461002a57600080fd5b34610156576101209081600319360112610152576001600160a01b0391600435838116919082900361014e576024359084821680920361014a5760643561ffff81168091036101465760c435908682168092036101425760e4359187831680930361013e576101043594600286101561013a57613a6f968789019789891067ffffffffffffffff8a1117610126579189979593916101409997959361015b8a39875260208701526040860152306060860152604435608086015260a085015260843560c085015260a43560e085015261010084015282015203019083f090811561011b576020925060405191168152f35b6040513d84823e3d90fd5b634e487b7160e01b8c52604160045260248cfd5b8980fd5b8880fd5b8780fd5b8680fd5b8580fd5b8480fd5b8280fd5b5080fdfe61028034620003ad576001600160401b0390601f62003a6f38819003918201601f191683019184831184841017620003975780849261014094604052833981010312620003ad576200005181620003ce565b6200005f60208301620003ce565b906200006e60408401620003ce565b936200007d60608501620003ce565b9260808501519560a086015161ffff81168103620003ad5760c087015160e08801519161010099620000b18b8b01620003ce565b98610120809b0151956002871015620003ad57604051620000d281620003b2565b600b81528d8d602083016a4e444154656d706c61746560a81b815260405193620000fc85620003b2565b600185526020850192603160f81b8452620001178262000464565b9052620001248562000637565b61014052519020928360e0525190208091524660a0526040519060208201927f8b73c3c69bb8fe3d512ecc4cf759cc79239f7b179b0ffacaa9a75d522b39400f8452604083015260608201524660808201523060a082015260a0815260c081019a818c10908c1117620003975760409a8b525190206080523060c05260016002558c61ff0019600a541617600a558961018052876101a0526101c0526101e0526102005261022052610240526102605261ff006003549160081b169061ff0019161760035560018060a01b039283610160951685528381166200023e600093828552600b602052620002388686209760ff199860018a82541617905582169485875287872060018a825416179055620003e3565b620003e3565b84600a5416600a55825260066020528282208481541690558152209081541690556001601c55610e10601b5562015180601d5562093a80601e5566038d7ea4c68000601a556040519161328a9384620007e5853960805184612a77015260a05184612b32015260c05184612a41015260e05184612ac601525183612aec0152518261120a0152610140518261123301525181611d400152610180518161219d01526101a05181611da301526101c051818181610f2d015281816113af01528181611a9c01528181611f8301528181612100015261232801526101e0518181816103bc01528181610de901528181610eaa0152818161130801528181611764015281816119940152611ada0152610200518181816118af015261299701526102205181818161037e01526129c00152610240518181816122af01526129e701526102605181818161059101528181610cfa01526119530152f35b634e487b7160e01b600052604160045260246000fd5b600080fd5b604081019081106001600160401b038211176200039757604052565b51906001600160a01b0382168203620003ad57565b600d546801000000000000000081101562000397576001810180600d558110156200044e57600d6000527fd7b6990105719101dabeb77144f2a3385c8033acd3af97e9423a695e81ad1eb50180546001600160a01b0319166001600160a01b03909216919091179055565b634e487b7160e01b600052603260045260246000fd5b8051602091908281101562000503575090601f825111620004a257808251920151908083106200049357501790565b82600019910360031b1b161790565b90604051809263305a27a960e01b82528060048301528251908160248401526000935b828510620004e9575050604492506000838284010152601f80199101168101030190fd5b8481018201518686016044015293810193859350620004c5565b6001600160401b03811162000397576000928354926001938481811c911680156200062c575b838210146200061857601f8111620005e2575b5081601f84116001146200057b575092829391839286946200056f575b50501b916000199060031b1c191617905560ff90565b01519250388062000559565b919083601f1981168780528488209488905b88838310620005c75750505010620005ad575b505050811b01905560ff90565b015160001960f88460031b161c19169055388080620005a0565b8587015188559096019594850194879350908101906200058d565b85805284601f848820920160051c820191601f860160051c015b8281106200060c5750506200053c565b878155018590620005fc565b634e487b7160e01b86526022600452602486fd5b90607f169062000529565b805160209081811015620006c55750601f8251116200066457808251920151908083106200049357501790565b90604051809263305a27a960e01b82528060048301528251908160248401526000935b828510620006ab575050604492506000838284010152601f80199101168101030190fd5b848101820151868601604401529381019385935062000687565b9192916001600160401b038111620003975760019182548381811c91168015620007d9575b82821014620007c357601f81116200078a575b5080601f83116001146200073d57508192939460009262000731575b5050600019600383901b1c191690821b17905560ff90565b01519050388062000719565b90601f198316958460005282600020926000905b888210620007725750508385969710620005ad57505050811b01905560ff90565b80878596829496860151815501950193019062000751565b8360005283601f83600020920160051c820191601f850160051c015b828110620007b6575050620006fd565b60008155018490620007a6565b634e487b7160e01b600052602260045260246000fd5b90607f1690620006ea56fe6080604052600436101561008e575b36156100505760405162461bcd60e51b815260206004820152601460248201527311985b1b189858dac81b9bdd08185b1b1bddd95960621b6044820152606490fd5b60405162461bcd60e51b8152602060048201526016602482015275111a5c9958dd08115512081b9bdd08185b1b1bddd95960521b6044820152606490fd5b60003560e01c806302fae73f146122f857806302fb0c5e146122d257806305637ded146122975780630611a046146122665780630f263f8f1461222c5780630fd4fbdc146121f25780630ff2d003146121cc57806310e1d8ca146121875780631325a29a1461215a57806317a6e5341461212f5780631b4cf8c6146120ea5780631df3efbd146120b95780632792353e14611dd25780632904011314611d8d5780632efcb9ca14611d6f578063308599df14611d2a57806333289a4614611bff578063373c3e7614611a7257806338b9033314611a305780633f4ba83a1461197657806341b3d1851461193b57806343fe79ec1461191857806344276733146118d2578063516dde4314611897578063571c3e601461172f5780635c100f83146117115780636103d70b1461164a578063614d08f8146115fe57806362469d88146114995780636301a2c3146114195780637bb7a030146113d75780638456cb59146112ea57806384b0196e146111f157806385209ee0146111c75780638afdd74f1461118d578063928a7b051461116f578063a8311aa8146110c4578063a91a108014611035578063b51459fe14611010578063b68ef55914610fa5578063b9ce896b14610f87578063bc53aca914610ed9578063c45a015514610e94578063ce057d6414610e6b578063ce513b6f14610e31578063d080908514610dc6578063d0e30db014610cb2578063d1982a4d146104b9578063d36c2c9d1461049b578063d5bfa4f21461047d578063dc60da99146103a2578063ecfad9fd14610363578063f2c16e6f146103245763fc7e286d0361000e573461031f57602036600319011261031f576001600160a01b03610306612560565b16600052600e6020526020604060002054604051908152f35b600080fd5b3461031f57602036600319011261031f576001600160a01b03610345612560565b16600052600f602052602060ff604060002054166040519015158152f35b3461031f57600036600319011261031f57602060405161ffff7f0000000000000000000000000000000000000000000000000000000000000000168152f35b3461031f57602036600319011261031f576004356103ea337f00000000000000000000000000000000000000000000000000000000000000006001600160a01b031614612927565b80600052600760205260ff60406000205416610440578060005260076020526040600020600160ff198254161790557f903592d54e62b170c4d1d31666293afde7f261a8c803d5e4579b7b68750acfbc600080a2005b60405162461bcd60e51b8152602060048201526015602482015274436c6175736520616c72656164792065786973747360581b6044820152606490fd5b3461031f57600036600319011261031f576020601b54604051908152f35b3461031f57600036600319011261031f576020601d54604051908152f35b608036600319011261031f576104cd612560565b6064356001600160401b03811161031f576104ec903690600401612669565b919033600052600b60205261050860ff60406000205416612e86565b600a5461051a60ff8260081c16612b58565b60ff6003549161052c82841615612ebf565b16600681101561092857600203610c7c576001600160a01b0383166000908152600b602052604090205460ff1615610c40576001600160a01b0383163314610c065760243515610bc1576001600160a01b0383166000908152600e60205260409020547f000000000000000000000000000000000000000000000000000000000000000011610b7c5760081c60ff1660028110156109285715610b2e575b601b5480610acb575b50336000526018602052604060002054601c541115610a8e5760115491600160401b83101561093e576001830160115561060c83612fbe565b505061061783612fbe565b5080546001600160a01b0319908116331782556001820180549091166001600160a01b038416179055602435600282015560443560038201556001600160401b03851161093e5761066b6004820154612717565b601f8111610a47575b50846000601f82116001146109d3579160059160009384916109c8575b508760011b9084198960031b1c19161760048201555b01558260005260046020526040600020600160ff19825416179055336000526017602052426040600020556018602052604060002080546001810181116109b2576001019055600360ff19600a541617600a55604051906024358252604435602083015260018060a01b031690837ff07b74914eff8d8377a91d9539388a0d6f8eefb12c85824fe3a68b1de014706360403393a4601f549060ff8260a01c16938480956109a0575b61075f575b602084604051908152f35b9061076b913691612b98565b926107796011548410613216565b8061098e575b156109545761078d82612fbe565b50908154936001830154916040519560208701933060601b85528660348901524260548901526bffffffffffffffffffffffff19809260601b16607489015260601b166088870152607c865260a08601928684106001600160401b0385111761093e5760029084604052875190209401549060ff60035460081c1660028110156109285760008593849261085460209760e06101248e8e8e6306d9f637851b8b5260a48301523060c483015260e482015260443561010482015201526101848d019061261f565b6101448c01929092526101648b0152899003609f1901926001600160a01b03165af193841561091c576000946108cb575b505091817fd79bf993deb19779953dafbe6cc3d0da3027ac36d7cde02509500906bd613289602080958360005281805284604060002055604051908152a3828080610754565b6020809295503d8311610915575b6108e381876125e3565b8101031261031f57915191817fd79bf993deb19779953dafbe6cc3d0da3027ac36d7cde02509500906bd613289610885565b503d6108d9565b6040513d6000823e3d90fd5b634e487b7160e01b600052602160045260246000fd5b634e487b7160e01b600052604160045260246000fd5b60405162461bcd60e51b815260206004820152601260248201527143434950206e6f7420617661696c61626c6560701b6044820152606490fd5b506001600160a01b038116151561077f565b506001600160a01b038316151561074f565b634e487b7160e01b600052601160045260246000fd5b905085013588610691565b90506004820160005260206000209060005b601f1988168110610a2f57509160059160009388601f19811610610a16575b5050600187811b0160048201556106a7565b841960f88a60031b161c19908701351690558780610a04565b909160206001819285890135815501930191016109e5565b600482016000526020600020601f870160051c810160208810610a87575b601f830160051c82018110610a7b575050610674565b60008155600101610a65565b5080610a65565b60405162461bcd60e51b8152602060048201526015602482015274546f6f206d616e79206f70656e207265706f72747360581b6044820152606490fd5b336000526017602052610ae360406000205442612f0d565b10610aee57836105d3565b60405162461bcd60e51b81526020600482015260186024820152775265706f7274696e6720746f6f206672657175656e746c7960401b6044820152606490fd5b601a5434146105ca5760405162461bcd60e51b815260206004820152601b60248201527f496e636f727265637420646973707574652066656520284554482900000000006044820152606490fd5b60405162461bcd60e51b815260206004820152601f60248201527f4f6666656e64657220686173206e6f206d696e696d756d206465706f736974006044820152606490fd5b60405162461bcd60e51b815260206004820152601d60248201527f5265717565737465642070656e616c7479206d757374206265203e20300000006044820152606490fd5b60405162461bcd60e51b815260206004820152601260248201527121b0b73737ba1030b1b1bab9b29039b2b63360711b6044820152606490fd5b60405162461bcd60e51b81526020600482015260146024820152734f6666656e646572206e6f74206120706172747960601b6044820152606490fd5b60405162461bcd60e51b815260206004820152600e60248201526d4d7573742062652061637469766560901b6044820152606490fd5b600036600319011261031f5733600052600b602052610cd860ff60406000205416612e86565b610ce960ff600a5460081c16612b58565b610cf860ff6003541615612ebf565b7f00000000000000000000000000000000000000000000000000000000000000003410610d895733600052600e6020526040600020610d38348254612f00565b905533600052600f6020526040600020600160ff198254161790556040513481527fd15c9547ea5c06670c0010ce19bc32d54682a4b3801ece7f3ab0c3f17106b4bb60203392a2610d87612d40565b005b60405162461bcd60e51b81526020600482015260156024820152744465706f7369742062656c6f77206d696e696d756d60581b6044820152606490fd5b3461031f57602036600319011261031f57600435600281101561031f57610e17337f00000000000000000000000000000000000000000000000000000000000000006001600160a01b031614612927565b61ff006003549160081b169061ff00191617600355600080f35b3461031f57602036600319011261031f576001600160a01b03610e52612560565b1660005260106020526020604060002054604051908152f35b3461031f57600036600319011261031f57601f546040516001600160a01b039091168152602090f35b3461031f57600036600319011261031f576040517f00000000000000000000000000000000000000000000000000000000000000006001600160a01b03168152602090f35b3461031f57604036600319011261031f57610ef2612560565b7fbc4904a0d966a8e4425b1f254fbc8c0e7ad6a82d6df04834fc136017fbabe0da6020610f1d612551565b926001600160a01b0390610f54337f0000000000000000000000000000000000000000000000000000000000000000841614612e3f565b1692601f54901515908460ff60a01b8360a01b16916affffffffffffffffffffff60a81b161717601f55604051908152a2005b3461031f57600036600319011261031f576020601a54604051908152f35b3461031f57600036600319011261031f57600080600d545b808310610fcf57602082604051908152f35b9061100361100991610fe085612d0f565b60018060a01b0391549060031b1c16600052600e60205260406000205490612f00565b92612d00565b9190610fbd565b3461031f57600036600319011261031f57602061102b612fa9565b6040519015158152f35b3461031f57602036600319011261031f57600435611051612fdd565b506011548110156110895761107161106b61108592612fbe565b50613030565b604051918291602083526020830190612696565b0390f35b60405162461bcd60e51b815260206004820152601360248201527210d85cd948191bd95cc81b9bdd08195e1a5cdd606a1b6044820152606490fd5b3461031f57600036600319011261031f5760405180600d5480835260208093018091600d600052846000209060005b86828210611152578686611109828803836125e3565b604051928392818401908285525180915260408401929160005b82811061113257505050500390f35b83516001600160a01b031685528695509381019392810192600101611123565b83546001600160a01b0316855290930192600192830192016110f3565b3461031f57600036600319011261031f576020601c54604051908152f35b3461031f57602036600319011261031f576001600160a01b036111ae612560565b1660005260186020526020604060002054604051908152f35b3461031f57600036600319011261031f5760ff600a54166040516006821015610928576020918152f35b3461031f57600036600319011261031f5761129a61122e7f0000000000000000000000000000000000000000000000000000000000000000612751565b6112577f000000000000000000000000000000000000000000000000000000000000000061284a565b9060405190611265826125ad565b60008252604051938493600f60f81b855261128c60209360e08588015260e087019061261f565b90858203604087015261261f565b466060850152306080850152600060a085015283810360c085015281808451928381520193019160005b8281106112d357505050500390f35b8351855286955093810193928101926001016112c4565b3461031f57600036600319011261031f5761133860018060a01b03807f00000000000000000000000000000000000000000000000000000000000000001633149081156113ab575b506128e6565b60035460ff81166113755760ff1916600117600355337f62e78cea01bee320cd4e420270b5ea74000d11b0c9f74754ebdbfc544b05a258600080a2005b60405162461bcd60e51b815260206004820152600e60248201526d105b1c9958591e481c185d5cd95960921b6044820152606490fd5b90507f000000000000000000000000000000000000000000000000000000000000000016331482611332565b3461031f57600036600319011261031f576020601f5460ff8160a01c169081611406575b506040519015158152f35b6001600160a01b031615159050826113fb565b3461031f57604036600319011261031f57611438602435600435613137565b60405160209182820192808352815180945260408301938160408260051b8601019301916000955b82871061146d5785850386f35b909192938280611489600193603f198a82030186528851612696565b9601920196019592919092611460565b3461031f5760208060031936011261031f576004356001600160401b03811161031f576114fc6114f66114d3611505933690600401612669565b91906114e660ff600a5460081c16612b58565b6114ee612962565b923691612b98565b90612bcf565b90929192612c91565b6001600160a01b03166000818152600b8352604090205490919060ff16156115ba5781600052600c815260ff60406000205416611585577fcbac98f25151d6bd3e3b71eff9e8de75e7ed72af1121e6bb3fa9e967b6065dbc9082600052600c81526040600020600160ff19825416179055604051428152a2610d87612d40565b6064906040519062461bcd60e51b82526004820152600e60248201526d105b1c9958591e481cda59db995960921b6044820152fd5b6064906040519062461bcd60e51b82526004820152601c60248201527f496e76616c6964207369676e657220286e6f74206120706172747929000000006044820152fd5b3461031f57600036600319011261031f5761108560405161161e81612592565b600b81526a4e444154656d706c61746560a81b602082015260405191829160208352602083019061261f565b3461031f57600036600319011261031f57611663612f1a565b33600052601060205260406000205480156116d557336000526010602052600060408120556116a2600080808085335af161169c612f3b565b50612f6b565b6040519081527f84511ecc081974f18e7f3e0dcc19db078b55bbd3852ddd0dd85b3aebb7bf94c260203392a26001600255005b60405162461bcd60e51b81526020600482015260146024820152734e6f2066756e647320746f20776974686472617760601b6044820152606490fd5b3461031f57600036600319011261031f576020600954604051908152f35b3461031f57604036600319011261031f57611748612560565b60243590600382101561031f576001600160a01b039061178b337f0000000000000000000000000000000000000000000000000000000000000000841614612927565b60ff600a541660068110156109285760030361184657169081600052600b60205260ff60406000205416156118135760207f3cdc6ed770815602e888513518c6a3c86c2238544ea0e0086d6647e30b387afe91836000526006825260406000206117f48261265f565b60ff1981541660ff83161790556040519061180e8161265f565b8152a2005b60405162461bcd60e51b815260206004820152600b60248201526a4e6f74206120706172747960a81b6044820152606490fd5b60405162461bcd60e51b815260206004820152602360248201527f43616e2073657420726f6c65206f6e6c7920696e20446973707574656420737460448201526261746560e81b6064820152608490fd5b3461031f57600036600319011261031f5760206040517f00000000000000000000000000000000000000000000000000000000000000008152f35b3461031f57602036600319011261031f576001600160a01b036118f3612560565b166000526006602052602060ff60406000205416604051906119148161265f565b8152f35b3461031f57600036600319011261031f576020611933612962565b604051908152f35b3461031f57600036600319011261031f5760206040517f00000000000000000000000000000000000000000000000000000000000000008152f35b3461031f57600036600319011261031f576119c360018060a01b03807f00000000000000000000000000000000000000000000000000000000000000001633149081156113ab57506128e6565b60035460ff8116156119fe5760ff1916600355337f5db9ee0a495bf2e6ff9c91a7834c1ba4fdd244a5e8aa4e537bd38aeae4b073aa600080a2005b60405162461bcd60e51b815260206004820152600a602482015269139bdd081c185d5cd95960b21b6044820152606490fd5b3461031f57600036600319011261031f57611085604051611a5081612592565b60018152603160f81b602082015260405191829160208352602083019061261f565b3461031f57602036600319011261031f57611a8b612560565b6001600160a01b03908190611ac3337f0000000000000000000000000000000000000000000000000000000000000000841614612e3f565b611ad460ff600a5460081c16612b58565b611b01827f0000000000000000000000000000000000000000000000000000000000000000163314612927565b16908115611bc85781600052600b60205260ff60406000205416611b91576000828152600b60205260409020805460ff19166001179055600d54600160401b81101561093e57806001611b579201600d55612d0f565b819291549060031b9184831b921b19161790557f93693150721da86a06c668d3fe4950e404de26c6cea63b71c47de62d934946d3600080a2005b60405162461bcd60e51b815260206004820152600f60248201526e416c7265616479206120706172747960881b6044820152606490fd5b60405162461bcd60e51b815260206004820152600f60248201526e496e76616c6964206164647265737360881b6044820152606490fd5b3461031f5760208060031936011261031f5760043590611c1d612f1a565b611c25612fa9565b15611cf05733600052600e815281604060002054101580611ce7575b15611cac577f4482101800a5c2e900f4156e57e05e19ffd7b366cde579553d723fd3abb2180e9033600052600e81526040600020611c80848254612f0d565b905533600052601081526040600020611c9a848254612f00565b90556040519283523392a26001600255005b6064906040519062461bcd60e51b825260048201526014602482015273125b9cdd59999a58da595b9d0819195c1bdcda5d60621b6044820152fd5b50811515611c41565b6064906040519062461bcd60e51b82526004820152601360248201527210d85b9b9bdd081dda5d1a191c985dc81e595d606a1b6044820152fd5b3461031f57600036600319011261031f576040517f00000000000000000000000000000000000000000000000000000000000000006001600160a01b03168152602090f35b3461031f57600036600319011261031f576020601e54604051908152f35b3461031f57600036600319011261031f576040517f00000000000000000000000000000000000000000000000000000000000000006001600160a01b03168152602090f35b3461031f57600036600319011261031f57336000526020600b815260ff90611e008260406000205416612e86565b611e08612f1a565b81600a541690600682101561092857600282036120885760038092146120445733600052602191828252836040600020541661200f573360005282825260406000209060019360ff1992858482541617905542337f3fe1fa3c9e4faf74c087df7b37c466ec8df9e706865606c6578e68e88dbc0389600080a384600096600d928354985b898110611fc4575b505050859650611ea6575b6002859055005b600583600a541617600a55427f35d1ad419f6a663465063fa0dcf5ffe19ffd0be8ec17ddf45dfe56479b3708ac600080a260095480158015611f70575b5050846000905b611ef5575b50611e9f565b8154811015611f6b5780611f0b611f3792612d0f565b905490851b1c6001600160a01b03166000818152600e885260409020805480611f3d575b505050612d00565b85611eea565b600080809392611f639582809555600f8d52604083208c81541690555af161169c612f3b565b888080611f2f565b611eef565b600080939750809281928290611fbb575b7f00000000000000000000000000000000000000000000000000000000000000006001600160a01b031690f11561091c5784938680611ee3565b506108fc611f81565b611fcd81612d0f565b905490871b1c6001600160a01b031660009081528289526040902054831615611ffe57611ff990612d00565b611e8c565b505050508495506000878080611e94565b60405162461bcd60e51b815260048101839052600d60248201526c105b1c9958591e481d9bdd1959609a1b6044820152606490fd5b6064906040519062461bcd60e51b82526004820152601c60248201527f43616e6e6f742063616e63656c20647572696e672064697370757465000000006044820152fd5b6064906040519062461bcd60e51b82526004820152600a6024820152694e6f742061637469766560b01b6044820152fd5b3461031f57602036600319011261031f576004356000526008602052602060ff604060002054166040519015158152f35b3461031f57600036600319011261031f576040517f00000000000000000000000000000000000000000000000000000000000000006001600160a01b03168152602090f35b3461031f57602036600319011261031f57600435600052602080526020604060002054604051908152f35b3461031f57600036600319011261031f5760ff60035460081c166040516002821015610928576020918152f35b3461031f57600036600319011261031f576040517f00000000000000000000000000000000000000000000000000000000000000006001600160a01b03168152602090f35b3461031f57600036600319011261031f57602060ff601f5460a01c166040519015158152f35b3461031f57602036600319011261031f576001600160a01b03612213612560565b1660005260196020526020604060002054604051908152f35b3461031f57602036600319011261031f576001600160a01b0361224d612560565b1660005260176020526020604060002054604051908152f35b3461031f57602036600319011261031f576004356000526007602052602060ff604060002054166040519015158152f35b3461031f57600036600319011261031f5760206040517f00000000000000000000000000000000000000000000000000000000000000008152f35b3461031f57600036600319011261031f57602060ff600a5460081c166040519015158152f35b608036600319011261031f5761230c612551565b6064356044356001600160a01b038216820361031f57612356337f00000000000000000000000000000000000000000000000000000000000000006001600160a01b031614612e3f565b61236560115460043510613216565b612370600435612fbe565b5060068101805460ff81166125145761ffff191685151560081b61ff0016176001179055838061250b575b61243c575b60010154604080518515158152602081018490526001600160a01b03928316918101919091529083166060820152600435907f394bf112d6b50b674df28b8547ef21ed26eb97b7fc455da78249ea29386832a790608090a26040519215158352602083015260018060a01b031660408201527feaaf76fe030b6b146a1c7167f7c152a09df81578361549211a299b0ce70e4b55606060043592a2005b60018101546001600160a01b03166000908152600e602052604090208054908184111561250457815b82612473575b5050506123a0565b8261247d91612f0d565b9055306001600160a01b038516036124dc575b6001820154604080519283526001600160a01b038681166020850152909116917ff9b6c4aaadb493080ad7e6502053e6810bcaaf67cb6f869cc7151850508f36c49190a284808061246b565b60018060a01b038416600052601060205260406000206124fd828254612f00565b9055612490565b8391612465565b5081151561239b565b60405162461bcd60e51b815260206004820152601560248201527410d85cd948185b1c9958591e481c995cdbdb1d9959605a1b6044820152606490fd5b60243590811515820361031f57565b600435906001600160a01b038216820361031f57565b61010081019081106001600160401b0382111761093e57604052565b604081019081106001600160401b0382111761093e57604052565b602081019081106001600160401b0382111761093e57604052565b60c081019081106001600160401b0382111761093e57604052565b90601f801991011681019081106001600160401b0382111761093e57604052565b6001600160401b03811161093e57601f01601f191660200190565b919082519283825260005b84811061264b575050826000602080949584010152601f8019910116010190565b60208183018101518483018201520161262a565b6003111561092857565b9181601f8401121561031f578235916001600160401b03831161031f576020838186019501011161031f57565b9060018060a01b038083511682526020830151166020820152604082015160408201526060820151606082015260e0806126df608085015161010080608087015285019061261f565b9360a081015160a085015260c0810151151560c08501520151151591015290565b6001600160401b03811161093e5760051b60200190565b90600182811c92168015612747575b602083101461273157565b634e487b7160e01b600052602260045260246000fd5b91607f1691612726565b60ff811461278f5760ff811690601f821161277d576040519161277383612592565b8252602082015290565b604051632cd44ac360e21b8152600490fd5b506040516000818154916127a283612717565b80835260019380851690811561282957506001146127cb575b506127c8925003826125e3565b90565b60008080527f290decd9548b62a8d60345a988386fc84ba6bc95484008f6362f93160ef3e56394602093509091905b8183106128115750506127c89350820101386127bb565b855487840185015294850194869450918301916127fa565b90506127c894506020925060ff191682840152151560051b820101386127bb565b60ff811461286c5760ff811690601f821161277d576040519161277383612592565b50604051600081600191825461288181612717565b8084529084811690811561282957506001146128a457506127c8925003826125e3565b9280915060005260209081600020936000915b8183106128ce5750506127c89350820101386127bb565b855487840185015294850194869450918301916128b7565b156128ed57565b60405162461bcd60e51b81526020600482015260126024820152714f6e6c792061646d696e2f666163746f727960701b6044820152606490fd5b1561292e57565b60405162461bcd60e51b815260206004820152600c60248201526b4f6e6c7920466163746f727960a01b6044820152606490fd5b604260405160208101907fceb06ca88c69968b244d90e4c4abf56bc0bf2f95618bb8c5b0860edefc0f664b82523060408201527f0000000000000000000000000000000000000000000000000000000000000000606082015261ffff7f00000000000000000000000000000000000000000000000000000000000000001660808201527f000000000000000000000000000000000000000000000000000000000000000060a082015260a08152612a18816125c8565b519020612a23612a3e565b906040519161190160f01b8352600283015260228201522090565b307f00000000000000000000000000000000000000000000000000000000000000006001600160a01b03161480612b2f575b15612a99577f000000000000000000000000000000000000000000000000000000000000000090565b60405160208101907f8b73c3c69bb8fe3d512ecc4cf759cc79239f7b179b0ffacaa9a75d522b39400f82527f000000000000000000000000000000000000000000000000000000000000000060408201527f000000000000000000000000000000000000000000000000000000000000000060608201524660808201523060a082015260a08152612b29816125c8565b51902090565b507f00000000000000000000000000000000000000000000000000000000000000004614612a70565b15612b5f57565b60405162461bcd60e51b8152602060048201526011602482015270436f6e747261637420696e61637469766560781b6044820152606490fd5b929192612ba482612604565b91612bb260405193846125e3565b82948184528183011161031f578281602093846000960137010152565b8151919060418303612c0057612bf992506020820151906060604084015193015160001a90612c0b565b9192909190565b505060009160029190565b91906fa2a8918ca85bafe22016d0b997e4df60600160ff1b038411612c8557926020929160ff608095604051948552168484015260408301526060820152600092839182805260015afa15612c795780516001600160a01b03811615612c7057918190565b50809160019190565b604051903d90823e3d90fd5b50505060009160039190565b60048110156109285780612ca3575050565b60018103612cbd5760405163f645eedf60e01b8152600490fd5b60028103612cde5760405163fce698f760e01b815260048101839052602490fd5b600314612ce85750565b602490604051906335e2f38360e21b82526004820152fd5b60001981146109b25760010190565b600d54811015612d2a57600d60005260206000200190600090565b634e487b7160e01b600052603260045260246000fd5b6001806000600d54905b818110612dc65750508180612dbf575b15612d9a575050600260ff19600a541617600a557f73edfb7736e2a79d626edb978d46bcd467644e8a44cbe706358022b6a6d361ec6020604051428152a1565b8115612db7575b50612da857565b600160ff19600a541617600a55565b905038612da1565b5080612d5a565b612dcf81612d0f565b60018060a01b03809254600392831b1c166000526020600c815260ff926040928484600020541615612e36575b90600f9291612e0a87612d0f565b9054911b1c1660005252600020541615612e2d575b612e2890612d00565b612d4a565b60009250612e1f565b60009850612dfc565b15612e4657565b60405162461bcd60e51b81526020600482015260186024820152774f6e6c79206172626974726174696f6e207365727669636560401b6044820152606490fd5b15612e8d57565b60405162461bcd60e51b815260206004820152600a6024820152694f6e6c7920706172747960b01b6044820152606490fd5b15612ec657565b60405162461bcd60e51b815260206004820152601260248201527110dbdb9d1c9858dd081a5cc81c185d5cd95960721b6044820152606490fd5b919082018092116109b257565b919082039182116109b257565b6002805414612f295760028055565b604051633ee5aeb560e01b8152600490fd5b3d15612f66573d90612f4c82612604565b91612f5a60405193846125e3565b82523d6000602084013e565b606090565b15612f7257565b60405162461bcd60e51b815260206004820152600f60248201526e15da5d1a191c985dc819985a5b1959608a1b6044820152606490fd5b60ff600a541660068110156109285760051490565b601154811015612d2a5760116000526007602060002091020190600090565b60405190612fea82612576565b8160e0600091828152826020820152826040820152826060820152606060808201528260a08201528260c08201520152565b8051821015612d2a5760209160051b010190565b9060405161303d81612576565b809260018060a01b0380825416835260019081830154169060209182850152600283015460408501526003830154606085015260048301916040519260009281549161308883612717565b8087529282811690811561311657506001146130dd575b5050505060e092826130b760ff9460069403826125e3565b6080860152600581015460a08601520154818116151560c085015260081c161515910152565b6000908152838120939450925b8284106131035750505082010182826130b760ff61309f565b80548685018601529284019281016130ea565b60ff191685880152505050151560051b830101905082826130b760ff61309f565b919060115490818410156131ff5761316391613154859283612f00565b908082116131f7575b50612f0d565b61316c81612700565b61317960405191826125e3565b818152601f1961318883612700565b0160005b8181106131e0575050809360005b8381106131a75750505050565b806131c061106b6131bb6131db9486612f00565b612fbe565b6131ca828661301c565b526131d5818561301c565b50612d00565b61319a565b6020906131eb612fdd565b8282860101520161318c565b90503861315d565b5050905060405161320f816125ad565b6000815290565b1561321d57565b60405162461bcd60e51b815260206004820152600f60248201526e125b9d985b1a590818d85cd9481251608a1b6044820152606490fdfea2646970667358221220c3c1744af3b423db2652bff0428f025682a8c7e68efe07d722f50341e08f075c64736f6c63430008140033a264697066735822122064a0097e821a08303dd125b4d494d30717d35c2f982c54450cdc7413803d202164736f6c63430008140033",
  "linkReferences": {},
  "deployedLinkReferences": {}
}