{
  "_format": "hh-sol-artifact-1",
  "contractName": "Arbitrator",
  "sourceName": "contracts/Arbitration/Arbitrator.sol",
  "abi": [
    {
      "inputs": [
        {
          "internalType": "address",
          "name": "_arbitrationService",
          "type": "address"
        }
      ],
      "stateMutability": "nonpayable",
      "type": "constructor"
    },
    {
      "anonymous": false,
      "inputs": [
        {
          "indexed": true,
          "internalType": "bytes32",
          "name": "caseId",
          "type": "bytes32"
        },
        {
          "indexed": false,
          "internalType": "string",
          "name": "decisionJson",
          "type": "string"
        }
      ],
      "name": "DecisionReceived",
      "type": "event"
    },
    {
      "inputs": [],
      "name": "arbitrationService",
      "outputs": [
        {
          "internalType": "address",
          "name": "",
          "type": "address"
        }
      ],
      "stateMutability": "view",
      "type": "function"
    },
    {
      "inputs": [],
      "name": "owner",
      "outputs": [
        {
          "internalType": "address",
          "name": "",
          "type": "address"
        }
      ],
      "stateMutability": "view",
      "type": "function"
    },
    {
      "inputs": [
        {
          "internalType": "address",
          "name": "_arbitrationService",
          "type": "address"
        }
      ],
      "name": "setArbitrationService",
      "outputs": [],
      "stateMutability": "nonpayable",
      "type": "function"
    },
    {
      "inputs": [
        {
          "internalType": "bytes32",
          "name": "caseId",
          "type": "bytes32"
        },
        {
          "internalType": "string",
          "name": "decisionJson",
          "type": "string"
        }
      ],
      "name": "submitDecision",
      "outputs": [],
      "stateMutability": "nonpayable",
      "type": "function"
    }
  ],
  "bytecode": "0x60803461007a57601f6102a938819003918201601f19168301916001600160401b0383118484101761007f5780849260209460405283398101031261007a57516001600160a01b0381169081900361007a5760018060a01b031933816000541617600055600154161760015560405161021390816100968239f35b600080fd5b634e487b7160e01b600052604160045260246000fdfe60806040818152600436101561001457600080fd5b600091823560e01c9081631b4cf8c61461017f575080631e79c449146100cc57806375ac029a1461007857638da5cb5b1461004e57600080fd5b34610074578160031936011261007457905490516001600160a01b039091168152602090f35b5080fd5b82346100c95760203660031901126100c9576004356001600160a01b03818116918290036100c5576100ae9083541633146101a4565b600180546001600160a01b03191691909117905580f35b8280fd5b80fd5b503461007457806003193601126100745767ffffffffffffffff9060243582811161017b573660238201121561017b57806004013592831161017b57366024848301011161017b577fdb7463b39d9b0c19d4510e128fd06b4d22f079045fdbefb998b9747dc7af4e429161014a60018060a01b0386541633146101a4565b836024825193602085528260208601520182840137848185840101528160043594601f80199101168101030190a280f35b8380fd5b8390346100745781600319360112610074576001546001600160a01b03168152602090f35b156101ab57565b60405162461bcd60e51b815260206004820152600a60248201526927b7363c9037bbb732b960b11b6044820152606490fdfea26469706673582212200a87adcf05c619f875a60b5a1afe08948142564380537c1efb6c7fabcb428c3464736f6c63430008140033",
  "linkReferences": {},
  "deployedLinkReferences": {}
}