{
  "_format": "hh-sol-artifact-1",
  "contractName": "ArbitrationService",
  "sourceName": "contracts/Arbitration/ArbitrationService.sol",
  "abi": [
    {
      "inputs": [],
      "stateMutability": "nonpayable",
      "type": "constructor"
    },
    {
      "anonymous": false,
      "inputs": [
        {
          "indexed": false,
          "internalType": "address",
          "name": "caller",
          "type": "address"
        },
        {
          "indexed": false,
          "internalType": "bytes32",
          "name": "messageId",
          "type": "bytes32"
        },
        {
          "indexed": false,
          "internalType": "address",
          "name": "targetContract",
          "type": "address"
        },
        {
          "indexed": false,
          "internalType": "uint256",
          "name": "caseId",
          "type": "uint256"
        },
        {
          "indexed": false,
          "internalType": "address",
          "name": "beneficiary",
          "type": "address"
        }
      ],
      "name": "CCIPDecisionCall",
      "type": "event"
    },
    {
      "anonymous": false,
      "inputs": [
        {
          "indexed": true,
          "internalType": "bytes32",
          "name": "messageId",
          "type": "bytes32"
        },
        {
          "indexed": true,
          "internalType": "address",
          "name": "targetContract",
          "type": "address"
        },
        {
          "indexed": true,
          "internalType": "uint256",
          "name": "caseId",
          "type": "uint256"
        },
        {
          "indexed": false,
          "internalType": "bool",
          "name": "approved",
          "type": "bool"
        }
      ],
      "name": "CCIPDecisionReceived",
      "type": "event"
    },
    {
      "anonymous": false,
      "inputs": [
        {
          "indexed": true,
          "internalType": "address",
          "name": "receiver",
          "type": "address"
        },
        {
          "indexed": false,
          "internalType": "bool",
          "name": "authorized",
          "type": "bool"
        }
      ],
      "name": "CCIPReceiverAuthorized",
      "type": "event"
    },
    {
      "anonymous": false,
      "inputs": [
        {
          "indexed": false,
          "internalType": "address",
          "name": "caller",
          "type": "address"
        },
        {
          "indexed": false,
          "internalType": "bytes32",
          "name": "messageId",
          "type": "bytes32"
        }
      ],
      "name": "RawDecisionEntered",
      "type": "event"
    },
    {
      "anonymous": false,
      "inputs": [
        {
          "indexed": true,
          "internalType": "address",
          "name": "target",
          "type": "address"
        },
        {
          "indexed": true,
          "internalType": "uint256",
          "name": "caseId",
          "type": "uint256"
        },
        {
          "indexed": false,
          "internalType": "bool",
          "name": "approve",
          "type": "bool"
        },
        {
          "indexed": false,
          "internalType": "uint256",
          "name": "appliedAmount",
          "type": "uint256"
        },
        {
          "indexed": true,
          "internalType": "address",
          "name": "beneficiary",
          "type": "address"
        },
        {
          "indexed": false,
          "internalType": "address",
          "name": "caller",
          "type": "address"
        }
      ],
      "name": "ResolutionApplied",
      "type": "event"
    },
    {
      "inputs": [
        {
          "internalType": "address",
          "name": "targetContract",
          "type": "address"
        },
        {
          "internalType": "uint256",
          "name": "caseId",
          "type": "uint256"
        },
        {
          "internalType": "bool",
          "name": "approve",
          "type": "bool"
        },
        {
          "internalType": "uint256",
          "name": "appliedAmount",
          "type": "uint256"
        },
        {
          "internalType": "address",
          "name": "beneficiary",
          "type": "address"
        }
      ],
      "name": "applyResolutionToTarget",
      "outputs": [],
      "stateMutability": "payable",
      "type": "function"
    },
    {
      "inputs": [
        {
          "internalType": "address",
          "name": "_receiver",
          "type": "address"
        },
        {
          "internalType": "bool",
          "name": "_authorized",
          "type": "bool"
        }
      ],
      "name": "authorizeCCIPReceiver",
      "outputs": [],
      "stateMutability": "nonpayable",
      "type": "function"
    },
    {
      "inputs": [
        {
          "internalType": "address",
          "name": "",
          "type": "address"
        }
      ],
      "name": "authorizedCCIPReceivers",
      "outputs": [
        {
          "internalType": "bool",
          "name": "",
          "type": "bool"
        }
      ],
      "stateMutability": "view",
      "type": "function"
    },
    {
      "inputs": [],
      "name": "factory",
      "outputs": [
        {
          "internalType": "address",
          "name": "",
          "type": "address"
        }
      ],
      "stateMutability": "view",
      "type": "function"
    },
    {
      "inputs": [
        {
          "internalType": "address",
          "name": "targetContract",
          "type": "address"
        }
      ],
      "name": "finalizeByLandlord",
      "outputs": [],
      "stateMutability": "payable",
      "type": "function"
    },
    {
      "inputs": [
        {
          "internalType": "address",
          "name": "targetContract",
          "type": "address"
        }
      ],
      "name": "finalizeTargetCancellation",
      "outputs": [],
      "stateMutability": "payable",
      "type": "function"
    },
    {
      "inputs": [],
      "name": "owner",
      "outputs": [
        {
          "internalType": "address",
          "name": "",
          "type": "address"
        }
      ],
      "stateMutability": "view",
      "type": "function"
    },
    {
      "inputs": [
        {
          "internalType": "bytes32",
          "name": "",
          "type": "bytes32"
        }
      ],
      "name": "processedCCIPDecisions",
      "outputs": [
        {
          "internalType": "bool",
          "name": "",
          "type": "bool"
        }
      ],
      "stateMutability": "view",
      "type": "function"
    },
    {
      "inputs": [
        {
          "internalType": "bytes32",
          "name": "",
          "type": "bytes32"
        }
      ],
      "name": "processedRequests",
      "outputs": [
        {
          "internalType": "bool",
          "name": "",
          "type": "bool"
        }
      ],
      "stateMutability": "view",
      "type": "function"
    },
    {
      "inputs": [
        {
          "internalType": "bytes32",
          "name": "messageId",
          "type": "bytes32"
        },
        {
          "internalType": "address",
          "name": "targetContract",
          "type": "address"
        },
        {
          "internalType": "uint256",
          "name": "caseId",
          "type": "uint256"
        },
        {
          "components": [
            {
              "internalType": "bytes32",
              "name": "disputeId",
              "type": "bytes32"
            },
            {
              "internalType": "bool",
              "name": "approved",
              "type": "bool"
            },
            {
              "internalType": "uint256",
              "name": "appliedAmount",
              "type": "uint256"
            },
            {
              "internalType": "address",
              "name": "beneficiary",
              "type": "address"
            },
            {
              "internalType": "string",
              "name": "rationale",
              "type": "string"
            },
            {
              "internalType": "bytes32",
              "name": "oracleId",
              "type": "bytes32"
            },
            {
              "internalType": "uint256",
              "name": "timestamp",
              "type": "uint256"
            },
            {
              "internalType": "address",
              "name": "targetContract",
              "type": "address"
            },
            {
              "internalType": "uint256",
              "name": "caseId",
              "type": "uint256"
            }
          ],
          "internalType": "struct CCIPArbitrationTypes.ArbitrationDecision",
          "name": "decision",
          "type": "tuple"
        }
      ],
      "name": "receiveCCIPDecision",
      "outputs": [],
      "stateMutability": "nonpayable",
      "type": "function"
    },
    {
      "inputs": [
        {
          "internalType": "bytes32",
          "name": "messageId",
          "type": "bytes32"
        },
        {
          "internalType": "address",
          "name": "targetContract",
          "type": "address"
        },
        {
          "internalType": "uint256",
          "name": "caseId",
          "type": "uint256"
        },
        {
          "internalType": "bytes",
          "name": "decisionEncoded",
          "type": "bytes"
        }
      ],
      "name": "receiveCCIPDecisionRaw",
      "outputs": [],
      "stateMutability": "nonpayable",
      "type": "function"
    },
    {
      "inputs": [
        {
          "internalType": "address",
          "name": "_factory",
          "type": "address"
        }
      ],
      "name": "setFactory",
      "outputs": [],
      "stateMutability": "nonpayable",
      "type": "function"
    },
    {
      "inputs": [
        {
          "internalType": "address",
          "name": "newOwner",
          "type": "address"
        }
      ],
      "name": "transferOwnership",
      "outputs": [],
      "stateMutability": "nonpayable",
      "type": "function"
    }
  ],
  "bytecode": "0x6080806040523461002857600080546001600160a01b0319163317905561132e908161002e8239f35b600080fdfe6080604052600436101561001257600080fd5b60003560e01c80631fae7f8c146100e7578063552eb1d1146100e25780635bb47808146100dd5780638da5cb5b146100d85780639ff9bd52146100d3578063ae4a96c1146100ce578063c45a0155146100c9578063c68ea4f4146100c4578063ce0fa5a9146100bf578063d1f2af98146100ba578063e52b0923146100b5578063ee877945146100b05763f2fde38b146100ab57600080fd5b6109e0565b6109af565b6108d0565b61082b565b6107fa565b610695565b61066c565b610603565b6105c1565b610598565b61054b565b610509565b6102a6565b6001600160a01b038116036100fd57565b600080fd5b359061010d826100ec565b565b634e487b7160e01b600052604160045260246000fd5b6040810190811067ffffffffffffffff82111761014157604052565b61010f565b90601f8019910116810190811067ffffffffffffffff82111761014157604052565b60405190610120820182811067ffffffffffffffff82111761014157604052565b6024359081151582036100fd57565b359081151582036100fd57565b67ffffffffffffffff811161014157601f01601f191660200190565b81601f820112156100fd578035906101d8826101a5565b926101e66040519485610146565b828452602083830101116100fd57816000926020809301838601378301015290565b919091610120818403126100fd5761021e610168565b928135845261022f60208301610198565b60208501526040820135604085015261024a60608301610102565b606085015260808201359067ffffffffffffffff82116100fd5761026f9183016101c1565b608084015260a081013560a084015260c081013560c084015261029460e08201610102565b60e08401526101008091013590830152565b346100fd5760803660031901126100fd576004356024356102c6816100ec565b604435906064359267ffffffffffffffff84116100fd5761044561048360806102f6610507973690600401610208565b85876104226104b86103bc896103a56103a061039c61039560608b01947fcb46a14b1230b6fdcb4a5957050f48d64a071ff3de0db783de73fce3c27634c68a8c6103826103498a5160018060a01b031690565b60408051338152602081018890526001600160a01b039485169181019190915260608101949094529091166080830152819060a0820190565b0390a16000526004602052604060002090565b5460ff1690565b1590565b610ea7565b6103c96103bc8c6000526004602052604060002090565b805460ff19166001179055565b8a61042b60208901876103dc8251151590565b60405190151581526001600160a01b038b81169990958a9290917fbe2f72bf6beaa8167af7ff3f8dc251a278491dc29ad05e91f9f9ed50b77784b0919081906020820190565b0390a451151590565b998a9261047560408b01519d8e925160018060a01b031690565b9e8f946104538a1515610ad7565b85169a6104618c1515610b14565b60405195869460208601988d33948b610b56565b03601f198101835282610146565b5190206104a86104a361039c610395846000526002602052604060002090565b610ba7565b6000526002602052604060002090565b6040805187151581526020810189905233918101919091527fcb85f7b4c98b0d2ff4792edc8b046225b21dc0bf83294b1a6640863c3a559f8f90606090a4015194610501610bf3565b946110ad565b005b60a03660031901126100fd57600435610521816100ec565b60443580151581036100fd57610507916084359161053e836100ec565b6064359160243590610c47565b346100fd5760203660031901126100fd57600435610568816100ec565b6000546001600160a01b0391906105829083163314610a5a565b1660018060a01b03196001541617600155600080f35b346100fd5760003660031901126100fd576000546040516001600160a01b039091168152602090f35b346100fd5760203660031901126100fd576004356105de816100ec565b60018060a01b03166000526003602052602060ff604060002054166040519015158152f35b346100fd5760803660031901126100fd57602435610620816100ec565b6064359067ffffffffffffffff908183116100fd57366023840112156100fd5782600401359182116100fd5736602483850101116100fd57602461050793019060443590600435610f1c565b346100fd5760003660031901126100fd576001546040516001600160a01b039091168152602090f35b6020806003193601126100fd5761079b61071b91600435906106b6826100ec565b6001600160a01b03916106cc81841615156111aa565b6040519161076981840194630da67c6360e11b8652600485526106ee85610125565b6000978880809881985190885afa610704610c17565b8791806107ef575b6107d2575b5082163014611236565b848060405185810190636e0ccbf560e11b82526004815261073b81610125565b5190875afa610748610c17565b8691806107c7575b61079e575b5016610762811515611281565b33146112bc565b6040516333d939e360e01b9181019182526004815261078781610125565b519134905af1610795610c17565b506111e3565b80f35b6107c191508085806107b593518301019101611221565b6001600160a01b031690565b38610755565b508481511015610750565b6107e991508086806107b593518301019101611221565b38610711565b50858151101561070c565b346100fd5760203660031901126100fd576004356000526002602052602060ff604060002054166040519015158152f35b60203660031901126100fd57610507600080600435610849816100ec565b815461085d906001600160a01b03166107b5565b331480156108a3575b61086f90610a93565b6108836001600160a01b03821615156111aa565b6040516333d939e360e01b60208201908152600482529061078781610125565b5060015461086f906001600160a01b031680151590816108c6575b509050610866565b90503314386108be565b346100fd5760403660031901126100fd576004356108ed816100ec565b6108f5610189565b60005490916001600160a01b03916109109083163314610a5a565b16908115610977576109727fe96173c1c378aadfe9cab231bbe18a988a89ca89975d1b5a6d776738669fe52f918360005260036020526109608160406000209060ff801983541691151516179055565b60405190151581529081906020820190565b0390a2005b60405162461bcd60e51b815260206004820152601060248201526f24b73b30b634b2103932b1b2b4bb32b960811b6044820152606490fd5b346100fd5760203660031901126100fd576004356000526004602052602060ff604060002054166040519015158152f35b346100fd5760203660031901126100fd576004356109fd816100ec565b600054906001600160a01b0390610a173383851614610a5a565b16908115610a2f576001600160a01b03191617600055005b606460405162461bcd60e51b81526020600482015260046024820152637a65726f60e01b6044820152fd5b15610a6157565b60405162461bcd60e51b815260206004820152600a60248201526927b7363c9037bbb732b960b11b6044820152606490fd5b15610a9a57565b60405162461bcd60e51b81526020600482015260156024820152744f6e6c79206f776e6572206f7220666163746f727960581b6044820152606490fd5b15610ade57565b60405162461bcd60e51b815260206004820152600e60248201526d125b9d985b1a59081d185c99d95d60921b6044820152606490fd5b15610b1b57565b60405162461bcd60e51b8152602060048201526013602482015272496e76616c69642062656e656669636961727960681b6044820152606490fd5b959293609d97959192946bffffffffffffffffffffffff199586809560601b1689526014890152151560f81b6034880152603587015260601b16605585015260601b166069830152607d8201520190565b15610bae57565b60405162461bcd60e51b815260206004820152601960248201527f5265717565737420616c72656164792070726f636573736564000000000000006044820152606490fd5b604051906020820182811067ffffffffffffffff8211176101415760405260008252565b3d15610c42573d90610c28826101a5565b91610c366040519384610146565b82523d6000602084013e565b606090565b600054909491939290610c62906001600160a01b03166107b5565b33148015610e7a575b610c7490610a93565b6001600160a01b038581169290610c8c841515610ad7565b8116610c99811515610b14565b8560405194610cd06103bc8a88610cbc8b60208301938a34928d8b339489610b56565b0398610483601f199a8b8101835282610146565b6040805186151581526020810189905233918101919091527fcb85f7b4c98b0d2ff4792edc8b046225b21dc0bf83294b1a6640863c3a559f8f90606090a46040516302fae73f60e01b60208201908152602482018790528315156044830152606482018690526001600160a01b038316608483015260a48581018352600092839291610d5c9082610146565b5190348a5af1610d6a610c17565b90610e715780519081610e685750506040516362708a9160e01b602082019081526024820196909652911515604483015260648201939093526001600160a01b03909216608483015260c060a4830152600060e4830181905260e060c4840152610104830181905293849390929091610df0908261012481015b03908101835282610146565b519134905af190610dff610c17565b91610e6d575080519081610e685760405162461bcd60e51b815260206004820152602d60248201527f4e6f20636f6d70617469626c65207265736f6c7574696f6e20656e747279706f60448201526c1a5b9d081bdb881d185c99d95d609a1b6064820152608490fd5b602001fd5b9050565b50505050505050565b50600154610c74906001600160a01b03168015159081610e9d575b509050610c6b565b9050331438610e95565b15610eae57565b60405162461bcd60e51b815260206004820152601a60248201527f4465636973696f6e20616c72656164792070726f6365737365640000000000006044820152606490fd5b906020828203126100fd57813567ffffffffffffffff81116100fd57610f199201610208565b90565b604080513381526020810183905261010d96949593949293610f8593909290917f30bad5666e755f65f587ddb612c701bbbddfb3f1796397cfc406acb17e68d72f9190a1610f7d6103a061039c610395876000526004602052604060002090565b810190610ef3565b610f9c6103bc836000526004602052604060002090565b610422608060208301928587610ffe610fb58751151590565b60405190151581526001600160a01b0397848916979091849189918c917fbe2f72bf6beaa8167af7ff3f8dc251a278491dc29ad05e91f9f9ed50b77784b0919081906020820190565b946104b86103bc876040870151996104838b61047561044560608c015160018060a01b031690565b919082519283825260005b848110611052575050826000602080949584010152601f8019910116010190565b602081830181015184830182015201611031565b94919261109f93610f19979592875215156020870152604086015260018060a01b0316606085015260c0608085015260c0840190611026565b9160a0818403910152611026565b6040516302fae73f60e01b60208201908152602482018490528415156044830152606482018690526001600160a01b0387166084808401919091528252979596919592949193919291601f199161110560a482610146565b6000809a81925190828b5af19461111a610c17565b9561119e57899889965161115c5793610de49161114f95604051978895602087019b6362708a9160e01b8d5260248801611066565b51925af190610dff610c17565b93610de49161118395604051978895602087019b6362708a9160e01b8d5260248801611066565b51925af190611190610c17565b91610e6d5750602081519101fd5b50505050505050505050565b156111b157565b60405162461bcd60e51b815260206004820152600a602482015269189859081d185c99d95d60b21b6044820152606490fd5b156111ea57565b60405162461bcd60e51b815260206004820152600f60248201526e199a5b985b1a5e994819985a5b1959608a1b6044820152606490fd5b908160209103126100fd5751610f19816100ec565b1561123d57565b606460405162461bcd60e51b815260206004820152602060248201527f73657276696365206e6f7420636f6e66696775726564206f6e207461726765746044820152fd5b1561128857565b60405162461bcd60e51b815260206004820152600c60248201526b189859081b185b991b1bdc9960a21b6044820152606490fd5b156112c357565b60405162461bcd60e51b815260206004820152600d60248201526c13db9b1e481b185b991b1bdc99609a1b6044820152606490fdfea2646970667358221220c72056c58148e15e453c74f4c5974d9d8ebe868ad8eb37a9a4d2019518a02b7864736f6c63430008140033",
  "linkReferences": {},
  "deployedLinkReferences": {}
}