{
  "_format": "hh-sol-artifact-1",
  "contractName": "ArbitrationContractV2",
  "sourceName": "contracts/Arbitration/ArbitrationContractV2.sol",
  "abi": [
    {
      "inputs": [
        {
          "internalType": "address",
          "name": "_service",
          "type": "address"
        },
        {
          "internalType": "address",
          "name": "routerAddress",
          "type": "address"
        }
      ],
      "stateMutability": "nonpayable",
      "type": "constructor"
    },
    {
      "inputs": [
        {
          "internalType": "address",
          "name": "owner",
          "type": "address"
        }
      ],
      "name": "OwnableInvalidOwner",
      "type": "error"
    },
    {
      "inputs": [
        {
          "internalType": "address",
          "name": "account",
          "type": "address"
        }
      ],
      "name": "OwnableUnauthorizedAccount",
      "type": "error"
    },
    {
      "anonymous": false,
      "inputs": [
        {
          "indexed": false,
          "internalType": "bytes32",
          "name": "requestId",
          "type": "bytes32"
        },
        {
          "indexed": false,
          "internalType": "bool",
          "name": "approve",
          "type": "bool"
        },
        {
          "indexed": false,
          "internalType": "uint256",
          "name": "appliedAmount",
          "type": "uint256"
        },
        {
          "indexed": false,
          "internalType": "address",
          "name": "beneficiary",
          "type": "address"
        }
      ],
      "name": "ArbitrationFulfilled",
      "type": "event"
    },
    {
      "anonymous": false,
      "inputs": [
        {
          "indexed": true,
          "internalType": "address",
          "name": "requester",
          "type": "address"
        },
        {
          "indexed": true,
          "internalType": "address",
          "name": "target",
          "type": "address"
        },
        {
          "indexed": true,
          "internalType": "uint256",
          "name": "caseId",
          "type": "uint256"
        },
        {
          "indexed": false,
          "internalType": "bytes32",
          "name": "requestId",
          "type": "bytes32"
        }
      ],
      "name": "ArbitrationRequested",
      "type": "event"
    },
    {
      "anonymous": false,
      "inputs": [
        {
          "indexed": true,
          "internalType": "address",
          "name": "previousOwner",
          "type": "address"
        },
        {
          "indexed": true,
          "internalType": "address",
          "name": "newOwner",
          "type": "address"
        }
      ],
      "name": "OwnershipTransferred",
      "type": "event"
    },
    {
      "anonymous": false,
      "inputs": [
        {
          "indexed": true,
          "internalType": "bytes32",
          "name": "requestId",
          "type": "bytes32"
        },
        {
          "indexed": true,
          "internalType": "address",
          "name": "target",
          "type": "address"
        },
        {
          "indexed": true,
          "internalType": "uint256",
          "name": "caseId",
          "type": "uint256"
        }
      ],
      "name": "RequestProcessed",
      "type": "event"
    },
    {
      "inputs": [
        {
          "internalType": "bytes32",
          "name": "messageId",
          "type": "bytes32"
        },
        {
          "internalType": "uint64",
          "name": "sourceChainSelector",
          "type": "uint64"
        },
        {
          "internalType": "bytes",
          "name": "senderEncoded",
          "type": "bytes"
        },
        {
          "internalType": "bytes",
          "name": "payload",
          "type": "bytes"
        }
      ],
      "name": "ccipReceiveRaw",
      "outputs": [],
      "stateMutability": "nonpayable",
      "type": "function"
    },
    {
      "inputs": [],
      "name": "destinationChainSelector",
      "outputs": [
        {
          "internalType": "uint64",
          "name": "",
          "type": "uint64"
        }
      ],
      "stateMutability": "view",
      "type": "function"
    },
    {
      "inputs": [],
      "name": "gasLimit",
      "outputs": [
        {
          "internalType": "uint32",
          "name": "",
          "type": "uint32"
        }
      ],
      "stateMutability": "view",
      "type": "function"
    },
    {
      "inputs": [
        {
          "internalType": "bytes32",
          "name": "requestId",
          "type": "bytes32"
        }
      ],
      "name": "isRequestProcessed",
      "outputs": [
        {
          "internalType": "bool",
          "name": "",
          "type": "bool"
        }
      ],
      "stateMutability": "view",
      "type": "function"
    },
    {
      "inputs": [
        {
          "internalType": "bytes32",
          "name": "requestId",
          "type": "bytes32"
        }
      ],
      "name": "markRequestProcessed",
      "outputs": [],
      "stateMutability": "nonpayable",
      "type": "function"
    },
    {
      "inputs": [],
      "name": "owner",
      "outputs": [
        {
          "internalType": "address",
          "name": "",
          "type": "address"
        }
      ],
      "stateMutability": "view",
      "type": "function"
    },
    {
      "inputs": [
        {
          "internalType": "bytes32",
          "name": "",
          "type": "bytes32"
        }
      ],
      "name": "pendingRequests",
      "outputs": [
        {
          "internalType": "address",
          "name": "target",
          "type": "address"
        },
        {
          "internalType": "uint256",
          "name": "caseId",
          "type": "uint256"
        },
        {
          "internalType": "address",
          "name": "requester",
          "type": "address"
        },
        {
          "internalType": "uint256",
          "name": "timestamp",
          "type": "uint256"
        },
        {
          "internalType": "bytes32",
          "name": "disputeId",
          "type": "bytes32"
        }
      ],
      "stateMutability": "view",
      "type": "function"
    },
    {
      "inputs": [
        {
          "internalType": "bytes32",
          "name": "",
          "type": "bytes32"
        }
      ],
      "name": "processedRequests",
      "outputs": [
        {
          "internalType": "bool",
          "name": "",
          "type": "bool"
        }
      ],
      "stateMutability": "view",
      "type": "function"
    },
    {
      "inputs": [],
      "name": "renounceOwnership",
      "outputs": [],
      "stateMutability": "nonpayable",
      "type": "function"
    },
    {
      "inputs": [
        {
          "internalType": "address",
          "name": "target",
          "type": "address"
        },
        {
          "internalType": "uint256",
          "name": "caseId",
          "type": "uint256"
        },
        {
          "internalType": "bytes",
          "name": "metadata",
          "type": "bytes"
        }
      ],
      "name": "requestArbitration",
      "outputs": [
        {
          "internalType": "bytes32",
          "name": "",
          "type": "bytes32"
        }
      ],
      "stateMutability": "payable",
      "type": "function"
    },
    {
      "inputs": [],
      "name": "router",
      "outputs": [
        {
          "internalType": "contract IRouterClientLocal",
          "name": "",
          "type": "address"
        }
      ],
      "stateMutability": "view",
      "type": "function"
    },
    {
      "inputs": [],
      "name": "service",
      "outputs": [
        {
          "internalType": "address",
          "name": "",
          "type": "address"
        }
      ],
      "stateMutability": "view",
      "type": "function"
    },
    {
      "inputs": [
        {
          "internalType": "uint64",
          "name": "sel",
          "type": "uint64"
        }
      ],
      "name": "setDestinationChainSelector",
      "outputs": [],
      "stateMutability": "nonpayable",
      "type": "function"
    },
    {
      "inputs": [
        {
          "internalType": "uint32",
          "name": "_gasLimit",
          "type": "uint32"
        }
      ],
      "name": "setGasLimit",
      "outputs": [],
      "stateMutability": "nonpayable",
      "type": "function"
    },
    {
      "inputs": [
        {
          "internalType": "address",
          "name": "routerAddress",
          "type": "address"
        }
      ],
      "name": "setRouter",
      "outputs": [],
      "stateMutability": "nonpayable",
      "type": "function"
    },
    {
      "inputs": [
        {
          "internalType": "address",
          "name": "_service",
          "type": "address"
        }
      ],
      "name": "setService",
      "outputs": [],
      "stateMutability": "nonpayable",
      "type": "function"
    },
    {
      "inputs": [
        {
          "internalType": "bool",
          "name": "_testMode",
          "type": "bool"
        }
      ],
      "name": "setTestMode",
      "outputs": [],
      "stateMutability": "nonpayable",
      "type": "function"
    },
    {
      "inputs": [
        {
          "internalType": "bytes32",
          "name": "requestId",
          "type": "bytes32"
        },
        {
          "internalType": "bytes",
          "name": "response",
          "type": "bytes"
        }
      ],
      "name": "simulateResponse",
      "outputs": [],
      "stateMutability": "nonpayable",
      "type": "function"
    },
    {
      "inputs": [],
      "name": "testMode",
      "outputs": [
        {
          "internalType": "bool",
          "name": "",
          "type": "bool"
        }
      ],
      "stateMutability": "view",
      "type": "function"
    },
    {
      "inputs": [
        {
          "internalType": "address",
          "name": "newOwner",
          "type": "address"
        }
      ],
      "name": "transferOwnership",
      "outputs": [],
      "stateMutability": "nonpayable",
      "type": "function"
    },
    {
      "inputs": [],
      "name": "withdraw",
      "outputs": [],
      "stateMutability": "nonpayable",
      "type": "function"
    },
    {
      "stateMutability": "payable",
      "type": "receive"
    }
  ],
  "bytecode": "0x6080346100e357601f6115ed38819003918201601f19168301916001600160401b038311848410176100e85780849260409485528339810103126100e357610052602061004b836100fe565b92016100fe565b33156100ca5760008054336001600160a01b031980831682178455604051956001600160a01b0394919385939192908416907f8be0079c531659141344cd1fd0a4f28419497f9722a3daafe3b4186f6b6457e09080a31690600154161760015561249f60e51b9116176002556114da90816101138239f35b604051631e4fbdf760e01b815260006004820152602490fd5b600080fd5b634e487b7160e01b600052604160045260246000fd5b51906001600160a01b03821682036100e35756fe6080604052600436101561001b575b361561001957600080fd5b005b6000803560e01c806304728c1a14610ac75780631c20f39a14610a6c5780631ff1292f14610a345780632795ad20146109d457806331db1ffc146109aa5780633ccfd60b1461095b57806352d84c621461090b5780636da398b31461020b578063715018a6146108b15780638da5cb5b1461088a578063a267996a1461082d578063b484ab521461035a578063bf8bdac114610315578063c0d78655146102d0578063c32a18331461025d578063cd9ea3421461023a578063ce0fa5a91461020b578063d598d4c9146101e2578063f2fde38b1461015a578063f68016b7146101395763f887ea401461010e575061000e565b346101365780600319360112610136576002546040516001600160a01b039091168152602090f35b80fd5b5034610136578060031936011261013657602060025460e01c604051908152f35b503461013657602036600319011261013657610174610e8f565b61017c610ed2565b6001600160a01b039081169081156101c9576000548260018060a01b0319821617600055167f8be0079c531659141344cd1fd0a4f28419497f9722a3daafe3b4186f6b6457e0600080a380f35b604051631e4fbdf760e01b815260048101849052602490fd5b50346101365780600319360112610136576001546040516001600160a01b039091168152602090f35b50346101365760203660031901126101365760ff60406020926004358152600484522054166040519015158152f35b5034610136578060031936011261013657602060ff600354166040519015158152f35b5034610136576080366003190112610136576001600160401b03602435818116036102cb576044358181116102c75761029a903690600401610ea5565b50506064359081116102c3576102b76102c0913690600401610ea5565b906004356110b3565b80f35b5080fd5b8280fd5b600080fd5b5034610136576020366003190112610136576102ea610e8f565b6102f2610ed2565b600280546001600160a01b0319166001600160a01b039290921691909117905580f35b50346101365760203660031901126101365761032f610e8f565b610337610ed2565b600180546001600160a01b0319166001600160a01b039290921691909117905580f35b5060603660031901126101365761036f610e8f565b6044356001600160401b0381116102c75761038e903690600401610ea5565b91906001600160a01b038216156107f7576104059060405160208101903360601b82526bffffffffffffffffffffffff198560601b1660348201526024356048820152426068820152858360888301376103fa6088828881018a83820152036068810184520182610dfe565b519020933691610e3a565b60208151910120916040519261010093848101918183106001600160401b038411176107e1576104f192604052838252602082019560018060a01b0386168752604083019060243582526104d66060850193338552608086019081526040519061046e82610de3565b8b825260a0870191825260c08701958c875260e08801954287526040519c8d996020808c01525160408b015260018060a01b0390511660608a015251608089015260018060a01b0390511660a08801525160c0870152518260e0870152610140860190610f21565b9251908401525161012083015203601f198101855284610dfe565b604051926104fe84610db5565b84845260208401526040519261051384610d7e565b606084528460208501606081526040860160608152610566606088019284845261057460808a0196606088526040513060208201526020815261055581610db5565b8b5260405193849160208301610f46565b03601f198101845283610dfe565b526040519061058282610de3565b8382525252600254908160e01c9060405160208101908082106001600160401b038311176107e157839160405252604051916020830152602082526105c682610db5565b526040516320487ded60e01b815260a082901c6001600160401b03169490916001600160a01b031660208380610600858a60048401610f89565b0381845afa9283156107d657879361079e575b50823410610759576040516396f4e9f960e01b81529560209387938492839161063f9160048401610f89565b03925af192831561074e578493610715575b509260046020946040519261066584610d7e565b6001600160a01b039485168085526024358886018181523360408089018281524260608b0190815260808b019889528c885260058e529682902099518a546001600160a01b0319908116918d16919091178b55935160018b01555160028a0180549094169a1699909917909155925160038701559251939094019290925592518481527f03db42d19026043c507806bcd1ec1ed7cb9054547533139674081bfc853cbef8908690a4604051908152f35b9092506020813d602011610746575b8161073160209383610dfe565b810103126107425751916004610651565b8380fd5b3d9150610724565b6040513d86823e3d90fd5b60405162461bcd60e51b815260206004820152601960248201527f496e73756666696369656e74206665652070726f7669646564000000000000006044820152606490fd5b9092506020813d6020116107ce575b816107ba60209383610dfe565b810103126107ca57519138610613565b8680fd5b3d91506107ad565b6040513d89823e3d90fd5b634e487b7160e01b600052604160045260246000fd5b60405162461bcd60e51b815260206004820152600e60248201526d125b9d985b1a59081d185c99d95d60921b6044820152606490fd5b503461013657602036600319011261013657610847610ed2565b6004358152600460205260408120600160ff1982541617905560056020526102c06040822060046000918281558260018201558260028201558260038201550155565b5034610136578060031936011261013657546040516001600160a01b039091168152602090f35b50346101365780600319360112610136576108ca610ed2565b600080546001600160a01b0319811682556001600160a01b03167f8be0079c531659141344cd1fd0a4f28419497f9722a3daafe3b4186f6b6457e08280a380f35b50346101365760203660031901126101365760043563ffffffff811681036102c357610935610ed2565b600280546001600160e01b031660e09290921b6001600160e01b03191691909117905580f35b5034610136578060031936011261013657610974610ed2565b8080808060018060a01b0381541647908282156109a1575bf1156109955780f35b604051903d90823e3d90fd5b506108fc61098c565b503461013657806003193601126101365760206001600160401b0360025460a01c16604051908152f35b503461013657602036600319011261013657604060a0916004358152600560205220600180831b03808254169160018101549160028201541660046003830154920154926040519485526020850152604084015260608301526080820152f35b5034610136576020366003190112610136576004358015158091036102c357610a5b610ed2565b60ff80196003541691161760035580f35b5034610136576020366003190112610136576004356001600160401b03811681036102cb57610a99610ed2565b6002805467ffffffffffffffff60a01b191660a09290921b67ffffffffffffffff60a01b1691909117905580f35b5034610136576040366003190112610136576024356001600160401b0381116102c357610af8903690600401610e71565b610b00610ed2565b60043582526005602052816040812091604051610b1c81610d7e565b60018060a01b0384541690818152610b6960046001870154966020840197885260018060a01b03600282015416604085015260038101546060850152015492608083019384521515611052565b60608380518101031261074257610b8260208401611092565b60408401516060909401516001600160a01b0381169690879003610d7a57610ce796610cf394519560018060a01b0385511692519360405197610bc489610d99565b88521515602088015260408701526060860152604051610be381610de3565b86815260808601528560a08601524260c086015260e08501526101008401526040518093602080830152805160408301526020810151151560608301526040810151608083015260018060a01b0360608201511660a0830152610100608082015191610c5d610120938460c0870152610160860190610f21565b9260a082015160e086015260c08201518386015260018060a01b0360e0830151169085015201516101408301520390610c9e601f1992838101865285610dfe565b60405193610cab85610db5565b600185526020850152604060018060a01b03910151169260405193602085015260208452610cd884610db5565b60405195869160208301610f46565b03908101855284610dfe565b6001600160401b0360025460a01c16303b156102c757610d52610d4094604051958694859463c32a183360e01b865260043560048701526024860152608060448601526084850190610f21565b83810360031901606485015290610f21565b038183305af18015610d6f57610d66575080f35b6102c090610dd0565b6040513d84823e3d90fd5b8580fd5b60a081019081106001600160401b038211176107e157604052565b61012081019081106001600160401b038211176107e157604052565b604081019081106001600160401b038211176107e157604052565b6001600160401b0381116107e157604052565b602081019081106001600160401b038211176107e157604052565b90601f801991011681019081106001600160401b038211176107e157604052565b6001600160401b0381116107e157601f01601f191660200190565b929192610e4682610e1f565b91610e546040519384610dfe565b8294818452818301116102cb578281602093846000960137010152565b9080601f830112156102cb57816020610e8c93359101610e3a565b90565b600435906001600160a01b03821682036102cb57565b9181601f840112156102cb578235916001600160401b0383116102cb57602083818601950101116102cb57565b6000546001600160a01b03163303610ee657565b60405163118cdaa760e01b8152336004820152602490fd5b60005b838110610f115750506000910152565b8181015183820152602001610f01565b90602091610f3a81518092818552858086019101610efe565b601f01601f1916010190565b602081528151916003831015610f73576020606091610e8c94828501520151916040808201520190610f21565b634e487b7160e01b600052602160045260246000fd5b906001600160401b039093929316815260406020918183820152610fb8855160a08484015260e0830190610f21565b91610fd48487015193603f199485858303016060860152610f21565b8187015194848483030160808501528080875193848152019601926000905b83821061102957505050505060c06080610e8c959660018060a01b0360608201511660a085015201519282850301910152610f21565b845180516001600160a01b03168952830151888401529687019693820193600190910190610ff3565b1561105957565b60405162461bcd60e51b815260206004820152601160248201527014995c5d595cdd081b9bdd08199bdd5b99607a1b6044820152606490fd5b519081151582036102cb57565b51906001600160a01b03821682036102cb57565b90600092828452600460205260ff60408520541661145f57828452600560205260408420546110ec906001600160a01b03161515611052565b810160408282031261074257813590600382101561145b5760208301356001600160401b03938482116107ca57916111279160019301610e71565b910361141857805181016020810191602081830312610d7a576020810151908482116107ca57019182916101209283910312610d7a576040519361116a85610d99565b6020840151855261117d60408501611092565b6020860152606084015160408601526111986080850161109f565b606086015260a08401519081116107ca57830181603f820112156107ca576020810151906111c582610e1f565b926111d36040519485610dfe565b8284526040838301011161141457906111f3916040602085019101610efe565b608084015260c082015160a084015260e082015160c08401526101009161121b83820161109f565b60e08501520151908201528183526005602052604083209060046040519261124284610d7e565b60018060a01b0381541684526001810154602085015260018060a01b0360028201541660408501526003810154606085015201546080830152828452600460205260408420600160ff1982541617905560018060a01b036001541660018060a01b038351166020840151906020840151151592604085015160018060a01b0360608701511690823b156114105760a4928a9594928692604051988997889663552eb1d160e01b8852600488015260248701526044860152606485015260848401525af1801561140557916113cd959391604095936113cf575b5060808160207fb5fd8a8b9c1d28441401576ea69adbe8f9337fe8f787aab437885dd5100153199301511515908781015190606060018060a01b0391015116908851928784526020840152888301526060820152a18051602090910151906001600160a01b0316827fa425dab478e88dba11ad4567393a7761c24ed7764697e8270afcc6102961a20b8580a4815260056020522060046000918281558260018201558260028201558260038201550155565b565b7fb5fd8a8b9c1d28441401576ea69adbe8f9337fe8f787aab437885dd51001531991946113fd608092610dd0565b94915061131b565b6040513d87823e3d90fd5b8980fd5b8780fd5b5050808252600560205260408220907fa425dab478e88dba11ad4567393a7761c24ed7764697e8270afcc6102961a20b6001808060a01b038454169301549380a4565b8480fd5b60405162461bcd60e51b815260206004820152601960248201527f5265717565737420616c72656164792070726f636573736564000000000000006044820152606490fdfea2646970667358221220c463169d9a61aece85ffe411adeca96a9f070bae9c94dc313f61edd3f686678764736f6c63430008140033",
  "linkReferences": {},
  "deployedLinkReferences": {}
}