{
  "_format": "hh-sol-artifact-1",
  "contractName": "CCIPArbitrationReceiver",
  "sourceName": "contracts/Arbitration/ccip/CCIPArbitrationReceiver.sol",
  "abi": [
    {
      "inputs": [
        {
          "internalType": "address",
          "name": "router",
          "type": "address"
        },
        {
          "internalType": "address",
          "name": "_arbitrationService",
          "type": "address"
        }
      ],
      "stateMutability": "nonpayable",
      "type": "constructor"
    },
    {
      "anonymous": false,
      "inputs": [
        {
          "indexed": true,
          "internalType": "bytes32",
          "name": "messageId",
          "type": "bytes32"
        },
        {
          "indexed": true,
          "internalType": "bytes32",
          "name": "disputeId",
          "type": "bytes32"
        },
        {
          "indexed": true,
          "internalType": "uint64",
          "name": "sourceChainSelector",
          "type": "uint64"
        },
        {
          "indexed": false,
          "internalType": "bool",
          "name": "approved",
          "type": "bool"
        },
        {
          "indexed": false,
          "internalType": "uint256",
          "name": "appliedAmount",
          "type": "uint256"
        },
        {
          "indexed": false,
          "internalType": "address",
          "name": "beneficiary",
          "type": "address"
        },
        {
          "indexed": false,
          "internalType": "string",
          "name": "rationale",
          "type": "string"
        },
        {
          "indexed": false,
          "internalType": "bytes32",
          "name": "oracleId",
          "type": "bytes32"
        },
        {
          "indexed": false,
          "internalType": "uint256",
          "name": "timestamp",
          "type": "uint256"
        }
      ],
      "name": "ArbitrationDecisionReceived",
      "type": "event"
    },
    {
      "anonymous": false,
      "inputs": [
        {
          "indexed": true,
          "internalType": "bytes32",
          "name": "disputeId",
          "type": "bytes32"
        },
        {
          "indexed": true,
          "internalType": "address",
          "name": "targetContract",
          "type": "address"
        },
        {
          "indexed": true,
          "internalType": "uint256",
          "name": "caseId",
          "type": "uint256"
        },
        {
          "indexed": false,
          "internalType": "bool",
          "name": "approved",
          "type": "bool"
        },
        {
          "indexed": false,
          "internalType": "uint256",
          "name": "appliedAmount",
          "type": "uint256"
        },
        {
          "indexed": false,
          "internalType": "address",
          "name": "beneficiary",
          "type": "address"
        }
      ],
      "name": "ArbitrationExecuted",
      "type": "event"
    },
    {
      "anonymous": false,
      "inputs": [
        {
          "indexed": true,
          "internalType": "bytes32",
          "name": "messageId",
          "type": "bytes32"
        },
        {
          "indexed": false,
          "internalType": "bytes",
          "name": "reason",
          "type": "bytes"
        }
      ],
      "name": "ArbitrationForwardFailed",
      "type": "event"
    },
    {
      "anonymous": false,
      "inputs": [
        {
          "indexed": true,
          "internalType": "bytes32",
          "name": "messageId",
          "type": "bytes32"
        },
        {
          "indexed": true,
          "internalType": "bytes32",
          "name": "disputeId",
          "type": "bytes32"
        },
        {
          "indexed": true,
          "internalType": "uint64",
          "name": "destinationChainSelector",
          "type": "uint64"
        },
        {
          "indexed": false,
          "internalType": "address",
          "name": "contractAddress",
          "type": "address"
        },
        {
          "indexed": false,
          "internalType": "uint256",
          "name": "caseId",
          "type": "uint256"
        }
      ],
      "name": "ArbitrationRequestSent",
      "type": "event"
    },
    {
      "anonymous": false,
      "inputs": [
        {
          "indexed": false,
          "internalType": "address",
          "name": "sender",
          "type": "address"
        },
        {
          "indexed": false,
          "internalType": "bool",
          "name": "authorized",
          "type": "bool"
        }
      ],
      "name": "SenderAuthorized",
      "type": "event"
    },
    {
      "anonymous": false,
      "inputs": [
        {
          "indexed": false,
          "internalType": "uint64",
          "name": "chainSelector",
          "type": "uint64"
        },
        {
          "indexed": false,
          "internalType": "bool",
          "name": "authorized",
          "type": "bool"
        }
      ],
      "name": "SourceChainAuthorized",
      "type": "event"
    },
    {
      "inputs": [],
      "name": "arbitrationService",
      "outputs": [
        {
          "internalType": "contract IArbitrationService",
          "name": "",
          "type": "address"
        }
      ],
      "stateMutability": "view",
      "type": "function"
    },
    {
      "inputs": [
        {
          "internalType": "address",
          "name": "",
          "type": "address"
        }
      ],
      "name": "authorizedSenders",
      "outputs": [
        {
          "internalType": "bool",
          "name": "",
          "type": "bool"
        }
      ],
      "stateMutability": "view",
      "type": "function"
    },
    {
      "inputs": [
        {
          "internalType": "uint64",
          "name": "",
          "type": "uint64"
        }
      ],
      "name": "authorizedSourceChains",
      "outputs": [
        {
          "internalType": "bool",
          "name": "",
          "type": "bool"
        }
      ],
      "stateMutability": "view",
      "type": "function"
    },
    {
      "inputs": [
        {
          "components": [
            {
              "internalType": "bytes32",
              "name": "messageId",
              "type": "bytes32"
            },
            {
              "internalType": "uint64",
              "name": "sourceChainSelector",
              "type": "uint64"
            },
            {
              "internalType": "bytes",
              "name": "sender",
              "type": "bytes"
            },
            {
              "internalType": "bytes",
              "name": "data",
              "type": "bytes"
            }
          ],
          "internalType": "struct Client.Any2EVMMessage",
          "name": "message",
          "type": "tuple"
        }
      ],
      "name": "ccipReceive",
      "outputs": [],
      "stateMutability": "nonpayable",
      "type": "function"
    },
    {
      "inputs": [
        {
          "internalType": "bytes32",
          "name": "messageId",
          "type": "bytes32"
        },
        {
          "internalType": "uint64",
          "name": "sourceChainSelector",
          "type": "uint64"
        },
        {
          "internalType": "bytes",
          "name": "sender",
          "type": "bytes"
        },
        {
          "internalType": "bytes",
          "name": "data",
          "type": "bytes"
        }
      ],
      "name": "ccipReceiveRaw",
      "outputs": [],
      "stateMutability": "nonpayable",
      "type": "function"
    },
    {
      "inputs": [],
      "name": "ccipRouter",
      "outputs": [
        {
          "internalType": "contract ICCIPRouter",
          "name": "",
          "type": "address"
        }
      ],
      "stateMutability": "view",
      "type": "function"
    },
    {
      "inputs": [
        {
          "internalType": "bytes32",
          "name": "messageId",
          "type": "bytes32"
        },
        {
          "components": [
            {
              "internalType": "bytes32",
              "name": "disputeId",
              "type": "bytes32"
            },
            {
              "internalType": "bool",
              "name": "approved",
              "type": "bool"
            },
            {
              "internalType": "uint256",
              "name": "appliedAmount",
              "type": "uint256"
            },
            {
              "internalType": "address",
              "name": "beneficiary",
              "type": "address"
            },
            {
              "internalType": "string",
              "name": "rationale",
              "type": "string"
            },
            {
              "internalType": "bytes32",
              "name": "oracleId",
              "type": "bytes32"
            },
            {
              "internalType": "uint256",
              "name": "timestamp",
              "type": "uint256"
            },
            {
              "internalType": "address",
              "name": "targetContract",
              "type": "address"
            },
            {
              "internalType": "uint256",
              "name": "caseId",
              "type": "uint256"
            }
          ],
          "internalType": "struct CCIPArbitrationTypes.ArbitrationDecision",
          "name": "decision",
          "type": "tuple"
        }
      ],
      "name": "emergencyExecuteDecision",
      "outputs": [],
      "stateMutability": "nonpayable",
      "type": "function"
    },
    {
      "inputs": [
        {
          "internalType": "bytes32",
          "name": "",
          "type": "bytes32"
        }
      ],
      "name": "executedDecisions",
      "outputs": [
        {
          "internalType": "bytes32",
          "name": "disputeId",
          "type": "bytes32"
        },
        {
          "internalType": "bool",
          "name": "approved",
          "type": "bool"
        },
        {
          "internalType": "uint256",
          "name": "appliedAmount",
          "type": "uint256"
        },
        {
          "internalType": "address",
          "name": "beneficiary",
          "type": "address"
        },
        {
          "internalType": "string",
          "name": "rationale",
          "type": "string"
        },
        {
          "internalType": "bytes32",
          "name": "oracleId",
          "type": "bytes32"
        },
        {
          "internalType": "uint256",
          "name": "timestamp",
          "type": "uint256"
        },
        {
          "internalType": "address",
          "name": "targetContract",
          "type": "address"
        },
        {
          "internalType": "uint256",
          "name": "caseId",
          "type": "uint256"
        }
      ],
      "stateMutability": "view",
      "type": "function"
    },
    {
      "inputs": [
        {
          "internalType": "bytes32",
          "name": "messageId",
          "type": "bytes32"
        }
      ],
      "name": "getDecision",
      "outputs": [
        {
          "components": [
            {
              "internalType": "bytes32",
              "name": "disputeId",
              "type": "bytes32"
            },
            {
              "internalType": "bool",
              "name": "approved",
              "type": "bool"
            },
            {
              "internalType": "uint256",
              "name": "appliedAmount",
              "type": "uint256"
            },
            {
              "internalType": "address",
              "name": "beneficiary",
              "type": "address"
            },
            {
              "internalType": "string",
              "name": "rationale",
              "type": "string"
            },
            {
              "internalType": "bytes32",
              "name": "oracleId",
              "type": "bytes32"
            },
            {
              "internalType": "uint256",
              "name": "timestamp",
              "type": "uint256"
            },
            {
              "internalType": "address",
              "name": "targetContract",
              "type": "address"
            },
            {
              "internalType": "uint256",
              "name": "caseId",
              "type": "uint256"
            }
          ],
          "internalType": "struct CCIPArbitrationTypes.ArbitrationDecision",
          "name": "",
          "type": "tuple"
        }
      ],
      "stateMutability": "view",
      "type": "function"
    },
    {
      "inputs": [
        {
          "internalType": "bytes32",
          "name": "messageId",
          "type": "bytes32"
        }
      ],
      "name": "isMessageProcessed",
      "outputs": [
        {
          "internalType": "bool",
          "name": "",
          "type": "bool"
        }
      ],
      "stateMutability": "view",
      "type": "function"
    },
    {
      "inputs": [],
      "name": "owner",
      "outputs": [
        {
          "internalType": "address",
          "name": "",
          "type": "address"
        }
      ],
      "stateMutability": "view",
      "type": "function"
    },
    {
      "inputs": [
        {
          "internalType": "bytes32",
          "name": "",
          "type": "bytes32"
        }
      ],
      "name": "processedMessages",
      "outputs": [
        {
          "internalType": "bool",
          "name": "",
          "type": "bool"
        }
      ],
      "stateMutability": "view",
      "type": "function"
    },
    {
      "inputs": [
        {
          "internalType": "address",
          "name": "sender",
          "type": "address"
        },
        {
          "internalType": "bool",
          "name": "authorized",
          "type": "bool"
        }
      ],
      "name": "setSenderAuthorization",
      "outputs": [],
      "stateMutability": "nonpayable",
      "type": "function"
    },
    {
      "inputs": [
        {
          "internalType": "uint64",
          "name": "chainSelector",
          "type": "uint64"
        },
        {
          "internalType": "bool",
          "name": "authorized",
          "type": "bool"
        }
      ],
      "name": "setSourceChainAuthorization",
      "outputs": [],
      "stateMutability": "nonpayable",
      "type": "function"
    },
    {
      "inputs": [
        {
          "internalType": "address",
          "name": "newOwner",
          "type": "address"
        }
      ],
      "name": "transferOwnership",
      "outputs": [],
      "stateMutability": "nonpayable",
      "type": "function"
    }
  ],
  "bytecode": "0x60c03461012a57601f6200184338819003918201601f19168301916001600160401b0383118484101761012f57808492604094855283398101031261012a57610053602061004c83610145565b9201610145565b6001600160a01b03918216919082156100f457169081156100af5760805260a052600080546001600160a01b031916331790556040516116e990816200015a823960805181610943015260a05181818161085601526114ae0152f35b60405162461bcd60e51b815260206004820152601b60248201527f496e76616c6964206172626974726174696f6e207365727669636500000000006044820152606490fd5b60405162461bcd60e51b815260206004820152600e60248201526d24b73b30b634b2103937baba32b960911b6044820152606490fd5b600080fd5b634e487b7160e01b600052604160045260246000fd5b51906001600160a01b038216820361012a5756fe60806040908082526004908136101561001757600080fd5b60003560e01c9081630de2298414610930575080630de88bf9146108855780631b4cf8c6146108415780631bd31ef6146106815780631df043a2146107bf57806324532f30146107815780632c7157a3146106ed5780636f324967146106af57806388ba16ab146106815780638b46cb9b146105ee5780638da5cb5b146105c5578063b34a5424146102d9578063c32a183314610241578063d8c57892146101525763f2fde38b146100c857600080fd5b3461014d57602036600319011261014d576100e1610b08565b60005491906001600160a01b03906100fc338386161461167a565b169283156101165750506001600160a01b03191617600055005b906020606492519162461bcd60e51b8352820152601160248201527024b73b30b634b2103732bb9037bbb732b960791b6044820152fd5b600080fd5b503461014d57602036600319011261014d578161023d9251610173816109dd565b60008152600060208201526000828201526000606082015260606080820152600060a0820152600060c0820152600060e0820152600061010080920152823560005260036020526008826000208351946101cc866109dd565b81548652600182015460ff161515602087015260028201548587015260038201546001600160a01b03908116606088015290610209908301610a1a565b6080870152600582015460a0870152600682015460c087015260078201541660e08601520154908301525191829182610bd6565b0390f35b503461014d57608036600319011261014d57602435916001600160401b039283811680910361014d5760443584811161014d576102819036908501610ba9565b909260643595861161014d576102c26102cd946102a46102d79836908901610ba9565b9490958451986102b38a6109ac565b35895260208901523691610b72565b908501523691610b72565b6060820152610cf4565b005b50903461014d5760031991818336011261014d57602435916001600160401b039384841161014d5761012090843603011261014d5780519261031a846109dd565b808301358452602481013591821515830361014d57602085019283528085016044830135815261034c60648401610b1e565b9160608701928352608484013588811161014d578401903660238301121561014d5761010461038761042893369060248b8201359101610b72565b9560808a0196875260a481013560a08b015260c481013560c08b01526103af60e48201610b1e565b60e08b015201356101008901526103d160018060a01b0360005416331461167a565b8635600052866020526103eb60ff82600020541615610c73565b86356000528660205280600020600160ff1982541617905560036020526000209487518655511515600186019060ff801983541691151516179055565b516002840155516003830180546001600160a01b0319166001600160a01b0392909216919091179055518051909481116105b05761046883830154610972565b601f811161056a575b506020601f82116001146104fc5781906102d7966000926104f1575b50508160011b916000199060031b1c191617828201555b60a0830151600582015560c0830151600682015560e08301516007820180546001600160a01b0319166001600160a01b0392909216919091179055610100830151600890910155356113bf565b01519050388061048d565b601f1982169584840160005260206000209660005b8181106105525750916102d79791846001959410610539575b505050811b01828201556104a4565b015160001960f88460031b161c1916905538808061052a565b83830151895560019098019760209384019301610511565b8383016000526020600020601f830160051c8101602084106105a9575b601f830160051c8201811061059d575050610471565b60008155600101610587565b5080610587565b604183634e487b7160e01b6000525260246000fd5b823461014d57600036600319011261014d5760005490516001600160a01b039091168152602090f35b50903461014d5760031960203682011261014d5782356001600160401b039182821161014d57608090823603011261014d5782519261062c846109ac565b8185013584526024820135838116810361014d576020850152604482013583811161014d5761066090863691850101610c55565b90840152606481013591821161014d576102d7936102cd9236920101610c55565b50903461014d57602036600319011261014d578160209235600052825260ff81600020541690519015158152f35b823461014d57602036600319011261014d576020906001600160a01b036106d4610b08565b166000526002825260ff81600020541690519015158152f35b823461014d578060031936011261014d577f521367d58b83c365ec9fb90bfa01423c3bbec4fc0e776e21830e4375b1211e3790610728610b41565b6001600160401b03610738610b32565b9161074e60018060a01b0360005416331461167a565b169081600052600160205261077281846000209060ff801983541691151516179055565b825191825215156020820152a1005b823461014d57602036600319011261014d576020906001600160401b036107a6610b41565b166000526001825260ff81600020541690519015158152f35b823461014d578060031936011261014d577f7acf88556057e561645e1c63ec27acf561f4bced268a556772140d1dde13f777906107fa610b08565b610802610b32565b60005490916001600160a01b039161081d908316331461167a565b169081600052600260205261077281846000209060ff801983541691151516179055565b823461014d57600036600319011261014d57517f00000000000000000000000000000000000000000000000000000000000000006001600160a01b03168152602090f35b50903461014d57602036600319011261014d5781356000526003602052806000209182549160ff6001850154169360028101549261091660018060a01b03916108d683600386015416918501610a1a565b9060058501549660086006870154956007880154169601549680519a8b9a8b52151560208b01528901526060880152610120806080890152870190610ae3565b9360a086015260c085015260e08401526101008301520390f35b3461014d57600036600319011261014d577f00000000000000000000000000000000000000000000000000000000000000006001600160a01b03168152602090f35b90600182811c921680156109a2575b602083101461098c57565b634e487b7160e01b600052602260045260246000fd5b91607f1691610981565b608081019081106001600160401b038211176109c757604052565b634e487b7160e01b600052604160045260246000fd5b61012081019081106001600160401b038211176109c757604052565b90601f801991011681019081106001600160401b038211176109c757604052565b9060405191826000825492610a2e84610972565b908184526001948581169081600014610a9d5750600114610a5a575b5050610a58925003836109f9565b565b9093915060005260209081600020936000915b818310610a85575050610a5893508201013880610a4a565b85548884018501529485019487945091830191610a6d565b915050610a5894506020925060ff191682840152151560051b8201013880610a4a565b60005b838110610ad35750506000910152565b8181015183820152602001610ac3565b90602091610afc81518092818552858086019101610ac0565b601f01601f1916010190565b600435906001600160a01b038216820361014d57565b35906001600160a01b038216820361014d57565b60243590811515820361014d57565b600435906001600160401b038216820361014d57565b6001600160401b0381116109c757601f01601f191660200190565b929192610b7e82610b57565b91610b8c60405193846109f9565b82948184528183011161014d578281602093846000960137010152565b9181601f8401121561014d578235916001600160401b03831161014d576020838186019501011161014d57565b60208152815160208201526020820151151560408201526040820151606082015260018060a01b0391826060820151166080830152608081015190610c29610120928360a0860152610140850190610ae3565b9360a082015160c085015260c082015160e085015260e082015116906101009182850152015191015290565b9080601f8301121561014d57816020610c7093359101610b72565b90565b15610c7a57565b60405162461bcd60e51b815260206004820152601960248201527f4d65737361676520616c72656164792070726f636573736564000000000000006044820152606490fd5b90929192610ccc81610b57565b91610cda60405193846109f9565b82948284528282011161014d576020610a58930190610ac0565b90602082016001600160401b03815116600052600160205260ff604060002054161561131c57604083015160208180518101031261014d57602001516001600160a01b0381169081900361014d57600052600260205260ff60406000205416156112e1576060835193846000526004602052610d7860ff6040600020541615610c73565b8460005260046020526040600020600160ff198254161790550151908151820191602083019060208185031261014d5760208101516001600160401b03811161014d57604091018094031261014d5760405192604084018481106001600160401b038211176109c7576040526020810151600381101561014d5784526040810151906001600160401b03821161014d57019080603f8301121561014d576020820151610e2692604001610cbf565b9160208101928352805160038110156112cb5760010361119857506001600160401b03905116905192835184019160208584031261014d576020850151926001600160401b03841161014d5761012084870182031261014d5760405193610e8c856109dd565b8681016020810151865260400151801515810361014d57602086015286810160608101516040870152610ec190608001611361565b606086015260a08188010151916001600160401b03831161014d5761012092602080610ef3930191848b010101611375565b608086015286810160c08181015160a088015260e0820151908701526101009790610f1f908901611361565b60e087015201015185840152816000526003602052604060002083518155610f5c60208501511515600183019060ff801983541691151516179055565b6040840151600282015560608401516003820180546001600160a01b0319166001600160a01b0392909216919091179055608084015180519096906001600160401b0381116109c757610fb26004840154610972565b601f8111611151575b506020601f82116001146110bb5791817fb5386534d37d9898321b986264f1dffed9e85c0d17bd461a68c42b3daec7a93b928794610a589a9b6000926110b0575b50508160011b916000199060031b1c19161760048501555b60a087015193846005820155600860c0890151928360068401556007830160018060a01b0360e08c01511660018060a01b0319825416179055890151910155865193602088015115159060408901519261109d60018060a01b0360608c01511660808c01519060405196879687526020870152604086015260c0606086015260c0850190610ae3565b91608084015260a08301520390a46113bf565b015190503880610ffc565b6004840160005260206000209860005b601f1984168110611139575082610a58999a8895936001937fb5386534d37d9898321b986264f1dffed9e85c0d17bd461a68c42b3daec7a93b96601f19811610611120575b505050811b016004850155611014565b015160001960f88460031b161c19169055388080611110565b828201518b556001909a0199602092830192016110cb565b600484016000526020600020601f830160051c810160208410611191575b601f830160051c82018110611185575050610fbb565b6000815560010161116f565b508061116f565b939192935160038110156112cb57156111b057505050565b6001600160401b03905116915190815182019160208184031261014d576020810151906001600160401b03821161014d57019161010092838183031261014d57604051938085018581106001600160401b038211176109c7576040526020820151855261121f60408301611361565b94602081019586526060830151916040820192835261124060808501611361565b606083015260a0840151608083015260c0840151936001600160401b03851161014d576112986040956020807fdf4a18618d9c4ad20001b098771d6ddf56e6cf2280c8738c93cd34cee23f7d83990191840101611375565b60a084015260e08181015160c085015291015190820152519451905182516001600160a01b0390921682526020820152a4565b634e487b7160e01b600052602160045260246000fd5b60405162461bcd60e51b81526020600482015260136024820152722ab730baba3437b934bd32b21039b2b73232b960691b6044820152606490fd5b60405162461bcd60e51b815260206004820152601960248201527f556e617574686f72697a656420736f7572636520636861696e000000000000006044820152606490fd5b51906001600160a01b038216820361014d57565b9080601f8301121561014d578151610c7092602001610cbf565b3d156113ba573d906113a082610b57565b916113ae60405193846109f9565b82523d6000602084013e565b606090565b60e0820151610100830151835160208086018051604080890180516060808c01805185519615158752868901939093526001600160a01b0392831686860152939b9a99821699939792969394919289928b927f8fefba78998e153367db6ad8cf75fb1c1c78c15738fd0e67da8865d7d394291891a48951998a6114448b858301610bd6565b0393601f19948581018d52611459908d6109f9565b8151808581019d8e63ae4a96c160e01b90528360248301528c60448301528b6064830152608482016080905260a4820161149291610ae3565b0386810182526114a290826109f9565b6000809d8192519082877f0000000000000000000000000000000000000000000000000000000000000000165af16114d861138f565b908d9061162d575060015b6114f65750505050505050505050505050565b61152c7f96e14d9426900f3715ea6496d864e6d5026161f59e4942ec76635042b9702c8e91845191829188835288830190610ae3565b0390a284511515865183895116835191868301936302fae73f60e01b85528c60248501526044840152606483015260848201526084815260c081018181106001600160401b03821117611619578352518c91829190828d5af161158d61138f565b5061160c578a998a9760806115f0946115fc985115159951925116920151925197889586019a6362708a9160e01b8c52602487015260448601526064850152608484015260c060a48401528660e484015260e060c4840152610104830190610ae3565b039081018352826109f9565b51925af15061160961138f565b50565b5050505050505050505050565b634e487b7160e01b8e52604160045260248efd5b8151600181101561163f575b506114e3565b1561166657818601516001600160f81b0319161561165e575b38611639565b506001611658565b634e487b7160e01b8e52603260045260248efd5b1561168157565b60405162461bcd60e51b815260206004820152600a60248201526927b7363c9037bbb732b960b11b6044820152606490fdfea2646970667358221220644029ba925440aef1233ba6691600dc00f9a4d0285ed3f6769f858d17f8f54864736f6c63430008140033",
  "linkReferences": {},
  "deployedLinkReferences": {}
}