{
  "_format": "hh-sol-artifact-1",
  "contractName": "CCIPArbitrationSender",
  "sourceName": "contracts/Arbitration/ccip/CCIPArbitrationSender.sol",
  "abi": [
    {
      "inputs": [
        {
          "internalType": "address",
          "name": "router",
          "type": "address"
        },
        {
          "internalType": "address",
          "name": "linkToken",
          "type": "address"
        },
        {
          "internalType": "uint64",
          "name": "_oracleChainSelector",
          "type": "uint64"
        },
        {
          "internalType": "address",
          "name": "_oracleReceiver",
          "type": "address"
        }
      ],
      "stateMutability": "nonpayable",
      "type": "constructor"
    },
    {
      "anonymous": false,
      "inputs": [
        {
          "indexed": true,
          "internalType": "bytes32",
          "name": "messageId",
          "type": "bytes32"
        },
        {
          "indexed": true,
          "internalType": "bytes32",
          "name": "disputeId",
          "type": "bytes32"
        },
        {
          "indexed": true,
          "internalType": "address",
          "name": "contractAddress",
          "type": "address"
        },
        {
          "indexed": false,
          "internalType": "uint256",
          "name": "caseId",
          "type": "uint256"
        },
        {
          "indexed": false,
          "internalType": "bool",
          "name": "approved",
          "type": "bool"
        },
        {
          "indexed": false,
          "internalType": "uint16",
          "name": "confidence",
          "type": "uint16"
        }
      ],
      "name": "ArbitrationDecisionSent",
      "type": "event"
    },
    {
      "anonymous": false,
      "inputs": [
        {
          "indexed": true,
          "internalType": "bytes32",
          "name": "messageId",
          "type": "bytes32"
        },
        {
          "indexed": true,
          "internalType": "bytes32",
          "name": "disputeId",
          "type": "bytes32"
        },
        {
          "indexed": true,
          "internalType": "address",
          "name": "contractAddress",
          "type": "address"
        },
        {
          "indexed": false,
          "internalType": "uint256",
          "name": "caseId",
          "type": "uint256"
        }
      ],
      "name": "ArbitrationRequestSent",
      "type": "event"
    },
    {
      "anonymous": false,
      "inputs": [
        {
          "indexed": true,
          "internalType": "address",
          "name": "contractAddr",
          "type": "address"
        },
        {
          "indexed": false,
          "internalType": "bool",
          "name": "authorized",
          "type": "bool"
        }
      ],
      "name": "ContractAuthorized",
      "type": "event"
    },
    {
      "anonymous": false,
      "inputs": [
        {
          "indexed": false,
          "internalType": "uint64",
          "name": "chainSelector",
          "type": "uint64"
        },
        {
          "indexed": false,
          "internalType": "address",
          "name": "receiver",
          "type": "address"
        }
      ],
      "name": "OracleConfigUpdated",
      "type": "event"
    },
    {
      "inputs": [
        {
          "internalType": "address",
          "name": "",
          "type": "address"
        }
      ],
      "name": "authorizedContracts",
      "outputs": [
        {
          "internalType": "bool",
          "name": "",
          "type": "bool"
        }
      ],
      "stateMutability": "view",
      "type": "function"
    },
    {
      "inputs": [
        {
          "internalType": "enum CCIPArbitrationSender.PayFeesIn",
          "name": "payFeesIn",
          "type": "uint8"
        }
      ],
      "name": "getArbitrationFees",
      "outputs": [
        {
          "internalType": "uint256",
          "name": "",
          "type": "uint256"
        }
      ],
      "stateMutability": "view",
      "type": "function"
    },
    {
      "inputs": [],
      "name": "oracleChainSelector",
      "outputs": [
        {
          "internalType": "uint64",
          "name": "",
          "type": "uint64"
        }
      ],
      "stateMutability": "view",
      "type": "function"
    },
    {
      "inputs": [],
      "name": "oracleReceiver",
      "outputs": [
        {
          "internalType": "address",
          "name": "",
          "type": "address"
        }
      ],
      "stateMutability": "view",
      "type": "function"
    },
    {
      "inputs": [],
      "name": "owner",
      "outputs": [
        {
          "internalType": "address",
          "name": "",
          "type": "address"
        }
      ],
      "stateMutability": "view",
      "type": "function"
    },
    {
      "inputs": [
        {
          "internalType": "bytes32",
          "name": "",
          "type": "bytes32"
        }
      ],
      "name": "pendingRequests",
      "outputs": [
        {
          "internalType": "bytes32",
          "name": "disputeId",
          "type": "bytes32"
        },
        {
          "internalType": "address",
          "name": "contractAddress",
          "type": "address"
        },
        {
          "internalType": "uint256",
          "name": "caseId",
          "type": "uint256"
        },
        {
          "internalType": "address",
          "name": "requester",
          "type": "address"
        },
        {
          "internalType": "bytes32",
          "name": "evidenceHash",
          "type": "bytes32"
        },
        {
          "internalType": "string",
          "name": "evidenceURI",
          "type": "string"
        },
        {
          "internalType": "uint256",
          "name": "requestedAmount",
          "type": "uint256"
        },
        {
          "internalType": "uint256",
          "name": "timestamp",
          "type": "uint256"
        }
      ],
      "stateMutability": "view",
      "type": "function"
    },
    {
      "inputs": [
        {
          "internalType": "bytes32",
          "name": "",
          "type": "bytes32"
        }
      ],
      "name": "processedRequests",
      "outputs": [
        {
          "internalType": "bool",
          "name": "",
          "type": "bool"
        }
      ],
      "stateMutability": "view",
      "type": "function"
    },
    {
      "inputs": [
        {
          "internalType": "bytes32",
          "name": "disputeId",
          "type": "bytes32"
        },
        {
          "internalType": "bool",
          "name": "approved",
          "type": "bool"
        },
        {
          "internalType": "uint256",
          "name": "appliedAmount",
          "type": "uint256"
        },
        {
          "internalType": "address",
          "name": "beneficiary",
          "type": "address"
        },
        {
          "internalType": "string",
          "name": "rationale",
          "type": "string"
        },
        {
          "internalType": "bytes32",
          "name": "oracleId",
          "type": "bytes32"
        },
        {
          "internalType": "enum CCIPArbitrationSender.PayFeesIn",
          "name": "payFeesIn",
          "type": "uint8"
        }
      ],
      "name": "sendArbitrationDecision",
      "outputs": [
        {
          "internalType": "bytes32",
          "name": "messageId",
          "type": "bytes32"
        }
      ],
      "stateMutability": "payable",
      "type": "function"
    },
    {
      "inputs": [
        {
          "internalType": "bytes32",
          "name": "disputeId",
          "type": "bytes32"
        },
        {
          "internalType": "address",
          "name": "contractAddress",
          "type": "address"
        },
        {
          "internalType": "uint256",
          "name": "caseId",
          "type": "uint256"
        },
        {
          "internalType": "bytes32",
          "name": "evidenceHash",
          "type": "bytes32"
        },
        {
          "internalType": "string",
          "name": "evidenceURI",
          "type": "string"
        },
        {
          "internalType": "uint256",
          "name": "requestedAmount",
          "type": "uint256"
        },
        {
          "internalType": "enum CCIPArbitrationSender.PayFeesIn",
          "name": "payFeesIn",
          "type": "uint8"
        }
      ],
      "name": "sendArbitrationRequest",
      "outputs": [
        {
          "internalType": "bytes32",
          "name": "messageId",
          "type": "bytes32"
        }
      ],
      "stateMutability": "payable",
      "type": "function"
    },
    {
      "inputs": [
        {
          "internalType": "address",
          "name": "contractAddr",
          "type": "address"
        },
        {
          "internalType": "bool",
          "name": "authorized",
          "type": "bool"
        }
      ],
      "name": "setContractAuthorization",
      "outputs": [],
      "stateMutability": "nonpayable",
      "type": "function"
    },
    {
      "inputs": [
        {
          "internalType": "uint64",
          "name": "_oracleChainSelector",
          "type": "uint64"
        },
        {
          "internalType": "address",
          "name": "_oracleReceiver",
          "type": "address"
        }
      ],
      "name": "updateOracleConfig",
      "outputs": [],
      "stateMutability": "nonpayable",
      "type": "function"
    },
    {
      "inputs": [
        {
          "internalType": "address",
          "name": "to",
          "type": "address"
        }
      ],
      "name": "withdrawNative",
      "outputs": [],
      "stateMutability": "nonpayable",
      "type": "function"
    },
    {
      "inputs": [
        {
          "internalType": "address",
          "name": "token",
          "type": "address"
        },
        {
          "internalType": "address",
          "name": "to",
          "type": "address"
        },
        {
          "internalType": "uint256",
          "name": "amount",
          "type": "uint256"
        }
      ],
      "name": "withdrawToken",
      "outputs": [],
      "stateMutability": "nonpayable",
      "type": "function"
    },
    {
      "stateMutability": "payable",
      "type": "receive"
    }
  ],
  "bytecode": "0x60c034620001f457601f6200193038819003918201601f1916830192916001600160401b039182851184861017620001f9578160809285926040978852833981010312620001f45762000052826200020f565b62000060602084016200020f565b9284810151928316809303620001f45760606200007e91016200020f565b926001600160a01b03918216908115620001bf5782169182156200018657841615620001425760805260a052600080546001600160e01b0319169190911791831b600160401b600160e01b0316919091179055600180546001600160a01b031916331790555161170b90816200022582396080518181816102f70152818161062b01528181610dee01528181610ea10152610f57015260a051818181610290015281816105c2015281816106b401528181610d7501528181610e640152610ee40152f35b845162461bcd60e51b815260206004820152601760248201527f496e76616c6964206f7261636c652072656365697665720000000000000000006044820152606490fd5b855162461bcd60e51b815260206004820152601260248201527124b73b30b634b2102624a725903a37b5b2b760711b6044820152606490fd5b855162461bcd60e51b815260206004820152600e60248201526d24b73b30b634b2103937baba32b960911b6044820152606490fd5b600080fd5b634e487b7160e01b600052604160045260246000fd5b51906001600160a01b0382168203620001f45756fe6080604052600436101561001b575b361561001957600080fd5b005b60003560e01c806301e336671461123957806306d9f63714610b985780632795ad2014610a655780632adf05a514610a3e5780632f622e6b1461098e5780633622d37a146108aa5780633f35ad38146103b35780636c6d6ded1461038857806374b65491146101d55780638da5cb5b146101ac578063ce0fa5a91461017b578063d5b9221b1461013c5763f60ccc860361000e5734610137576040366003190112610137576100c86112e6565b7f3213ab8ec2ed122402f038736b41878b69ae9f61f49a7edd0666bce891d29fc960206100f361142b565b60015490936001600160a01b039161010e9083163314611645565b1692836000526002825260406000209015159060ff1981541660ff8316179055604051908152a2005b600080fd5b34610137576020366003190112610137576001600160a01b0361015d6112e6565b166000526002602052602060ff604060002054166040519015158152f35b34610137576020366003190112610137576004356000526004602052602060ff604060002054166040519015158152f35b34610137576000366003190112610137576001546040516001600160a01b039091168152602090f35b3461013757602080600319360112610137576004356002811015610137576000549060405160018060a01b03808460401c168583015284825261021782611379565b604051928580850152600660408501526573616d706c6560d01b60608501526060845260808401946001600160401b03918587108388111761037257838896886102f39960405261026781611394565b60008152600161028760405161027c81611394565b620493e081526116be565b940361036a57827f000000000000000000000000000000000000000000000000000000000000000016915b604051986102bf8a6113af565b89528989015260408801521660608601526080850152604051958694859384936320487ded60e01b85521660048401611518565b03917f0000000000000000000000000000000000000000000000000000000000000000165afa90811561035e57600091610331575b50604051908152f35b90508181813d8311610357575b61034881836113ca565b81010312610137575182610328565b503d61033e565b6040513d6000823e3d90fd5b6000916102b2565b634e487b7160e01b600052604160045260246000fd5b34610137576000366003190112610137576000546040805191901c6001600160a01b03168152602090f35b60e0366003190112610137576103c761142b565b6064356001600160a01b0381168103610137576084356001600160401b038111610137576103f9903690600401611312565b600260c49492943510156101375733600052600260205261042160ff6040600020541661143a565b604051936101208501918583106001600160401b038411176103725761046e9260405260043586528315156020870152604435604087015260018060a01b0385166060870152369161149b565b608084015260a43560a08401524260c0840152600060e0840152600061010084015261052b6040518094602080830152805160408301526020810151151560608301526040810151608083015260018060a01b0360608201511660a08301526101006104eb608083015161012060c08601526101608501906113eb565b60a083015160e08581019190915260c0840151838601528301516001600160a01b031661012085015291015161014083015203601f1981018552846113ca565b6040519261053884611379565b6001845260208401526000549261057c61058a6040519260018060a01b038760401c1660208501526020845261056d84611379565b604051928391602083016114d2565b03601f1981018352826113ca565b6040519061059782611394565b600082526105b56040516105aa81611394565b62061a8081526116be565b9160c4356001036108a2577f00000000000000000000000000000000000000000000000000000000000000006001600160a01b0316915b604051946105f9866113af565b85526020850152604084015260018060a01b0316606083015260808201528060206001600160401b0360018060a01b037f0000000000000000000000000000000000000000000000000000000000000000169661066b60405195869384936320487ded60e01b85521660048401611518565b0381885afa91821561035e5760009261086e575b5060c435600103610856576040516323b872dd60e01b8152336004820152306024820152604481018390526001600160a01b037f000000000000000000000000000000000000000000000000000000000000000016959060208160648160008b5af1801561035e57610837575b5060405163095ea7b360e01b81526001600160a01b03821660048201526024810184905295602090879060449082906000905af192831561035e576107669660209461080a575b505b60c435610802575b6001600160401b0360005416906040518098819582946396f4e9f960e01b845260048401611518565b03925af191821561035e576000926107cd575b602093506040519160443583521515848301526000604083015260018060a01b031690827ff2e41076d89cbeedf9849a23c048b57e5efb721e3dfaddbd779f5b764f84edd8606060043593a4604051908152f35b91506020833d6020116107fa575b816107e8602093836113ca565b81010312610137576020925191610779565b3d91506107db565b50600061073d565b61082990853d8711610830575b61082181836113ca565b81019061162d565b5087610733565b503d610817565b61084f9060203d6020116108305761082181836113ca565b50866106ec565b61076694826108696020943410156115e1565b610735565b9091506020813d60201161089a575b8161088a602093836113ca565b810103126101375751908561067f565b3d915061087d565b6000916105ec565b34610137576040366003190112610137576004356001600160401b038116809103610137576108d76112fc565b6001546001600160a01b03906108f09082163314611645565b811691821561094f57600080546001600160e01b0319168217604093841b600160401b600160e01b0316179055815190815260208101929092527f3a367dffbb145d685eb81231beded46a9f817df2434b0c66d406309726876f5691a1005b60405162461bcd60e51b815260206004820152601760248201527624b73b30b634b21037b930b1b632903932b1b2b4bb32b960491b6044820152606490fd5b346101375760203660031901126101375760008080806109ac6112e6565b6109ce60018060a01b036109c581600154163314611645565b8216151561167e565b47905af13d15610a39573d6109e281611480565b906109f060405192836113ca565b8152600060203d92013e5b15610a0257005b60405162461bcd60e51b815260206004820152600f60248201526e151c985b9cd9995c8819985a5b1959608a1b6044820152606490fd5b6109fb565b346101375760003660031901126101375760206001600160401b0360005416604051908152f35b346101375760208060031936011261013757600435600052600381526040600020805460018060a01b03916001928084830154169060028301549060038401541660048401549060058501926040519389600099825492610ac58461133f565b80895293828116908115610b755750600114610b37575b50505050610af284610b289697989903856113ca565b6007600688015497015495604051998a998a528901526040880152606087015260808601526101008060a08701528501906113eb565b9160c084015260e08301520390f35b6000908152828120929b5092915b828410610b6257505050840190970196610af289610b2886610adc565b80548885018d0152928b01928101610b45565b60ff1916848a015250505090151560051b8501019750610af289610b2886610adc565b60e036600319011261013757610bac6112fc565b6084356001600160401b03811161013757610bcb903690600401611312565b9091600260c435101561013757336000526002602052610bf260ff6040600020541661143a565b604051926101008401908482106001600160401b0383111761037257610d3b93610c4992604052600435865260018060a01b038416602087015260443560408701523360608701526064356080870152369161149b565b60a084015260a43560c08401524260e08401526040516020808201528351604082015260018060a01b0360208501511660608201526040840151608082015260018060a01b0360608501511660a0820152608084015160c0820152610ce781610cc360a087015161010060e08401526101408301906113eb565b60c087015161010083015260e087015161012083015203601f1981018352826113ca565b60405190610cf482611379565b60008252602082015260206001600160401b03600054610d496040519460018060a01b038360401c1685870152848652610d2d86611379565b6040519788918683016114d2565b03601f1981018852876113ca565b604051610d5581611394565b60008152610d6860405161027c81611394565b9060c435600103611231577f00000000000000000000000000000000000000000000000000000000000000006001600160a01b0316905b604051988997610dae896113af565b885286880152604087015260018060a01b031660608601526080850152610dea60405194859384936320487ded60e01b85521660048401611518565b03817f00000000000000000000000000000000000000000000000000000000000000006001600160a01b03165afa90811561035e576000916111ff575b5060c4356001036111e7576040516323b872dd60e01b81523360048201523060248201526044810182905260208160648160006001600160a01b037f0000000000000000000000000000000000000000000000000000000000000000165af1801561035e576111c8575b5060405163095ea7b360e01b81527f00000000000000000000000000000000000000000000000000000000000000006001600160a01b0316600482015260248101829052926020848060448101038160007f00000000000000000000000000000000000000000000000000000000000000006001600160a01b03165af191821561035e57610f53946020936111ab575b505b60c4356111a3575b6001600160401b03600054166040518096819482936396f4e9f960e01b845260048401611518565b03917f00000000000000000000000000000000000000000000000000000000000000006001600160a01b03165af191821561035e5760009261116f575b508160005260036020526040600020835181556001810160018060a01b036020860151169060018060a01b0319918282541617905560408501516002830155600382019060018060a01b03606087015116908254161790556080840151600482015560a08401519384516001600160401b03811161037257611015600584015461133f565b95601f8711611128575b602096508690601f83116001146110b55791806007949260e0946000926110aa575b50508160011b916000199060031b1c19161760058501555b60c08101516006850155015191015560405190604435825260018060a01b031690827f05057bfa15ec9aff5757f295c4220d2acfafda187102d1f7b7529373b73a8edb8560043593a4604051908152f35b015190508980611041565b9060058501600052876000209160005b601f19851681106111115750926007949260019260e09583601f198116106110f8575b505050811b016005850155611059565b015160001960f88460031b161c191690558980806110e8565b9192896001819286850151815501940192016110c5565b600584016000526020600020601f830160051c810160208410611168575b601f890160051c8201811061115c57505061101f565b60008155600101611146565b5080611146565b9091506020813d60201161119b575b8161118b602093836113ca565b8101031261013757519083610f90565b3d915061117e565b506000610f2b565b6111c190843d86116108305761082181836113ca565b5086610f21565b6111e09060203d6020116108305761082181836113ca565b5084610e91565b610f5392816111fa6020933410156115e1565b610f23565b90506020813d602011611229575b8161121a602093836113ca565b81010312610137575184610e27565b3d915061120d565b600090610d9f565b34610137576060366003190112610137576112526112e6565b60206112be61125f6112fc565b6001546001600160a01b0394919061127a9086163314611645565b611287858216151561167e565b60405163a9059cbb60e01b81526001600160a01b039091166004820152604480356024830152909485938492600092918491820190565b0393165af1801561035e576112cf57005b6100199060203d81116108305761082181836113ca565b600435906001600160a01b038216820361013757565b602435906001600160a01b038216820361013757565b9181601f84011215610137578235916001600160401b038311610137576020838186019501011161013757565b90600182811c9216801561136f575b602083101461135957565b634e487b7160e01b600052602260045260246000fd5b91607f169161134e565b604081019081106001600160401b0382111761037257604052565b602081019081106001600160401b0382111761037257604052565b60a081019081106001600160401b0382111761037257604052565b90601f801991011681019081106001600160401b0382111761037257604052565b919082519283825260005b848110611417575050826000602080949584010152601f8019910116010190565b6020818301810151848301820152016113f6565b60243590811515820361013757565b1561144157565b60405162461bcd60e51b815260206004820152601760248201527610dbdb9d1c9858dd081b9bdd08185d5d1a1bdc9a5e9959604a1b6044820152606490fd5b6001600160401b03811161037257601f01601f191660200190565b9291926114a782611480565b916114b560405193846113ca565b829481845281830111610137578281602093846000960137010152565b6020815281519160038310156115025760206060916114ff948285015201519160408082015201906113eb565b90565b634e487b7160e01b600052602160045260246000fd5b906001600160401b039093929316815260406020918183820152611547855160a08484015260e08301906113eb565b916115638487015193603f1994858583030160608601526113eb565b8187015194848483030160808501528080875193848152019601926000905b8382106115b857505050505060c060806114ff959660018060a01b0360608201511660a0850152015192828503019101526113eb565b845180516001600160a01b03168952830151888401529687019693820193600190910190611582565b156115e857565b60405162461bcd60e51b815260206004820152601c60248201527f496e73756666696369656e74206e617469766520666f722066656573000000006044820152606490fd5b90816020910312610137575180151581036101375790565b1561164c57565b60405162461bcd60e51b815260206004820152600a60248201526927b7363c9037bbb732b960b11b6044820152606490fd5b1561168557565b60405162461bcd60e51b8152602060048201526011602482015270125b9d985b1a59081c9958da5c1a595b9d607a1b6044820152606490fd5b60405190516020820152602081526114ff8161137956fea2646970667358221220e474d4203c4ddbfc542e5108b5857fc127c94b5f76f1ac5e67a83b97c9b0269b64736f6c63430008140033",
  "linkReferences": {},
  "deployedLinkReferences": {}
}