{
  "_format": "hh-sol-artifact-1",
  "contractName": "FailingService",
  "sourceName": "contracts/mocks/FailingService.sol",
  "abi": [
    {
      "anonymous": false,
      "inputs": [
        {
          "indexed": false,
          "internalType": "bytes32",
          "name": "messageId",
          "type": "bytes32"
        }
      ],
      "name": "Called",
      "type": "event"
    },
    {
      "inputs": [
        {
          "internalType": "address",
          "name": "",
          "type": "address"
        },
        {
          "internalType": "bool",
          "name": "",
          "type": "bool"
        }
      ],
      "name": "authorizeCCIPReceiver",
      "outputs": [],
      "stateMutability": "nonpayable",
      "type": "function"
    },
    {
      "inputs": [
        {
          "internalType": "bytes32",
          "name": "",
          "type": "bytes32"
        },
        {
          "internalType": "address",
          "name": "",
          "type": "address"
        },
        {
          "internalType": "uint256",
          "name": "",
          "type": "uint256"
        },
        {
          "internalType": "bytes",
          "name": "",
          "type": "bytes"
        }
      ],
      "name": "receiveCCIPDecisionRaw",
      "outputs": [],
      "stateMutability": "pure",
      "type": "function"
    }
  ],
  "bytecode": "0x6080806040523461001657610157908161001c8239f35b600080fdfe6080604052600436101561001257600080fd5b6000803560e01c908163ae4a96c11461003a575063e52b09231461003557600080fd5b6100ad565b3461008b57608036600319011261008b57610053610092565b5060643567ffffffffffffffff80821161008e573660238301121561008e57816004013590811161008e5736910160240111156100dd575b80fd5b8280fd5b602435906001600160a01b03821682036100a857565b600080fd5b346100a85760403660031901126100a8576004356001600160a01b038116036100a857602435801515036100a857005b604051602081019060008252600181526040810181811067ffffffffffffffff82111761010b576040525190f35b634e487b7160e01b600052604160045260246000fdfea2646970667358221220c604d1abe12b0e86cd70c7ce808c475d099ba9a59321ba79e5f4f9206249770b64736f6c63430008140033",
  "linkReferences": {},
  "deployedLinkReferences": {}
}