{
  "_format": "hh-sol-artifact-1",
  "contractName": "MockCCIPRouter",
  "sourceName": "contracts/mocks/MockCCIPRouter.sol",
  "abi": [
    {
      "inputs": [
        {
          "internalType": "uint256",
          "name": "_fixedFee",
          "type": "uint256"
        }
      ],
      "stateMutability": "nonpayable",
      "type": "constructor"
    },
    {
      "anonymous": false,
      "inputs": [
        {
          "indexed": true,
          "internalType": "bytes32",
          "name": "messageId",
          "type": "bytes32"
        },
        {
          "indexed": false,
          "internalType": "uint64",
          "name": "chainSelector",
          "type": "uint64"
        },
        {
          "indexed": false,
          "internalType": "address",
          "name": "sender",
          "type": "address"
        }
      ],
      "name": "CCIPSent",
      "type": "event"
    },
    {
      "inputs": [
        {
          "internalType": "uint64",
          "name": "",
          "type": "uint64"
        },
        {
          "components": [
            {
              "internalType": "bytes",
              "name": "receiver",
              "type": "bytes"
            },
            {
              "internalType": "bytes",
              "name": "data",
              "type": "bytes"
            },
            {
              "components": [
                {
                  "internalType": "address",
                  "name": "token",
                  "type": "address"
                },
                {
                  "internalType": "uint256",
                  "name": "amount",
                  "type": "uint256"
                }
              ],
              "internalType": "struct Client.EVMTokenAmount[]",
              "name": "tokenAmounts",
              "type": "tuple[]"
            },
            {
              "internalType": "address",
              "name": "feeToken",
              "type": "address"
            },
            {
              "internalType": "bytes",
              "name": "extraArgs",
              "type": "bytes"
            }
          ],
          "internalType": "struct Client.EVM2AnyMessage",
          "name": "message",
          "type": "tuple"
        }
      ],
      "name": "ccipSend",
      "outputs": [
        {
          "internalType": "bytes32",
          "name": "",
          "type": "bytes32"
        }
      ],
      "stateMutability": "payable",
      "type": "function"
    },
    {
      "inputs": [],
      "name": "fixedFee",
      "outputs": [
        {
          "internalType": "uint256",
          "name": "",
          "type": "uint256"
        }
      ],
      "stateMutability": "view",
      "type": "function"
    },
    {
      "inputs": [
        {
          "internalType": "uint64",
          "name": "",
          "type": "uint64"
        },
        {
          "components": [
            {
              "internalType": "bytes",
              "name": "receiver",
              "type": "bytes"
            },
            {
              "internalType": "bytes",
              "name": "data",
              "type": "bytes"
            },
            {
              "components": [
                {
                  "internalType": "address",
                  "name": "token",
                  "type": "address"
                },
                {
                  "internalType": "uint256",
                  "name": "amount",
                  "type": "uint256"
                }
              ],
              "internalType": "struct Client.EVMTokenAmount[]",
              "name": "tokenAmounts",
              "type": "tuple[]"
            },
            {
              "internalType": "address",
              "name": "feeToken",
              "type": "address"
            },
            {
              "internalType": "bytes",
              "name": "extraArgs",
              "type": "bytes"
            }
          ],
          "internalType": "struct Client.EVM2AnyMessage",
          "name": "",
          "type": "tuple"
        }
      ],
      "name": "getFee",
      "outputs": [
        {
          "internalType": "uint256",
          "name": "",
          "type": "uint256"
        }
      ],
      "stateMutability": "view",
      "type": "function"
    },
    {
      "inputs": [
        {
          "internalType": "uint256",
          "name": "f",
          "type": "uint256"
        }
      ],
      "name": "setFixedFee",
      "outputs": [],
      "stateMutability": "nonpayable",
      "type": "function"
    },
    {
      "inputs": [
        {
          "internalType": "address",
          "name": "receiver",
          "type": "address"
        },
        {
          "internalType": "bytes32",
          "name": "messageId",
          "type": "bytes32"
        },
        {
          "internalType": "uint64",
          "name": "sourceChainSelector",
          "type": "uint64"
        },
        {
          "internalType": "address",
          "name": "requestSender",
          "type": "address"
        },
        {
          "internalType": "bytes32",
          "name": "disputeId",
          "type": "bytes32"
        },
        {
          "internalType": "bool",
          "name": "approved",
          "type": "bool"
        },
        {
          "internalType": "uint256",
          "name": "appliedAmount",
          "type": "uint256"
        },
        {
          "internalType": "address",
          "name": "beneficiary",
          "type": "address"
        },
        {
          "internalType": "string",
          "name": "rationale",
          "type": "string"
        },
        {
          "internalType": "bytes32",
          "name": "oracleId",
          "type": "bytes32"
        },
        {
          "internalType": "address",
          "name": "targetContract",
          "type": "address"
        },
        {
          "internalType": "uint256",
          "name": "caseId",
          "type": "uint256"
        }
      ],
      "name": "simulateDecisionTo",
      "outputs": [],
      "stateMutability": "nonpayable",
      "type": "function"
    }
  ],
  "bytecode": "0x60803461005157601f6107e938819003918201601f19168301916001600160401b0383118484101761005657808492602094604052833981010312610051575160005560405161077c908161006d8239f35b600080fd5b634e487b7160e01b600052604160045260246000fdfe6080604052600436101561001257600080fd5b6000803560e01c90816320487ded1461008157816337de81061461006557508063600d21121461006057806391792d5b1461005b576396f4e9f91461005657600080fd5b610227565b610209565b610175565b3461007e57602036600319011261007e57600435815580f35b80fd5b3461007e5761008f366100b6565b50505460805260206080f35b604435906001600160401b03821682036100b157565b600080fd5b60031991906040838201126100b1576001600160401b039060043582811681036100b157936024359283116100b1578260a0920301126100b15760040190565b606435906001600160a01b03821682036100b157565b60e435906001600160a01b03821682036100b157565b61014435906001600160a01b03821682036100b157565b60a4359081151582036100b157565b9181601f840112156100b1578235916001600160401b0383116100b157602083818601950101116100b157565b346100b1576101803660031901126100b1576004356001600160a01b03811681036100b1576101a261009b565b906101ab6100f6565b6101b3610139565b906101bc61010c565b61010435946001600160401b0386116100b1576101e0610207963690600401610148565b9290916101eb610122565b956101643597610124359660c435936084359260243590610564565b005b346100b15760003660031901126100b1576020600054604051908152f35b610230366100b6565b905060405160208101914283523360601b60408301523060601b60548301526048825260808201918083106001600160401b038411176102eb577fa2230163c4d7f38a9f771c67a51cc6562a0277fc3d97ae85b7a66a916d87286a60406102cc95858252835190209485936000825260a033910152a260146102b28280610327565b905010156102d0575b506040519081529081906020820190565b0390f35b6102dd816102e492610327565b36916103b3565b50386102bb565b634e487b7160e01b600052604160045260246000fd5b90601f801991011681019081106001600160401b0382111761032257604052565b6102eb565b903590601e19813603018212156100b157018035906001600160401b0382116100b1576020019181360383136100b157565b6040519061012082018281106001600160401b0382111761032257604052565b60405190604082018281106001600160401b0382111761032257604052565b6001600160401b03811161032257601f01601f191660200190565b9291926103bf82610398565b916103cd6040519384610301565b8294818452818301116100b1578281602093846000960137010152565b919082519283825260005b848110610416575050826000602080949584010152601f8019910116010190565b6020818301810151848301820152016103f5565b60208082528251828201528201511515604082015260408201516060828101919091528201516001600160a01b03166080820152608082015161047b610120918260a08501526101408401906103ea565b9260a081015160c084015260c081015160e084015260e0810151906104ad610100928386019060018060a01b03169052565b015191015290565b6020815281519160038310156104e55760206060916104e2948285015201519160408082015201906103ea565b90565b634e487b7160e01b600052602160045260246000fd5b926001600160401b036104e295936105269386521660208501526080604085015260808401906103ea565b9160608184039101526103ea565b3d1561055f573d9061054582610398565b916105536040519384610301565b82523d6000602084013e565b606090565b9890969b949a9397919992959b610579610359565b98895260209b8c8a019061058e919015159052565b60408981019d909d526001600160a01b0316606089015236906105b0926103b3565b608087015260a08601524260c08601526001600160a01b031660e085015261010084015286518093878201906105e59161042a565b0391601f199283810185526105fa9085610301565b610602610379565b60018152938488015287516001600160a01b0390921682880190815282906020010383810183526106339083610301565b8751819080610644878b83016104b5565b0385810182526106549082610301565b8951918291858a8c850193610668946104fb565b03848101825261067791610301565b8751809488820190610688916104b5565b0383810185526106989085610301565b87519384928884019763c32a183360e01b895260248501936106b9946104fb565b0390810182526106c99082610301565b515a9260008094938194f1906106dd610534565b91156106e857505050565b8151918261074357835162461bcd60e51b815260206004820152602660248201527f73696d756c6174654465636973696f6e3a2072656365697665722063616c6c2060448201526519985a5b195960d21b6064820152608490fd5b01fdfea264697066735822122076e20f05fbe4a82b48192151896b538c2f39dd0868bce4cca1b5852f65e00a0064736f6c63430008140033",
  "linkReferences": {},
  "deployedLinkReferences": {}
}