{
  "_format": "hh-sol-artifact-1",
  "contractName": "MockV3Aggregator",
  "sourceName": "contracts/mocks/MockV3Aggregator.sol",
  "abi": [
    {
      "inputs": [
        {
          "internalType": "uint8",
          "name": "decimals_",
          "type": "uint8"
        },
        {
          "internalType": "int256",
          "name": "initialAnswer",
          "type": "int256"
        }
      ],
      "stateMutability": "nonpayable",
      "type": "constructor"
    },
    {
      "inputs": [],
      "name": "decimals",
      "outputs": [
        {
          "internalType": "uint8",
          "name": "",
          "type": "uint8"
        }
      ],
      "stateMutability": "view",
      "type": "function"
    },
    {
      "inputs": [],
      "name": "description",
      "outputs": [
        {
          "internalType": "string",
          "name": "",
          "type": "string"
        }
      ],
      "stateMutability": "pure",
      "type": "function"
    },
    {
      "inputs": [],
      "name": "latestRoundData",
      "outputs": [
        {
          "internalType": "uint80",
          "name": "roundId",
          "type": "uint80"
        },
        {
          "internalType": "int256",
          "name": "answer",
          "type": "int256"
        },
        {
          "internalType": "uint256",
          "name": "startedAt",
          "type": "uint256"
        },
        {
          "internalType": "uint256",
          "name": "updatedAt",
          "type": "uint256"
        },
        {
          "internalType": "uint80",
          "name": "answeredInRound",
          "type": "uint80"
        }
      ],
      "stateMutability": "view",
      "type": "function"
    },
    {
      "inputs": [
        {
          "internalType": "int256",
          "name": "newAnswer",
          "type": "int256"
        }
      ],
      "name": "updateAnswer",
      "outputs": [],
      "stateMutability": "nonpayable",
      "type": "function"
    },
    {
      "inputs": [],
      "name": "version",
      "outputs": [
        {
          "internalType": "uint256",
          "name": "",
          "type": "uint256"
        }
      ],
      "stateMutability": "pure",
      "type": "function"
    }
  ],
  "bytecode": "0x60803461009057601f6102dc38819003918201601f19168301916001600160401b038311848410176100955780849260409485528339810103126100905780519060ff821680920361009057602001519060ff1960005416176000556001556001808060501b0319818160025416176002554260035542600455600554161760055560405161023090816100ac8239f35b600080fd5b634e487b7160e01b600052604160045260246000fdfe608060408181526004908136101561001657600080fd5b600092833560e01c908163313ce567146101dd5750806354fd4d50146101c15780637284e4161461011a578063a87a20ce146100ac5763feaf968c1461005b57600080fd5b346100a857826003193601126100a85760a0925069ffffffffffffffffffff8060025416926001549260035491549260055416938151958652602086015284015260608301526080820152f35b8280fd5b50503461011657602036600319011261011657803560015560025469ffffffffffffffffffff6001818316018181116101035716918269ffffffffffffffffffff1980931617600255429055600554161760055580f35b634e487b7160e01b855260118452602485fd5b5080fd5b5090346100a857826003193601126100a8578151908282019082821067ffffffffffffffff8311176101ae57508252601081526020906f26b7b1b5ab19a0b3b3b932b3b0ba37b960811b8282015282519382859384528251928382860152825b84811061019857505050828201840152601f01601f19168101030190f35b818101830151888201880152879550820161017a565b634e487b7160e01b855260419052602484fd5b8382346101165781600319360112610116576020905160018152f35b84903461011657816003193601126101165760ff60209254168152f3fea26469706673582212207e327df8138e4ba356e5a2dd5c71a3cccbfcefa1ba2d0e5e5d5853977f5225a664736f6c63430008140033",
  "linkReferences": {},
  "deployedLinkReferences": {}
}