{
  "_format": "hh-sol-artifact-1",
  "contractName": "MockTarget",
  "sourceName": "contracts/mocks/MockTarget.sol",
  "abi": [
    {
      "anonymous": false,
      "inputs": [
        {
          "indexed": true,
          "internalType": "uint256",
          "name": "caseId",
          "type": "uint256"
        },
        {
          "indexed": false,
          "internalType": "bool",
          "name": "approved",
          "type": "bool"
        },
        {
          "indexed": false,
          "internalType": "uint256",
          "name": "appliedAmount",
          "type": "uint256"
        },
        {
          "indexed": false,
          "internalType": "address",
          "name": "beneficiary",
          "type": "address"
        }
      ],
      "name": "ServiceResolved",
      "type": "event"
    },
    {
      "inputs": [
        {
          "internalType": "uint256",
          "name": "caseId",
          "type": "uint256"
        }
      ],
      "name": "getResolution",
      "outputs": [
        {
          "internalType": "uint256",
          "name": "",
          "type": "uint256"
        },
        {
          "internalType": "bool",
          "name": "",
          "type": "bool"
        },
        {
          "internalType": "uint256",
          "name": "",
          "type": "uint256"
        },
        {
          "internalType": "address",
          "name": "",
          "type": "address"
        },
        {
          "internalType": "string",
          "name": "",
          "type": "string"
        }
      ],
      "stateMutability": "view",
      "type": "function"
    },
    {
      "inputs": [
        {
          "internalType": "uint256",
          "name": "",
          "type": "uint256"
        }
      ],
      "name": "resolutions",
      "outputs": [
        {
          "internalType": "uint256",
          "name": "caseId",
          "type": "uint256"
        },
        {
          "internalType": "bool",
          "name": "approved",
          "type": "bool"
        },
        {
          "internalType": "uint256",
          "name": "appliedAmount",
          "type": "uint256"
        },
        {
          "internalType": "address",
          "name": "beneficiary",
          "type": "address"
        },
        {
          "internalType": "string",
          "name": "rationale",
          "type": "string"
        }
      ],
      "stateMutability": "view",
      "type": "function"
    },
    {
      "inputs": [
        {
          "internalType": "uint256",
          "name": "caseId",
          "type": "uint256"
        },
        {
          "internalType": "bool",
          "name": "approve",
          "type": "bool"
        },
        {
          "internalType": "uint256",
          "name": "appliedAmount",
          "type": "uint256"
        },
        {
          "internalType": "address",
          "name": "beneficiary",
          "type": "address"
        },
        {
          "internalType": "string",
          "name": "classification",
          "type": "string"
        },
        {
          "internalType": "string",
          "name": "rationale",
          "type": "string"
        }
      ],
      "name": "resolveDisputeFinal",
      "outputs": [],
      "stateMutability": "payable",
      "type": "function"
    },
    {
      "inputs": [
        {
          "internalType": "uint256",
          "name": "caseId",
          "type": "uint256"
        },
        {
          "internalType": "bool",
          "name": "approve",
          "type": "bool"
        },
        {
          "internalType": "uint256",
          "name": "appliedAmount",
          "type": "uint256"
        },
        {
          "internalType": "address",
          "name": "beneficiary",
          "type": "address"
        }
      ],
      "name": "serviceResolve",
      "outputs": [],
      "stateMutability": "payable",
      "type": "function"
    }
  ],
  "bytecode": "0x60808060405234610016576107be908161001c8239f35b600080fdfe608080604052600436101561001357600080fd5b60003560e01c90816302fae73f146103675750806362708a91146100af578063a4b7f5ce1461004b5763d565a5331461004b57600080fd5b346100aa5760203660031901126100aa576004356000526000602052604060002080546100a660ff60018401541692600281015490610099600460018060a01b036003840154169201610656565b91604051958695866106fc565b0390f35b600080fd5b60c03660031901126100aa576100c361058b565b6100cb61059a565b60843567ffffffffffffffff81116100aa576100eb9036906004016105b0565b505060a43567ffffffffffffffff81116100aa5761010d9036906004016105b0565b6040519061011a82610618565b6004358252841515602083015260443560408301526001600160a01b038416606083015267ffffffffffffffff81116103515760405192610165601f8301601f191660200185610634565b81845236828201116100aa5781600092602092838701378401015260808101918252600435600052600060205260046040600020825181556001928382016020820151151560ff80198354169116179055604081015160028301556003820190606060018060a01b039101511660018060a01b03198254161790550191519081519167ffffffffffffffff83116103515761020084546105de565b601f8111610306575b50602090601f841160011461028a57928061027a95938193600080516020610769833981519152989660009461027f575b50501b916000199060031b1c19161790555b60408051941515855260443560208601526001600160a01b0390911690840152600435929081906060820190565b0390a2005b01519250898061023a565b90601f939293198316918560005260206000209260005b8181106102f0575091600080516020610769833981519152979593918561027a989694106102d7575b505050811b01905561024c565b015160001960f88460031b161c191690558780806102ca565b82840151855593860193602093840193016102a1565b846000526020600020601f850160051c81019160208610610347575b601f0160051c019083905b82811061033b575050610209565b6000815501839061032d565b9091508190610322565b634e487b7160e01b600052604160045260246000fd5b60803660031901126100aa5760043561037e61058b565b6044359061038a61059a565b61039385610618565b83855260209485810183151581526040820190858252606083019260018060a01b03908186168552604051948a86019267ffffffffffffffff95878510878611176103515760049460405260008852608084019788528b60005260008d526040600020935184556001958685019051151560ff801983541691161790555160028401556003830191511660018060a01b03198254161790550192519788519283116103515761044284546105de565b601f8111610542575b5080601f84116001146104c457509180809261027a9695946000805160206107698339815191529a9b6000946104b9575b50501b916000199060031b1c19161790555b60408051931515845260208401949094526001600160a01b0316928201929092529081906060820190565b015192508b8061047c565b91939498601f1984168660005283600020936000905b82821061052b57505091600080516020610769833981519152999a9593918561027a98969410610512575b505050811b01905561048e565b015160001960f88460031b161c19169055898080610505565b8088869782949787015181550196019401906104da565b8460005281600020601f850160051c810191838610610581575b601f0160051c019083905b82811061057557505061044b565b60008155018390610567565b909150819061055c565b6024359081151582036100aa57565b606435906001600160a01b03821682036100aa57565b9181601f840112156100aa5782359167ffffffffffffffff83116100aa57602083818601950101116100aa57565b90600182811c9216801561060e575b60208310146105f857565b634e487b7160e01b600052602260045260246000fd5b91607f16916105ed565b60a0810190811067ffffffffffffffff82111761035157604052565b90601f8019910116810190811067ffffffffffffffff82111761035157604052565b906040519182600082549261066a846105de565b9081845260019485811690816000146106d95750600114610696575b505061069492500383610634565b565b9093915060005260209081600020936000915b8183106106c157505061069493508201013880610686565b855488840185015294850194879450918301916106a9565b91505061069494506020925060ff191682840152151560051b8201013880610686565b9391959492908452602095151586850152604084015260018060a01b0316606083015260a060808301528051908160a084015260005b82811061075457505060c09293506000838284010152601f8019910116010190565b81810186015184820160c00152850161073256fe8ebb995972edfef80080c913725a634dc9b4603b8c6ca9e9c001c885521816b8a264697066735822122039b6511544ece364b375e00ea55ddcf31b255491d20662b8eeb1f3c5cd6584e364736f6c63430008140033",
  "linkReferences": {},
  "deployedLinkReferences": {}
}