{
  "_format": "hh-sol-artifact-1",
  "contractName": "RecipientKeyRegistry",
  "sourceName": "contracts/RecipientKeyRegistry.sol",
  "abi": [
    {
      "inputs": [],
      "stateMutability": "nonpayable",
      "type": "constructor"
    },
    {
      "inputs": [],
      "name": "InvalidPublicKey",
      "type": "error"
    },
    {
      "inputs": [],
      "name": "KeyAlreadyRevoked",
      "type": "error"
    },
    {
      "inputs": [],
      "name": "KeyExpiredError",
      "type": "error"
    },
    {
      "inputs": [],
      "name": "KeyLifetimeOutOfRange",
      "type": "error"
    },
    {
      "inputs": [],
      "name": "KeyNotFound",
      "type": "error"
    },
    {
      "inputs": [],
      "name": "NoActiveKey",
      "type": "error"
    },
    {
      "inputs": [],
      "name": "NotKeyOwner",
      "type": "error"
    },
    {
      "inputs": [
        {
          "internalType": "address",
          "name": "owner",
          "type": "address"
        }
      ],
      "name": "OwnableInvalidOwner",
      "type": "error"
    },
    {
      "inputs": [
        {
          "internalType": "address",
          "name": "account",
          "type": "address"
        }
      ],
      "name": "OwnableUnauthorizedAccount",
      "type": "error"
    },
    {
      "anonymous": false,
      "inputs": [
        {
          "indexed": true,
          "internalType": "address",
          "name": "account",
          "type": "address"
        },
        {
          "indexed": false,
          "internalType": "uint256",
          "name": "oldKeyId",
          "type": "uint256"
        },
        {
          "indexed": false,
          "internalType": "uint256",
          "name": "newKeyId",
          "type": "uint256"
        }
      ],
      "name": "ActiveKeyChanged",
      "type": "event"
    },
    {
      "anonymous": false,
      "inputs": [
        {
          "indexed": true,
          "internalType": "address",
          "name": "account",
          "type": "address"
        },
        {
          "indexed": true,
          "internalType": "uint256",
          "name": "keyId",
          "type": "uint256"
        },
        {
          "indexed": false,
          "internalType": "bytes",
          "name": "publicKey",
          "type": "bytes"
        },
        {
          "indexed": false,
          "internalType": "uint256",
          "name": "validFrom",
          "type": "uint256"
        },
        {
          "indexed": false,
          "internalType": "uint256",
          "name": "validUntil",
          "type": "uint256"
        }
      ],
      "name": "KeyRegistered",
      "type": "event"
    },
    {
      "anonymous": false,
      "inputs": [
        {
          "indexed": true,
          "internalType": "address",
          "name": "account",
          "type": "address"
        },
        {
          "indexed": true,
          "internalType": "uint256",
          "name": "keyId",
          "type": "uint256"
        },
        {
          "indexed": false,
          "internalType": "string",
          "name": "reason",
          "type": "string"
        }
      ],
      "name": "KeyRevoked",
      "type": "event"
    },
    {
      "anonymous": false,
      "inputs": [
        {
          "indexed": true,
          "internalType": "address",
          "name": "account",
          "type": "address"
        },
        {
          "indexed": false,
          "internalType": "uint256",
          "name": "currentKeyId",
          "type": "uint256"
        },
        {
          "indexed": false,
          "internalType": "uint256",
          "name": "newKeyId",
          "type": "uint256"
        }
      ],
      "name": "KeyRotationRequested",
      "type": "event"
    },
    {
      "anonymous": false,
      "inputs": [
        {
          "indexed": true,
          "internalType": "address",
          "name": "previousOwner",
          "type": "address"
        },
        {
          "indexed": true,
          "internalType": "address",
          "name": "newOwner",
          "type": "address"
        }
      ],
      "name": "OwnershipTransferred",
      "type": "event"
    },
    {
      "inputs": [
        {
          "internalType": "address",
          "name": "",
          "type": "address"
        }
      ],
      "name": "activeKeyId",
      "outputs": [
        {
          "internalType": "uint256",
          "name": "",
          "type": "uint256"
        }
      ],
      "stateMutability": "view",
      "type": "function"
    },
    {
      "inputs": [
        {
          "internalType": "address[]",
          "name": "accounts",
          "type": "address[]"
        }
      ],
      "name": "batchGetActiveKeys",
      "outputs": [
        {
          "internalType": "bytes[]",
          "name": "publicKeys",
          "type": "bytes[]"
        },
        {
          "internalType": "uint256[]",
          "name": "keyIds",
          "type": "uint256[]"
        },
        {
          "internalType": "bool[]",
          "name": "isValids",
          "type": "bool[]"
        }
      ],
      "stateMutability": "view",
      "type": "function"
    },
    {
      "inputs": [],
      "name": "defaultKeyLifetime",
      "outputs": [
        {
          "internalType": "uint256",
          "name": "",
          "type": "uint256"
        }
      ],
      "stateMutability": "view",
      "type": "function"
    },
    {
      "inputs": [
        {
          "internalType": "address",
          "name": "account",
          "type": "address"
        },
        {
          "internalType": "uint256",
          "name": "keyId",
          "type": "uint256"
        },
        {
          "internalType": "string",
          "name": "reason",
          "type": "string"
        }
      ],
      "name": "emergencyRevokeKey",
      "outputs": [],
      "stateMutability": "nonpayable",
      "type": "function"
    },
    {
      "inputs": [
        {
          "internalType": "address",
          "name": "account",
          "type": "address"
        }
      ],
      "name": "getActiveKey",
      "outputs": [
        {
          "internalType": "bytes",
          "name": "publicKey",
          "type": "bytes"
        },
        {
          "internalType": "uint256",
          "name": "keyId",
          "type": "uint256"
        },
        {
          "internalType": "bool",
          "name": "isValid",
          "type": "bool"
        }
      ],
      "stateMutability": "view",
      "type": "function"
    },
    {
      "inputs": [
        {
          "internalType": "address",
          "name": "account",
          "type": "address"
        },
        {
          "internalType": "uint256",
          "name": "offset",
          "type": "uint256"
        },
        {
          "internalType": "uint256",
          "name": "limit",
          "type": "uint256"
        }
      ],
      "name": "getKeys",
      "outputs": [
        {
          "internalType": "uint256[]",
          "name": "keyIds",
          "type": "uint256[]"
        },
        {
          "internalType": "bytes[]",
          "name": "publicKeys",
          "type": "bytes[]"
        },
        {
          "internalType": "uint256[]",
          "name": "validFroms",
          "type": "uint256[]"
        },
        {
          "internalType": "uint256[]",
          "name": "validUntils",
          "type": "uint256[]"
        },
        {
          "internalType": "bool[]",
          "name": "revokeds",
          "type": "bool[]"
        },
        {
          "internalType": "string[]",
          "name": "metadatas",
          "type": "string[]"
        }
      ],
      "stateMutability": "view",
      "type": "function"
    },
    {
      "inputs": [
        {
          "internalType": "address",
          "name": "account",
          "type": "address"
        },
        {
          "internalType": "uint256",
          "name": "keyId",
          "type": "uint256"
        }
      ],
      "name": "isKeyValid",
      "outputs": [
        {
          "internalType": "bool",
          "name": "",
          "type": "bool"
        }
      ],
      "stateMutability": "view",
      "type": "function"
    },
    {
      "inputs": [
        {
          "internalType": "address",
          "name": "",
          "type": "address"
        }
      ],
      "name": "keyCount",
      "outputs": [
        {
          "internalType": "uint256",
          "name": "",
          "type": "uint256"
        }
      ],
      "stateMutability": "view",
      "type": "function"
    },
    {
      "inputs": [
        {
          "internalType": "address",
          "name": "",
          "type": "address"
        },
        {
          "internalType": "uint256",
          "name": "",
          "type": "uint256"
        }
      ],
      "name": "keys",
      "outputs": [
        {
          "internalType": "bytes",
          "name": "publicKey",
          "type": "bytes"
        },
        {
          "internalType": "uint256",
          "name": "validFrom",
          "type": "uint256"
        },
        {
          "internalType": "uint256",
          "name": "validUntil",
          "type": "uint256"
        },
        {
          "internalType": "bool",
          "name": "revoked",
          "type": "bool"
        },
        {
          "internalType": "string",
          "name": "metadata",
          "type": "string"
        }
      ],
      "stateMutability": "view",
      "type": "function"
    },
    {
      "inputs": [],
      "name": "maxKeyLifetime",
      "outputs": [
        {
          "internalType": "uint256",
          "name": "",
          "type": "uint256"
        }
      ],
      "stateMutability": "view",
      "type": "function"
    },
    {
      "inputs": [],
      "name": "minKeyLifetime",
      "outputs": [
        {
          "internalType": "uint256",
          "name": "",
          "type": "uint256"
        }
      ],
      "stateMutability": "view",
      "type": "function"
    },
    {
      "inputs": [],
      "name": "owner",
      "outputs": [
        {
          "internalType": "address",
          "name": "",
          "type": "address"
        }
      ],
      "stateMutability": "view",
      "type": "function"
    },
    {
      "inputs": [
        {
          "internalType": "bytes",
          "name": "publicKey",
          "type": "bytes"
        },
        {
          "internalType": "uint256",
          "name": "lifetime",
          "type": "uint256"
        },
        {
          "internalType": "string",
          "name": "metadata",
          "type": "string"
        }
      ],
      "name": "registerKey",
      "outputs": [
        {
          "internalType": "uint256",
          "name": "keyId",
          "type": "uint256"
        }
      ],
      "stateMutability": "nonpayable",
      "type": "function"
    },
    {
      "inputs": [],
      "name": "renounceOwnership",
      "outputs": [],
      "stateMutability": "nonpayable",
      "type": "function"
    },
    {
      "inputs": [
        {
          "internalType": "uint256",
          "name": "keyId",
          "type": "uint256"
        },
        {
          "internalType": "string",
          "name": "reason",
          "type": "string"
        }
      ],
      "name": "revokeKey",
      "outputs": [],
      "stateMutability": "nonpayable",
      "type": "function"
    },
    {
      "inputs": [
        {
          "internalType": "uint256",
          "name": "keyId",
          "type": "uint256"
        }
      ],
      "name": "setActiveKey",
      "outputs": [],
      "stateMutability": "nonpayable",
      "type": "function"
    },
    {
      "inputs": [
        {
          "internalType": "address",
          "name": "newOwner",
          "type": "address"
        }
      ],
      "name": "transferOwnership",
      "outputs": [],
      "stateMutability": "nonpayable",
      "type": "function"
    },
    {
      "inputs": [
        {
          "internalType": "uint256",
          "name": "newDefaultLifetime",
          "type": "uint256"
        },
        {
          "internalType": "uint256",
          "name": "newMinLifetime",
          "type": "uint256"
        },
        {
          "internalType": "uint256",
          "name": "newMaxLifetime",
          "type": "uint256"
        }
      ],
      "name": "updateKeyLifetimePolicies",
      "outputs": [],
      "stateMutability": "nonpayable",
      "type": "function"
    }
  ],
  "bytecode": "0x6080806040523461009157331561007b5760008054336001600160a01b03198216811783556040519290916001600160a01b0316907f8be0079c531659141344cd1fd0a4f28419497f9722a3daafe3b4186f6b6457e09080a36301e1338060045562093a806005556305a39a806006556116d790816100978239f35b631e4fbdf760e01b815260006004820152602490fd5b600080fdfe608080604052600436101561001357600080fd5b60003560e01c9081630735060714610ec0575080630a561de314610acd57806317655eb914610909578063181a916b1461082157806321276e7f146107f05780632f01fa211461076c57806345c82cd51461074e578063715018a6146106f5578063739687d9146106bb5780638d347b6c146106725780638da5cb5b14610649578063962e1c481461058d578063a9f2ae5814610362578063bb3997e51461029c578063d1bc79d214610262578063d87306371461018e578063e06ae4d4146101705763f2fde38b146100e557600080fd5b3461016b57602036600319011261016b576100fe611016565b610106611138565b6001600160a01b03908116908115610152576000548260018060a01b0319821617600055167f8be0079c531659141344cd1fd0a4f28419497f9722a3daafe3b4186f6b6457e0600080a3005b604051631e4fbdf760e01b815260006004820152602490fd5b600080fd5b3461016b57600036600319011261016b576020600454604051908152f35b3461016b5760208060031936011261016b5760043533600052600382526040600020548110156102505733600052600182526040600020816000528252604060002060ff60038201541661023e5760020154804210159081610234575b50610222573360005260028252604060002091818354935560405192835282015260008051602061168283398151915260403392a2005b604051638555780b60e01b8152600490fd5b90501515836101eb565b60405163cdf0b34f60e01b8152600490fd5b6040516317cfd1e760e21b8152600490fd5b3461016b57602036600319011261016b576001600160a01b03610283611016565b1660005260026020526020604060002054604051908152f35b3461016b57606036600319011261016b576102b5611016565b602435906044356001600160401b03811161016b576102d8903690600401610edb565b90916102e2611138565b6001600160a01b03166000818152600360205260409020549092908410156102505782600052600160205260406000208460005260205260036040600020019182549260ff841661023e5760016000805160206116628339815191529460ff191617905561035d604051928392602084526020840191611217565b0390a3005b3461016b57604036600319011261016b57602460043581356001600160401b03811161016b57610396903690600401610edb565b92903360005260039360209285845260406000205485101561025057336000526001908185526040600020866000528552866040600020019182549260ff9384811661023e57829060ff1916179055336000526002928387528760406000205414610424575b60405187815288903390600080516020611662833981519152908061035d818d018b8d611217565b600093898852604060002054805b610486575b50505050506000805160206116628339815191529394955015610460575b8493928680806103fc565b6040518581526000198582015260008051602061168283398151915260403392a2610455565b6000198101818111610578578a81146105725733600052848a526040600020816000528a528b838560406000209283015416159182610564575b82610545575b50506104f357505b80156104de576000190180610432565b84634e487b7160e01b60005260116004526000fd5b945050919350506000805160206116628339815191529596975033600052865280604060002055604051908782528682015260008051602061168283398151915260403392a285949387808080610437565b015480159150811561055a575b50838e6104c6565b905042108d610552565b8781015442101592506104c0565b506104ce565b85634e487b7160e01b60005260116004526000fd5b3461016b57604036600319011261016b576001600160a01b036105ae611016565b16600052600160205260406000206024356000526020526106266040600020610645604051916105e9836105e28184611066565b0384611117565b6004600182015491600281015461061260ff600384015416926105e26040518096819301611066565b60405196879660a0885260a0880190610f2b565b9360208701526040860152151560608501528382036080850152610f2b565b0390f35b3461016b57600036600319011261016b576000546040516001600160a01b039091168152602090f35b3461016b57602036600319011261016b576106aa610696610691611016565b611238565b604051938493606085526060850190610f2b565b916020840152151560408301520390f35b3461016b57602036600319011261016b576001600160a01b036106dc611016565b1660005260036020526020604060002054604051908152f35b3461016b57600036600319011261016b5761070e611138565b600080546001600160a01b0319811682556001600160a01b03167f8be0079c531659141344cd1fd0a4f28419497f9722a3daafe3b4186f6b6457e08280a3005b3461016b57600036600319011261016b576020600554604051908152f35b3461016b57606036600319011261016b5760443560243560043561078e611138565b80821115806107e6575b156107a857600455600555600655005b60405162461bcd60e51b8152602060048201526016602482015275496e76616c6964206c69666574696d652072616e676560501b6044820152606490fd5b5082811115610798565b3461016b57604036600319011261016b57602061081761080e611016565b602435906115ea565b6040519015158152f35b3461016b57606036600319011261016b5761089061089e6108ac610853610846611016565b60443590602435906113ed565b9594969261088261087360409a93969a519960c08b5260c08b0190610fac565b60209a8a82038c8c0152610f50565b9088820360408a0152610fac565b908682036060880152610fac565b908482036080860152610fe0565b9282840360a084015281518085528185019180808360051b8801019401926000965b8388106108db5786860387f35b909192939483806108f8600193601f198682030187528951610f2b565b9701930197019690939291936108ce565b3461016b5760208060031936011261016b576001600160401b0360043581811161016b573660238201121561016b5780600401359282841161016b576024600594368282881b8601011161016b576109608161136a565b9461096a82611338565b9261097483611338565b9560005b8481106109bb576109a0896106458a6109ad8b8b604051968796606088526060880190610f50565b9186830390870152610fac565b908382036040850152610fe0565b808a1b82018301356001600160a01b038116919082900361016b576040519163234d1edb60e21b835260048301526000828581305afa8015610ac157600090600090600090610a39575b610a349450610a14848d6113c3565b9015159052610a23838a6113c3565b52610a2e828c6113c3565b526113b4565b610978565b5050503d806000843e610a4c8184611117565b82019160608184031261016b57805186811161016b57810183601f8201121561016b578051610a7a81611171565b94610a886040519687611117565b8186528b828401011161016b57610aa4918b8087019101610f08565b604089820151910151801515810361016b57610a34939190610a05565b6040513d6000823e3d90fd5b3461016b57606036600319011261016b576004356001600160401b03811161016b57610afd903690600401610edb565b602435916044356001600160401b03811161016b57610b20903690600401610edb565b909360408403610eae5780610ea85750600454915b60055483108015610e9d575b610e8b57336000526003602052604060002054926001840190818511610e7557610b7a9133600052600360205260406000205542611164565b916040519560a08701918783106001600160401b03841117610de557610bc492604052610ba836888661118c565b885242602089015284604089015260006060890152369161118c565b6080860152336000526001602052604060002083600052602052604060002085518051906001600160401b038211610de557610c0a82610c04855461102c565b856111c3565b602090601f8311600114610e0657918060809492600494600092610dfb575b50508160011b916000199060031b1c19161781555b6020880151600182015560408801516002820155600381016060890151151560ff80198354169116179055019501519485516001600160401b038111610de557602096610c8f82610c04855461102c565b8790601f8311600114610d57579282610cfe937f508376d9e2cbd3eb7d2f198a97dddc0f8a47ed501d7fd549cad4ded4c1199c1a9693899a96600092610d4c575b50508160011b916000199060031b1c19161790555b8515610d17575b60405192606084526060840191611217565b92428783015260408201528033930390a3604051908152f35b3360005260028852856040600020556040516000198152868982015260008051602061168283398151915260403392a2610cec565b015190508b80610cd0565b90601f1983169184600052896000209260005b818110610dce5750937f508376d9e2cbd3eb7d2f198a97dddc0f8a47ed501d7fd549cad4ded4c1199c1a9693899a969360019383610cfe9810610db5575b505050811b019055610ce5565b015160001960f88460031b161c191690558b8080610da8565b92938b600181928786015181550195019301610d6a565b634e487b7160e01b600052604160045260246000fd5b015190508a80610c29565b908360005260206000209160005b601f1985168110610e5d5750926080949260019260049583601f19811610610e44575b505050811b018155610c3e565b015160001960f88460031b161c191690558a8080610e37565b91926020600181928685015181550194019201610e14565b634e487b7160e01b600052601160045260246000fd5b60405163349fa33d60e01b8152600490fd5b506006548311610b41565b91610b35565b60405163145a1fdd60e31b8152600490fd5b3461016b57600036600319011261016b576020906006548152f35b9181601f8401121561016b578235916001600160401b03831161016b576020838186019501011161016b57565b60005b838110610f1b5750506000910152565b8181015183820152602001610f0b565b90602091610f4481518092818552858086019101610f08565b601f01601f1916010190565b908082519081815260208091019281808460051b8301019501936000915b848310610f7e5750505050505090565b9091929394958480610f9c600193601f198682030187528a51610f2b565b9801930193019194939290610f6e565b90815180825260208080930193019160005b828110610fcc575050505090565b835185529381019392810192600101610fbe565b90815180825260208080930193019160005b828110611000575050505090565b8351151585529381019392810192600101610ff2565b600435906001600160a01b038216820361016b57565b90600182811c9216801561105c575b602083101461104657565b634e487b7160e01b600052602260045260246000fd5b91607f169161103b565b90600092918054916110778361102c565b9182825260019384811690816000146110d95750600114611099575b50505050565b90919394506000526020928360002092846000945b8386106110c5575050505001019038808080611093565b8054858701830152940193859082016110ae565b9294505050602093945060ff191683830152151560051b01019038808080611093565b602081019081106001600160401b03821117610de557604052565b90601f801991011681019081106001600160401b03821117610de557604052565b6000546001600160a01b0316330361114c57565b60405163118cdaa760e01b8152336004820152602490fd5b91908201809211610e7557565b6001600160401b038111610de557601f01601f191660200190565b92919261119882611171565b916111a66040519384611117565b82948184528183011161016b578281602093846000960137010152565b90601f81116111d157505050565b600091825260208220906020601f850160051c8301941061120d575b601f0160051c01915b82811061120257505050565b8181556001016111f6565b90925082906111ed565b908060209392818452848401376000828201840152601f01601f1916010190565b60018060a01b0316906000908282526003602052604091828120541561131357838152600260205282812054936003602052838220548510156112f957908391815260016020528181208582526020522060ff6003820154161592836112ea575b836112bd575b6112b1916112b8915192838092611066565b0382611117565b929190565b92506112b88160026112b193015480159081156112e0575b50949150915061129f565b90504210386112d5565b60018201544210159350611299565b509190925051611308816110fc565b818152916000199190565b9190925051611308816110fc565b6001600160401b038111610de55760051b60200190565b9061134282611321565b61134f6040519182611117565b8281528092611360601f1991611321565b0190602036910137565b9061137482611321565b6113816040519182611117565b8281528092611392601f1991611321565b019060005b8281106113a357505050565b806060602080938501015201611397565b6000198114610e755760010190565b80518210156113d75760209160051b010190565b634e487b7160e01b600052603260045260246000fd5b6001600160a01b0316600081815260036020818152604080842054909792969195929190808410156115815783810390811161156d578181111561155f5750959294959391935b61143d81611338565b9788946114498361136a565b98899561145585611338565b9961145f86611338565b998b61146a88611338565b9a6114748961136a565b9a84925b8a841061148c575050505050505050505050565b8392839261149a8488611164565b898952600192838c528d8a20828b528c528d8a20966114b8916113c3565b52838c51806114c78189611066565b036114d29082611117565b6114dc82846113c3565b526114e6916113c3565b50830154916114f4916113c3565b526002810154611504838f6113c3565b528087015460ff16611516838e6113c3565b901515905287518060048193019061152d91611066565b036115389082611117565b611542828c6113c3565b5261154d818b6113c3565b50611557906113b4565b8e8e8e611478565b905095929495939193611434565b634e487b7160e01b85526011600452602485fd5b505094505093915050805190611596826110fc565b8382528051936115a5856110fc565b8085528151936115b4856110fc565b8185528251936115c3856110fc565b8285528351936115d2856110fc565b83855251926115e0846110fc565b8352959493929190565b6001600160a01b0316600090815260036020526040812054909190811015611647579060409160016020528282209082526020522060ff600382015416159081611652575b81611638575090565b6002015480159150811561164b575b5090565b9050421090565b6001810154421015915061162f56fe161ffc04e923655f39b67ea0a73e078129ed66158f3e0c1454b659e5d10c97724c057e321a778c0df6f4deebfad2751906d32586172380605de7b6c5c739de2aa26469706673582212202caca3b7af0e9a2858fbf8750662e7e345eb69fb387f69f83249044977d3eb7f64736f6c63430008140033",
  "linkReferences": {},
  "deployedLinkReferences": {}
}