{
  "_format": "hh-sol-artifact-1",
  "contractName": "Reverter",
  "sourceName": "contracts/Reverter.sol",
  "abi": [
    {
      "inputs": [],
      "name": "revertAlways",
      "outputs": [],
      "stateMutability": "pure",
      "type": "function"
    }
  ],
  "bytecode": "0x6080806040523460145760a3908161001a8239f35b600080fdfe6080806040526004361015601257600080fd5b600090813560e01c63975af67a14602857600080fd5b346069578160031936011260695762461bcd60e51b815260206004820152600e60248201526d416c77617973207265766572747360901b6044820152606490fd5b5080fdfea2646970667358221220058688337a516459fc4a0cefdb36fab10f9fa11fb71c3c6cf5b63d5f06ad032e64736f6c63430008140033",
  "linkReferences": {},
  "deployedLinkReferences": {}
}