{
  "_format": "hh-sol-artifact-1",
  "contractName": "TemplateRentContract",
  "sourceName": "contracts/Rent/TemplateRentContract.sol",
  "abi": [
    {
      "inputs": [
        {
          "internalType": "address",
          "name": "_landlord",
          "type": "address"
        },
        {
          "internalType": "address",
          "name": "_tenant",
          "type": "address"
        },
        {
          "internalType": "uint256",
          "name": "_rentAmount",
          "type": "uint256"
        },
        {
          "internalType": "uint256",
          "name": "_dueDate",
          "type": "uint256"
        },
        {
          "internalType": "address",
          "name": "_priceFeed",
          "type": "address"
        },
        {
          "internalType": "uint256",
          "name": "_propertyId",
          "type": "uint256"
        },
        {
          "internalType": "address",
          "name": "_arbitration_service",
          "type": "address"
        },
        {
          "internalType": "uint256",
          "name": "_requiredDeposit",
          "type": "uint256"
        },
        {
          "internalType": "string",
          "name": "_initialEvidenceUri",
          "type": "string"
        }
      ],
      "stateMutability": "nonpayable",
      "type": "constructor"
    },
    {
      "inputs": [],
      "name": "AlreadyApproved",
      "type": "error"
    },
    {
      "inputs": [],
      "name": "AlreadyInactive",
      "type": "error"
    },
    {
      "inputs": [],
      "name": "AlreadySigned",
      "type": "error"
    },
    {
      "inputs": [],
      "name": "AmountTooLow",
      "type": "error"
    },
    {
      "inputs": [],
      "name": "ArbitrationAlreadyConfigured",
      "type": "error"
    },
    {
      "inputs": [],
      "name": "ArbitrationNotConfigured",
      "type": "error"
    },
    {
      "inputs": [],
      "name": "ArbitratorInvalid",
      "type": "error"
    },
    {
      "inputs": [],
      "name": "BothMustApprove",
      "type": "error"
    },
    {
      "inputs": [],
      "name": "CancelAlreadyRequested",
      "type": "error"
    },
    {
      "inputs": [],
      "name": "CancelNotRequested",
      "type": "error"
    },
    {
      "inputs": [],
      "name": "ClassificationTooLong",
      "type": "error"
    },
    {
      "inputs": [],
      "name": "DepositAlreadySatisfied",
      "type": "error"
    },
    {
      "inputs": [],
      "name": "DepositTooLow",
      "type": "error"
    },
    {
      "inputs": [],
      "name": "DisputeAlreadyResolved",
      "type": "error"
    },
    {
      "inputs": [],
      "name": "DisputeTypeInvalid",
      "type": "error"
    },
    {
      "inputs": [],
      "name": "ECDSAInvalidSignature",
      "type": "error"
    },
    {
      "inputs": [
        {
          "internalType": "uint256",
          "name": "length",
          "type": "uint256"
        }
      ],
      "name": "ECDSAInvalidSignatureLength",
      "type": "error"
    },
    {
      "inputs": [
        {
          "internalType": "bytes32",
          "name": "s",
          "type": "bytes32"
        }
      ],
      "name": "ECDSAInvalidSignatureS",
      "type": "error"
    },
    {
      "inputs": [],
      "name": "FeeTransferFailed",
      "type": "error"
    },
    {
      "inputs": [],
      "name": "FullySignedDueDateLocked",
      "type": "error"
    },
    {
      "inputs": [
        {
          "internalType": "uint256",
          "name": "available",
          "type": "uint256"
        },
        {
          "internalType": "uint256",
          "name": "required",
          "type": "uint256"
        }
      ],
      "name": "InsufficientDepositForResolution",
      "type": "error"
    },
    {
      "inputs": [],
      "name": "InsufficientFee",
      "type": "error"
    },
    {
      "inputs": [],
      "name": "InvalidFeeBps",
      "type": "error"
    },
    {
      "inputs": [],
      "name": "InvalidPrice",
      "type": "error"
    },
    {
      "inputs": [],
      "name": "InvalidShortString",
      "type": "error"
    },
    {
      "inputs": [],
      "name": "NotActive",
      "type": "error"
    },
    {
      "inputs": [],
      "name": "NotFullySigned",
      "type": "error"
    },
    {
      "inputs": [],
      "name": "NotInitiator",
      "type": "error"
    },
    {
      "inputs": [],
      "name": "NotParty",
      "type": "error"
    },
    {
      "inputs": [],
      "name": "NoticeNotElapsed",
      "type": "error"
    },
    {
      "inputs": [],
      "name": "OnlyArbitrator",
      "type": "error"
    },
    {
      "inputs": [],
      "name": "OnlyLandlord",
      "type": "error"
    },
    {
      "inputs": [],
      "name": "OnlyTenant",
      "type": "error"
    },
    {
      "inputs": [],
      "name": "RationaleTooLong",
      "type": "error"
    },
    {
      "inputs": [],
      "name": "ReentrancyGuardReentrantCall",
      "type": "error"
    },
    {
      "inputs": [],
      "name": "SignatureMismatch",
      "type": "error"
    },
    {
      "inputs": [
        {
          "internalType": "string",
          "name": "str",
          "type": "string"
        }
      ],
      "name": "StringTooLong",
      "type": "error"
    },
    {
      "anonymous": false,
      "inputs": [
        {
          "indexed": true,
          "internalType": "address",
          "name": "arbitrator",
          "type": "address"
        },
        {
          "indexed": false,
          "internalType": "uint256",
          "name": "requiredDeposit",
          "type": "uint256"
        }
      ],
      "name": "ArbitrationConfigured",
      "type": "event"
    },
    {
      "anonymous": false,
      "inputs": [
        {
          "indexed": true,
          "internalType": "uint256",
          "name": "caseId",
          "type": "uint256"
        },
        {
          "indexed": true,
          "internalType": "bytes32",
          "name": "messageId",
          "type": "bytes32"
        },
        {
          "indexed": true,
          "internalType": "address",
          "name": "requester",
          "type": "address"
        }
      ],
      "name": "CCIPArbitrationRequested",
      "type": "event"
    },
    {
      "anonymous": false,
      "inputs": [
        {
          "indexed": true,
          "internalType": "address",
          "name": "sender",
          "type": "address"
        },
        {
          "indexed": false,
          "internalType": "bool",
          "name": "enabled",
          "type": "bool"
        }
      ],
      "name": "CCIPConfigUpdated",
      "type": "event"
    },
    {
      "anonymous": false,
      "inputs": [
        {
          "indexed": true,
          "internalType": "address",
          "name": "by",
          "type": "address"
        }
      ],
      "name": "CancellationApproved",
      "type": "event"
    },
    {
      "anonymous": false,
      "inputs": [
        {
          "indexed": true,
          "internalType": "address",
          "name": "by",
          "type": "address"
        }
      ],
      "name": "CancellationFinalized",
      "type": "event"
    },
    {
      "anonymous": false,
      "inputs": [
        {
          "indexed": true,
          "internalType": "address",
          "name": "by",
          "type": "address"
        },
        {
          "indexed": false,
          "internalType": "uint256",
          "name": "effectiveAt",
          "type": "uint256"
        }
      ],
      "name": "CancellationInitiated",
      "type": "event"
    },
    {
      "anonymous": false,
      "inputs": [
        {
          "indexed": false,
          "internalType": "uint256",
          "name": "noticePeriod",
          "type": "uint256"
        },
        {
          "indexed": false,
          "internalType": "uint16",
          "name": "feeBps",
          "type": "uint16"
        },
        {
          "indexed": false,
          "internalType": "bool",
          "name": "requireMutual",
          "type": "bool"
        }
      ],
      "name": "CancellationPolicyUpdated",
      "type": "event"
    },
    {
      "anonymous": false,
      "inputs": [
        {
          "indexed": true,
          "internalType": "address",
          "name": "by",
          "type": "address"
        }
      ],
      "name": "ContractCancelled",
      "type": "event"
    },
    {
      "anonymous": false,
      "inputs": [
        {
          "indexed": true,
          "internalType": "address",
          "name": "debtor",
          "type": "address"
        },
        {
          "indexed": false,
          "internalType": "uint256",
          "name": "amount",
          "type": "uint256"
        }
      ],
      "name": "DebtRecorded",
      "type": "event"
    },
    {
      "anonymous": false,
      "inputs": [
        {
          "indexed": true,
          "internalType": "address",
          "name": "who",
          "type": "address"
        },
        {
          "indexed": false,
          "internalType": "uint256",
          "name": "amount",
          "type": "uint256"
        }
      ],
      "name": "DepositDebited",
      "type": "event"
    },
    {
      "anonymous": false,
      "inputs": [
        {
          "indexed": true,
          "internalType": "uint256",
          "name": "caseId",
          "type": "uint256"
        },
        {
          "indexed": false,
          "internalType": "uint256",
          "name": "requestedAmount",
          "type": "uint256"
        },
        {
          "indexed": false,
          "internalType": "uint256",
          "name": "available",
          "type": "uint256"
        },
        {
          "indexed": false,
          "internalType": "uint256",
          "name": "applied",
          "type": "uint256"
        }
      ],
      "name": "DisputeAppliedCapped",
      "type": "event"
    },
    {
      "anonymous": false,
      "inputs": [
        {
          "indexed": true,
          "internalType": "uint256",
          "name": "caseId",
          "type": "uint256"
        },
        {
          "indexed": false,
          "internalType": "uint256",
          "name": "timestamp",
          "type": "uint256"
        }
      ],
      "name": "DisputeClosed",
      "type": "event"
    },
    {
      "anonymous": false,
      "inputs": [
        {
          "indexed": true,
          "internalType": "uint256",
          "name": "caseId",
          "type": "uint256"
        },
        {
          "indexed": true,
          "internalType": "address",
          "name": "debtor",
          "type": "address"
        },
        {
          "indexed": false,
          "internalType": "uint256",
          "name": "requestedAmount",
          "type": "uint256"
        }
      ],
      "name": "DisputeFiled",
      "type": "event"
    },
    {
      "anonymous": false,
      "inputs": [
        {
          "indexed": true,
          "internalType": "uint256",
          "name": "caseId",
          "type": "uint256"
        },
        {
          "indexed": false,
          "internalType": "string",
          "name": "classification",
          "type": "string"
        },
        {
          "indexed": false,
          "internalType": "string",
          "name": "rationale",
          "type": "string"
        }
      ],
      "name": "DisputeRationale",
      "type": "event"
    },
    {
      "anonymous": false,
      "inputs": [
        {
          "indexed": true,
          "internalType": "uint256",
          "name": "caseId",
          "type": "uint256"
        },
        {
          "indexed": true,
          "internalType": "address",
          "name": "initiator",
          "type": "address"
        },
        {
          "indexed": false,
          "internalType": "uint8",
          "name": "disputeType",
          "type": "uint8"
        },
        {
          "indexed": false,
          "internalType": "uint256",
          "name": "requestedAmount",
          "type": "uint256"
        }
      ],
      "name": "DisputeReported",
      "type": "event"
    },
    {
      "anonymous": false,
      "inputs": [
        {
          "indexed": true,
          "internalType": "uint256",
          "name": "caseId",
          "type": "uint256"
        },
        {
          "indexed": false,
          "internalType": "string",
          "name": "evidenceUri",
          "type": "string"
        }
      ],
      "name": "DisputeReportedWithUri",
      "type": "event"
    },
    {
      "anonymous": false,
      "inputs": [
        {
          "indexed": true,
          "internalType": "uint256",
          "name": "caseId",
          "type": "uint256"
        },
        {
          "indexed": false,
          "internalType": "bool",
          "name": "approved",
          "type": "bool"
        },
        {
          "indexed": false,
          "internalType": "uint256",
          "name": "appliedAmount",
          "type": "uint256"
        },
        {
          "indexed": false,
          "internalType": "address",
          "name": "beneficiary",
          "type": "address"
        }
      ],
      "name": "DisputeResolved",
      "type": "event"
    },
    {
      "anonymous": false,
      "inputs": [
        {
          "indexed": false,
          "internalType": "uint256",
          "name": "newTimestamp",
          "type": "uint256"
        }
      ],
      "name": "DueDateUpdated",
      "type": "event"
    },
    {
      "anonymous": false,
      "inputs": [],
      "name": "EIP712DomainChanged",
      "type": "event"
    },
    {
      "anonymous": false,
      "inputs": [
        {
          "indexed": true,
          "internalType": "address",
          "name": "from",
          "type": "address"
        },
        {
          "indexed": false,
          "internalType": "uint256",
          "name": "amount",
          "type": "uint256"
        },
        {
          "indexed": true,
          "internalType": "address",
          "name": "to",
          "type": "address"
        }
      ],
      "name": "EarlyTerminationFeePaid",
      "type": "event"
    },
    {
      "anonymous": false,
      "inputs": [
        {
          "indexed": true,
          "internalType": "uint256",
          "name": "caseId",
          "type": "uint256"
        },
        {
          "indexed": true,
          "internalType": "bytes32",
          "name": "cidDigest",
          "type": "bytes32"
        },
        {
          "indexed": true,
          "internalType": "address",
          "name": "claimed",
          "type": "address"
        },
        {
          "indexed": false,
          "internalType": "address",
          "name": "recovered",
          "type": "address"
        }
      ],
      "name": "EvidenceSignatureInvalid",
      "type": "event"
    },
    {
      "anonymous": false,
      "inputs": [
        {
          "indexed": true,
          "internalType": "uint256",
          "name": "caseId",
          "type": "uint256"
        },
        {
          "indexed": true,
          "internalType": "bytes32",
          "name": "cidDigest",
          "type": "bytes32"
        },
        {
          "indexed": true,
          "internalType": "address",
          "name": "signer",
          "type": "address"
        }
      ],
      "name": "EvidenceSignatureVerified",
      "type": "event"
    },
    {
      "anonymous": false,
      "inputs": [
        {
          "indexed": true,
          "internalType": "uint256",
          "name": "caseId",
          "type": "uint256"
        },
        {
          "indexed": true,
          "internalType": "bytes32",
          "name": "cidDigest",
          "type": "bytes32"
        },
        {
          "indexed": true,
          "internalType": "address",
          "name": "submitter",
          "type": "address"
        },
        {
          "indexed": false,
          "internalType": "string",
          "name": "cid",
          "type": "string"
        }
      ],
      "name": "EvidenceSubmitted",
      "type": "event"
    },
    {
      "anonymous": false,
      "inputs": [
        {
          "indexed": true,
          "internalType": "uint256",
          "name": "caseId",
          "type": "uint256"
        },
        {
          "indexed": true,
          "internalType": "bytes32",
          "name": "cidDigest",
          "type": "bytes32"
        },
        {
          "indexed": false,
          "internalType": "bytes32",
          "name": "contentDigest",
          "type": "bytes32"
        },
        {
          "indexed": true,
          "internalType": "address",
          "name": "submitter",
          "type": "address"
        },
        {
          "indexed": false,
          "internalType": "string",
          "name": "cid",
          "type": "string"
        }
      ],
      "name": "EvidenceSubmittedDigest",
      "type": "event"
    },
    {
      "anonymous": false,
      "inputs": [
        {
          "indexed": false,
          "internalType": "uint256",
          "name": "newPercent",
          "type": "uint256"
        }
      ],
      "name": "LateFeeUpdated",
      "type": "event"
    },
    {
      "anonymous": false,
      "inputs": [
        {
          "indexed": true,
          "internalType": "address",
          "name": "to",
          "type": "address"
        },
        {
          "indexed": false,
          "internalType": "uint256",
          "name": "amount",
          "type": "uint256"
        }
      ],
      "name": "PaymentCredited",
      "type": "event"
    },
    {
      "anonymous": false,
      "inputs": [
        {
          "indexed": true,
          "internalType": "address",
          "name": "to",
          "type": "address"
        },
        {
          "indexed": false,
          "internalType": "uint256",
          "name": "amount",
          "type": "uint256"
        }
      ],
      "name": "PaymentWithdrawn",
      "type": "event"
    },
    {
      "anonymous": false,
      "inputs": [
        {
          "indexed": true,
          "internalType": "address",
          "name": "tenant",
          "type": "address"
        },
        {
          "indexed": false,
          "internalType": "uint256",
          "name": "amount",
          "type": "uint256"
        },
        {
          "indexed": false,
          "internalType": "bool",
          "name": "late",
          "type": "bool"
        }
      ],
      "name": "RentPaid",
      "type": "event"
    },
    {
      "anonymous": false,
      "inputs": [
        {
          "indexed": true,
          "internalType": "address",
          "name": "signer",
          "type": "address"
        },
        {
          "indexed": false,
          "internalType": "uint256",
          "name": "timestamp",
          "type": "uint256"
        }
      ],
      "name": "RentSigned",
      "type": "event"
    },
    {
      "anonymous": false,
      "inputs": [
        {
          "indexed": true,
          "internalType": "address",
          "name": "by",
          "type": "address"
        },
        {
          "indexed": false,
          "internalType": "uint256",
          "name": "amount",
          "type": "uint256"
        },
        {
          "indexed": false,
          "internalType": "uint256",
          "name": "total",
          "type": "uint256"
        }
      ],
      "name": "SecurityDepositPaid",
      "type": "event"
    },
    {
      "inputs": [],
      "name": "CONTRACT_NAME",
      "outputs": [
        {
          "internalType": "string",
          "name": "",
          "type": "string"
        }
      ],
      "stateMutability": "view",
      "type": "function"
    },
    {
      "inputs": [],
      "name": "CONTRACT_VERSION",
      "outputs": [
        {
          "internalType": "string",
          "name": "",
          "type": "string"
        }
      ],
      "stateMutability": "view",
      "type": "function"
    },
    {
      "inputs": [],
      "name": "active",
      "outputs": [
        {
          "internalType": "bool",
          "name": "",
          "type": "bool"
        }
      ],
      "stateMutability": "view",
      "type": "function"
    },
    {
      "inputs": [],
      "name": "approveCancellation",
      "outputs": [],
      "stateMutability": "nonpayable",
      "type": "function"
    },
    {
      "inputs": [],
      "name": "arbitrationService",
      "outputs": [
        {
          "internalType": "address",
          "name": "",
          "type": "address"
        }
      ],
      "stateMutability": "view",
      "type": "function"
    },
    {
      "inputs": [
        {
          "internalType": "address",
          "name": "",
          "type": "address"
        }
      ],
      "name": "cancelApprovals",
      "outputs": [
        {
          "internalType": "bool",
          "name": "",
          "type": "bool"
        }
      ],
      "stateMutability": "view",
      "type": "function"
    },
    {
      "inputs": [],
      "name": "cancelEffectiveAt",
      "outputs": [
        {
          "internalType": "uint256",
          "name": "",
          "type": "uint256"
        }
      ],
      "stateMutability": "view",
      "type": "function"
    },
    {
      "inputs": [],
      "name": "cancelInitiator",
      "outputs": [
        {
          "internalType": "address",
          "name": "",
          "type": "address"
        }
      ],
      "stateMutability": "view",
      "type": "function"
    },
    {
      "inputs": [],
      "name": "cancelRequested",
      "outputs": [
        {
          "internalType": "bool",
          "name": "",
          "type": "bool"
        }
      ],
      "stateMutability": "view",
      "type": "function"
    },
    {
      "inputs": [],
      "name": "ccipEnabled",
      "outputs": [
        {
          "internalType": "bool",
          "name": "",
          "type": "bool"
        }
      ],
      "stateMutability": "view",
      "type": "function"
    },
    {
      "inputs": [
        {
          "internalType": "uint256",
          "name": "",
          "type": "uint256"
        }
      ],
      "name": "ccipMessageIds",
      "outputs": [
        {
          "internalType": "bytes32",
          "name": "",
          "type": "bytes32"
        }
      ],
      "stateMutability": "view",
      "type": "function"
    },
    {
      "inputs": [],
      "name": "ccipSender",
      "outputs": [
        {
          "internalType": "contract CCIPArbitrationSender",
          "name": "",
          "type": "address"
        }
      ],
      "stateMutability": "view",
      "type": "function"
    },
    {
      "inputs": [
        {
          "internalType": "address payable",
          "name": "_ccipSender",
          "type": "address"
        },
        {
          "internalType": "bool",
          "name": "_enabled",
          "type": "bool"
        }
      ],
      "name": "configureCCIP",
      "outputs": [],
      "stateMutability": "nonpayable",
      "type": "function"
    },
    {
      "inputs": [
        {
          "internalType": "address",
          "name": "",
          "type": "address"
        }
      ],
      "name": "debtOwed",
      "outputs": [
        {
          "internalType": "uint256",
          "name": "",
          "type": "uint256"
        }
      ],
      "stateMutability": "view",
      "type": "function"
    },
    {
      "inputs": [
        {
          "internalType": "uint256",
          "name": "caseId",
          "type": "uint256"
        }
      ],
      "name": "depositForCase",
      "outputs": [],
      "stateMutability": "payable",
      "type": "function"
    },
    {
      "inputs": [
        {
          "internalType": "uint256",
          "name": "caseId",
          "type": "uint256"
        }
      ],
      "name": "depositReporterBond",
      "outputs": [],
      "stateMutability": "payable",
      "type": "function"
    },
    {
      "inputs": [],
      "name": "depositSecurity",
      "outputs": [],
      "stateMutability": "payable",
      "type": "function"
    },
    {
      "inputs": [],
      "name": "dueDate",
      "outputs": [
        {
          "internalType": "uint256",
          "name": "",
          "type": "uint256"
        }
      ],
      "stateMutability": "view",
      "type": "function"
    },
    {
      "inputs": [],
      "name": "earlyTerminationFeeBps",
      "outputs": [
        {
          "internalType": "uint16",
          "name": "",
          "type": "uint16"
        }
      ],
      "stateMutability": "view",
      "type": "function"
    },
    {
      "inputs": [],
      "name": "eip712Domain",
      "outputs": [
        {
          "internalType": "bytes1",
          "name": "fields",
          "type": "bytes1"
        },
        {
          "internalType": "string",
          "name": "name",
          "type": "string"
        },
        {
          "internalType": "string",
          "name": "version",
          "type": "string"
        },
        {
          "internalType": "uint256",
          "name": "chainId",
          "type": "uint256"
        },
        {
          "internalType": "address",
          "name": "verifyingContract",
          "type": "address"
        },
        {
          "internalType": "bytes32",
          "name": "salt",
          "type": "bytes32"
        },
        {
          "internalType": "uint256[]",
          "name": "extensions",
          "type": "uint256[]"
        }
      ],
      "stateMutability": "view",
      "type": "function"
    },
    {
      "inputs": [
        {
          "internalType": "bytes32",
          "name": "",
          "type": "bytes32"
        }
      ],
      "name": "evidenceContentDigest",
      "outputs": [
        {
          "internalType": "bytes32",
          "name": "",
          "type": "bytes32"
        }
      ],
      "stateMutability": "view",
      "type": "function"
    },
    {
      "inputs": [
        {
          "internalType": "bytes32",
          "name": "cidDigest",
          "type": "bytes32"
        }
      ],
      "name": "evidenceSeen",
      "outputs": [
        {
          "internalType": "bool",
          "name": "",
          "type": "bool"
        }
      ],
      "stateMutability": "view",
      "type": "function"
    },
    {
      "inputs": [],
      "name": "finalizeCancellation",
      "outputs": [],
      "stateMutability": "payable",
      "type": "function"
    },
    {
      "inputs": [
        {
          "internalType": "uint256",
          "name": "caseId",
          "type": "uint256"
        }
      ],
      "name": "getDispute",
      "outputs": [
        {
          "internalType": "address",
          "name": "initiator",
          "type": "address"
        },
        {
          "internalType": "enum TemplateRentContract.DisputeType",
          "name": "dtype",
          "type": "uint8"
        },
        {
          "internalType": "uint256",
          "name": "requestedAmount",
          "type": "uint256"
        },
        {
          "internalType": "string",
          "name": "evidenceUri",
          "type": "string"
        },
        {
          "internalType": "bool",
          "name": "resolved",
          "type": "bool"
        },
        {
          "internalType": "bool",
          "name": "approved",
          "type": "bool"
        },
        {
          "internalType": "uint256",
          "name": "appliedAmount",
          "type": "uint256"
        }
      ],
      "stateMutability": "view",
      "type": "function"
    },
    {
      "inputs": [
        {
          "internalType": "uint256",
          "name": "caseId",
          "type": "uint256"
        }
      ],
      "name": "getDisputeBond",
      "outputs": [
        {
          "internalType": "uint256",
          "name": "",
          "type": "uint256"
        }
      ],
      "stateMutability": "view",
      "type": "function"
    },
    {
      "inputs": [
        {
          "internalType": "uint256",
          "name": "caseId",
          "type": "uint256"
        }
      ],
      "name": "getDisputeMeta",
      "outputs": [
        {
          "internalType": "string",
          "name": "classification",
          "type": "string"
        },
        {
          "internalType": "string",
          "name": "rationale",
          "type": "string"
        }
      ],
      "stateMutability": "view",
      "type": "function"
    },
    {
      "inputs": [
        {
          "internalType": "uint256",
          "name": "caseId",
          "type": "uint256"
        }
      ],
      "name": "getDisputeUri",
      "outputs": [
        {
          "internalType": "string",
          "name": "",
          "type": "string"
        }
      ],
      "stateMutability": "view",
      "type": "function"
    },
    {
      "inputs": [],
      "name": "getDisputesCount",
      "outputs": [
        {
          "internalType": "uint256",
          "name": "",
          "type": "uint256"
        }
      ],
      "stateMutability": "view",
      "type": "function"
    },
    {
      "inputs": [],
      "name": "getRentInEth",
      "outputs": [
        {
          "internalType": "uint256",
          "name": "",
          "type": "uint256"
        }
      ],
      "stateMutability": "view",
      "type": "function"
    },
    {
      "inputs": [],
      "name": "hashMessage",
      "outputs": [
        {
          "internalType": "bytes32",
          "name": "",
          "type": "bytes32"
        }
      ],
      "stateMutability": "view",
      "type": "function"
    },
    {
      "inputs": [],
      "name": "initialEvidenceUri",
      "outputs": [
        {
          "internalType": "string",
          "name": "",
          "type": "string"
        }
      ],
      "stateMutability": "view",
      "type": "function"
    },
    {
      "inputs": [],
      "name": "initiateCancellation",
      "outputs": [],
      "stateMutability": "nonpayable",
      "type": "function"
    },
    {
      "inputs": [],
      "name": "isCCIPAvailable",
      "outputs": [
        {
          "internalType": "bool",
          "name": "",
          "type": "bool"
        }
      ],
      "stateMutability": "view",
      "type": "function"
    },
    {
      "inputs": [],
      "name": "isFullySigned",
      "outputs": [
        {
          "internalType": "bool",
          "name": "",
          "type": "bool"
        }
      ],
      "stateMutability": "view",
      "type": "function"
    },
    {
      "inputs": [],
      "name": "landlord",
      "outputs": [
        {
          "internalType": "address",
          "name": "",
          "type": "address"
        }
      ],
      "stateMutability": "view",
      "type": "function"
    },
    {
      "inputs": [],
      "name": "lateFeePercent",
      "outputs": [
        {
          "internalType": "uint8",
          "name": "",
          "type": "uint8"
        }
      ],
      "stateMutability": "view",
      "type": "function"
    },
    {
      "inputs": [],
      "name": "noticePeriod",
      "outputs": [
        {
          "internalType": "uint256",
          "name": "",
          "type": "uint256"
        }
      ],
      "stateMutability": "view",
      "type": "function"
    },
    {
      "inputs": [
        {
          "internalType": "address",
          "name": "",
          "type": "address"
        }
      ],
      "name": "partyDeposit",
      "outputs": [
        {
          "internalType": "uint256",
          "name": "",
          "type": "uint256"
        }
      ],
      "stateMutability": "view",
      "type": "function"
    },
    {
      "inputs": [
        {
          "internalType": "uint256",
          "name": "amount",
          "type": "uint256"
        }
      ],
      "name": "payRent",
      "outputs": [],
      "stateMutability": "nonpayable",
      "type": "function"
    },
    {
      "inputs": [],
      "name": "payRentInEth",
      "outputs": [],
      "stateMutability": "payable",
      "type": "function"
    },
    {
      "inputs": [],
      "name": "payRentPartial",
      "outputs": [],
      "stateMutability": "payable",
      "type": "function"
    },
    {
      "inputs": [],
      "name": "payRentWithLateFee",
      "outputs": [],
      "stateMutability": "payable",
      "type": "function"
    },
    {
      "inputs": [],
      "name": "priceFeed",
      "outputs": [
        {
          "internalType": "contract AggregatorV3Interface",
          "name": "",
          "type": "address"
        }
      ],
      "stateMutability": "view",
      "type": "function"
    },
    {
      "inputs": [],
      "name": "propertyId",
      "outputs": [
        {
          "internalType": "uint256",
          "name": "",
          "type": "uint256"
        }
      ],
      "stateMutability": "view",
      "type": "function"
    },
    {
      "inputs": [],
      "name": "rentAmount",
      "outputs": [
        {
          "internalType": "uint256",
          "name": "",
          "type": "uint256"
        }
      ],
      "stateMutability": "view",
      "type": "function"
    },
    {
      "inputs": [],
      "name": "rentPaid",
      "outputs": [
        {
          "internalType": "bool",
          "name": "",
          "type": "bool"
        }
      ],
      "stateMutability": "view",
      "type": "function"
    },
    {
      "inputs": [],
      "name": "rentSigned",
      "outputs": [
        {
          "internalType": "bool",
          "name": "",
          "type": "bool"
        }
      ],
      "stateMutability": "view",
      "type": "function"
    },
    {
      "inputs": [
        {
          "internalType": "enum TemplateRentContract.DisputeType",
          "name": "dtype",
          "type": "uint8"
        },
        {
          "internalType": "uint256",
          "name": "requestedAmount",
          "type": "uint256"
        },
        {
          "internalType": "string",
          "name": "evidenceUri",
          "type": "string"
        }
      ],
      "name": "reportDispute",
      "outputs": [
        {
          "internalType": "uint256",
          "name": "caseId",
          "type": "uint256"
        }
      ],
      "stateMutability": "payable",
      "type": "function"
    },
    {
      "inputs": [],
      "name": "requireMutualCancel",
      "outputs": [
        {
          "internalType": "bool",
          "name": "",
          "type": "bool"
        }
      ],
      "stateMutability": "view",
      "type": "function"
    },
    {
      "inputs": [],
      "name": "requiredDeposit",
      "outputs": [
        {
          "internalType": "uint256",
          "name": "",
          "type": "uint256"
        }
      ],
      "stateMutability": "view",
      "type": "function"
    },
    {
      "inputs": [
        {
          "internalType": "uint256",
          "name": "caseId",
          "type": "uint256"
        },
        {
          "internalType": "bool",
          "name": "approve",
          "type": "bool"
        },
        {
          "internalType": "uint256",
          "name": "appliedAmount",
          "type": "uint256"
        },
        {
          "internalType": "address",
          "name": "beneficiary",
          "type": "address"
        },
        {
          "internalType": "string",
          "name": "classification",
          "type": "string"
        },
        {
          "internalType": "string",
          "name": "rationale",
          "type": "string"
        }
      ],
      "name": "resolveDisputeFinal",
      "outputs": [],
      "stateMutability": "nonpayable",
      "type": "function"
    },
    {
      "inputs": [
        {
          "internalType": "uint256",
          "name": "_noticePeriod",
          "type": "uint256"
        },
        {
          "internalType": "uint16",
          "name": "_feeBps",
          "type": "uint16"
        },
        {
          "internalType": "bool",
          "name": "_requireMutual",
          "type": "bool"
        }
      ],
      "name": "setCancellationPolicy",
      "outputs": [],
      "stateMutability": "nonpayable",
      "type": "function"
    },
    {
      "inputs": [
        {
          "internalType": "uint256",
          "name": "timestamp",
          "type": "uint256"
        }
      ],
      "name": "setDueDate",
      "outputs": [],
      "stateMutability": "nonpayable",
      "type": "function"
    },
    {
      "inputs": [
        {
          "internalType": "bytes",
          "name": "signature",
          "type": "bytes"
        }
      ],
      "name": "signRent",
      "outputs": [],
      "stateMutability": "nonpayable",
      "type": "function"
    },
    {
      "inputs": [
        {
          "internalType": "address",
          "name": "",
          "type": "address"
        }
      ],
      "name": "signedBy",
      "outputs": [
        {
          "internalType": "bool",
          "name": "",
          "type": "bool"
        }
      ],
      "stateMutability": "view",
      "type": "function"
    },
    {
      "inputs": [
        {
          "internalType": "uint256",
          "name": "caseId",
          "type": "uint256"
        },
        {
          "internalType": "string",
          "name": "cid",
          "type": "string"
        }
      ],
      "name": "submitEvidence",
      "outputs": [],
      "stateMutability": "nonpayable",
      "type": "function"
    },
    {
      "inputs": [
        {
          "internalType": "uint256",
          "name": "caseId",
          "type": "uint256"
        },
        {
          "internalType": "string",
          "name": "cid",
          "type": "string"
        },
        {
          "internalType": "bytes32",
          "name": "contentDigest",
          "type": "bytes32"
        }
      ],
      "name": "submitEvidenceWithDigest",
      "outputs": [],
      "stateMutability": "nonpayable",
      "type": "function"
    },
    {
      "inputs": [
        {
          "internalType": "uint256",
          "name": "caseId",
          "type": "uint256"
        },
        {
          "internalType": "string",
          "name": "cid",
          "type": "string"
        },
        {
          "internalType": "bytes32",
          "name": "contentDigest",
          "type": "bytes32"
        },
        {
          "internalType": "bytes32",
          "name": "recipientsHash",
          "type": "bytes32"
        },
        {
          "internalType": "bytes",
          "name": "signature",
          "type": "bytes"
        }
      ],
      "name": "submitEvidenceWithSignature",
      "outputs": [],
      "stateMutability": "nonpayable",
      "type": "function"
    },
    {
      "inputs": [],
      "name": "tenant",
      "outputs": [
        {
          "internalType": "address",
          "name": "",
          "type": "address"
        }
      ],
      "stateMutability": "view",
      "type": "function"
    },
    {
      "inputs": [],
      "name": "totalPaid",
      "outputs": [
        {
          "internalType": "uint256",
          "name": "",
          "type": "uint256"
        }
      ],
      "stateMutability": "view",
      "type": "function"
    },
    {
      "inputs": [
        {
          "internalType": "uint256",
          "name": "caseId",
          "type": "uint256"
        }
      ],
      "name": "triggerCCIPArbitration",
      "outputs": [],
      "stateMutability": "nonpayable",
      "type": "function"
    },
    {
      "inputs": [
        {
          "internalType": "uint8",
          "name": "newPercent",
          "type": "uint8"
        }
      ],
      "name": "updateLateFee",
      "outputs": [],
      "stateMutability": "nonpayable",
      "type": "function"
    },
    {
      "inputs": [],
      "name": "withdrawPayments",
      "outputs": [],
      "stateMutability": "nonpayable",
      "type": "function"
    },
    {
      "inputs": [
        {
          "internalType": "address",
          "name": "",
          "type": "address"
        }
      ],
      "name": "withdrawable",
      "outputs": [
        {
          "internalType": "uint256",
          "name": "",
          "type": "uint256"
        }
      ],
      "stateMutability": "view",
      "type": "function"
    }
  ],
  "bytecode": "0x610200806040523462000551576200449090813803809262000022828462000572565b823961012081838101031262000551576200003d8162000596565b906200004c6020820162000596565b91604082015190606083015193620000676080850162000596565b9160a0850151936200007c60c0870162000596565b60e087015161010088015190979196916001600160401b03821162000551578a8101601f838301011215620005515780820151906001600160401b0382116200053b576040519b620000d9601f8401601f19166020018e62000572565b828d52810160208385840101011162000551576020620000ff93818e01920101620005ab565b604051936200010e8562000556565b601485527f54656d706c61746552656e74436f6e7472616374000000000000000000000000602086015260405194620001478662000556565b60018652603160f81b60208701526200016081620005d0565b610120526200016f8662000784565b6101405260208151910120948560e052602081519101209485610100524660a0526040519560208701917f8b73c3c69bb8fe3d512ecc4cf759cc79239f7b179b0ffacaa9a75d522b39400f8352604088015260608701524660808701523060a087015260a0865260c086019580871060018060401b038811176200053b576001966040525190206080523060c0528460025560ff1993600585600954161760095561016052610180526101a05260035580600454166004556000600555600654161760065560018060a01b03166101c05261ff001960105416601055600060115561ffff19601254166012556101e052601555815160018060401b0381116200053b57601954600181811c9116801562000530575b60208210146200051a57601f8111620004b0575b50602092601f821160011462000445579281929360009262000439575b50508160011b916000199060031b1c1916176019555b600855604051613bd59081620008bb8239608051816134e3015260a051816135ae015260c051816134ad015260e0518161353201526101005181613558015261012051816115b6015261014051816115e00152610160518181816103ac0152818161057e0152818161087501528181610b3401528181610d0801528181610e0c01528181610ee5015281816114a7015281816122750152818161244101528181612605015281816127130152818161286301528181612d5a01528181612e66015261377001526101805181818161033701528181610500015281816108ba01528181610bdd01528181610c51015281816110480152818161130e015281816115780152818161237d015281816123e2015281816125120152818161263d01528181612743015281816128a301528181612cf3015261379701526101a051816104c701526101c0518181816117b401526135fc01526101e05181818161194c0152818161259d0152612bc90152f35b015190503880620002b5565b601f19821693601960005260206000209160005b8681106200049757508360019596106200047d575b505050811b01601955620002cb565b015160001960f88460031b161c191690553880806200046e565b9192602060018192868501518155019401920162000459565b60196000527f944998273e477b495144fb8794c914197f3ccb46be2900f4698fd0ef743c9695601f830160051c810191602084106200050f575b601f0160051c01905b81811062000502575062000298565b60008155600101620004f3565b9091508190620004ea565b634e487b7160e01b600052602260045260246000fd5b90607f169062000284565b634e487b7160e01b600052604160045260246000fd5b600080fd5b604081019081106001600160401b038211176200053b57604052565b601f909101601f19168101906001600160401b038211908210176200053b57604052565b51906001600160a01b03821682036200055157565b60005b838110620005bf5750506000910152565b8181015183820152602001620005ae565b8051602091908281101562000650575090601f8251116200060e5780825192015190808310620005ff57501790565b82600019910360031b1b161790565b604490620006429260405193849263305a27a960e01b845280600485015282519283918260248701528686019101620005ab565b601f01601f19168101030190fd5b6001600160401b0381116200053b576000928354926001938481811c9116801562000779575b838210146200076557601f81116200072f575b5081601f8411600114620006c857509282939183928694620006bc575b50501b916000199060031b1c191617905560ff90565b015192503880620006a6565b919083601f1981168780528488209488905b88838310620007145750505010620006fa575b505050811b01905560ff90565b015160001960f88460031b161c19169055388080620006ed565b858701518855909601959485019487935090810190620006da565b85805284601f848820920160051c820191601f860160051c015b8281106200075957505062000689565b87815501859062000749565b634e487b7160e01b86526022600452602486fd5b90607f169062000676565b805160209081811015620007b15750601f8251116200060e5780825192015190808310620005ff57501790565b9192916001600160401b0381116200053b5760019182548381811c91168015620008af575b828210146200051a57601f811162000876575b5080601f8311600114620008295750819293946000926200081d575b5050600019600383901b1c191690821b17905560ff90565b01519050388062000805565b90601f198316958460005282600020926000905b8882106200085e5750508385969710620006fa57505050811b01905560ff90565b8087859682949686015181550195019301906200083d565b8360005283601f83600020920160051c820191601f850160051c015b828110620008a2575050620007e9565b6000815501849062000892565b90607f1690620007d656fe60808060405260048036101561001457600080fd5b60003560e01c918262bf081114612e445750816302fb0c5e14612e21578163061c40a1146117e35781630675d43214612e005781630691dc2114612cdc578163078760cc14612cc15781630dadd46014612c875781630ff2d00314612c615781631048ceb614612c2257816317a6e53414612bf85781631b4cf8c614612bb35781631d963e0614612927578163256fa8241461290a5781632b18c38a146128cb5781632fd480cf1461284857816331ea54841461282a57816333d939e31461257b57816338b903331461253957816340b93ff21461241a57816341ea3b831461223157816342a249911461220757816343fe79ec146121ec5781635e361c5e146121c65781636103d70b146120b7578163614d08f81461206257816362708a91146118d45781636a9293f9146118065781636c51bb73146117e3578163741bef1a1461179e578163786716fe146117805781637bb7a0301461173b5781637c07a83d146116e45781637f025566146116c257816384b0196e146115a05781638d2387c41461148157816396c05a57146114545781639b14d4c6146114365781639c63558a146114185781639d14b3f214611368578163a04e67fa14611346578163a519cf6714610e8f578163a5d8b65014610df6578163a6a7f0eb14610dc7578163aa52e7b714610cd5578163abc5ffcc14610ca6578163ad7fac3614610c80578163adf0779114610c3b578163b243dce914610c05578163bc53aca914610b02578163cbcacdab14610ac8578163ce057d6414610a9b578163ce513b6f14610a61578163d58de8d5146109e8578163d6ee0d1414610974578163d9e8843f146108a4578163dc1997ea1461085f578163e30c8219146106e1578163e3a96cbd1461060d578163e7b0f666146105ef578163e9d52013146104ea578163ee7a3b8e146104af578163f8c7978c1461032157508063f8ef1e13146103035763fb7cfdd7146102e057600080fd5b346102fe5760003660031901126102fe576020601554604051908152f35b600080fd5b346102fe5760003660031901126102fe576020600354604051908152f35b60003660031901126102fe576001600160a01b037f00000000000000000000000000000000000000000000000000000000000000008116330361049f5760ff600654161561048f5760ff601054161561047f576000916008548042119081610475575b5061046c575b61039634600554613289565b806005556103a26135e7565b111561045b575b507f000000000000000000000000000000000000000000000000000000000000000016600080808034855af16103dd6136fb565b5015610422575b5060408051348152911515602083015233917fa0e44cc6f4f184bc83e145bf7f0cc703b7f698476124cf6a9d7d403d202e77fd91819081015b0390a2005b80600052600a602052604060002061043b348254613289565b9055600080516020613b808339815191526020604051348152a2816103e4565b805460ff19166001179055826103a9565b6001925061038a565b9050151584610384565b5060405163ac37e5cb60e01b8152fd5b50604051634065aaf160e11b8152fd5b5060405163873cf48b60e01b8152fd5b346102fe5760003660031901126102fe5760206040517f00000000000000000000000000000000000000000000000000000000000000008152f35b60003660031901126102fe576001600160a01b037f00000000000000000000000000000000000000000000000000000000000000008116330361049f5760ff600654161561048f5760ff601054161561047f576105456135e7565b9160009260085480421190816105e5575b506105be575b34106105af5761056e34600554613289565b600555805460ff191660011790557f000000000000000000000000000000000000000000000000000000000000000016600080808034855af16103dd6136fb565b604051631fbaba3560e01b8152fd5b6105dc91935060646105d560ff60095416836135d4565b0490613289565b9160019261055c565b9050151585610556565b346102fe5760003660031901126102fe576020600554604051908152f35b346102fe5760203660031901126102fe57806106386002923561063360175482106137d3565b613829565b509081549160ff8360a01c1660018201549060038301549361066f8185015494610668604051809a819301613039565b0388612f74565b6040516001600160a01b03909616865260078210156106cc5750849560ff926106ad926020880152604087015260e0606087015260e0860190612fb0565b928181161515608086015260081c16151560a084015260c08301520390f35b602190634e487b7160e01b6000525260246000fd5b6020806003193601126102fe5781359160ff60065416156108505761070960175484106137d3565b6000838152600c835260409020546001600160a01b0316330361081457600161073184613829565b5001549081156107da5734156107cb57503360005260168252604060002061075a348254613289565b9055336000526016825260406000205460405190348252838201527fbf1aa192c46bca8374cb6283fdf4d37fb62c9c903f007cd6c85bdea930ca0ed860403392a2336000526016825260406000205410156107b157005b6000918252600d905260409020805460ff19166001179055005b604051632b7786bd60e21b8152fd5b60405162461bcd60e51b815290810183905260136024820152721b9bc81c995c5d595cdd195908185b5bdd5b9d606a1b6044820152606490fd5b6064916040519162461bcd60e51b835282015260176024820152761bdb9b1e481919589d1bdc881b585e4819195c1bdcda5d604a1b6044820152fd5b604051634065aaf160e11b8152fd5b346102fe5760003660031901126102fe576040517f00000000000000000000000000000000000000000000000000000000000000006001600160a01b03168152602090f35b346102fe5760203660031901126102fe578035907f00000000000000000000000000000000000000000000000000000000000000006001600160a01b031633036109655760ff60065416156108505760ff60105416156109565760035482106105af57600160ff1982541617905561091e81600554613289565b600555604051908152600060208201527fa0e44cc6f4f184bc83e145bf7f0cc703b7f698476124cf6a9d7d403d202e77fd60403392a2005b60405163ac37e5cb60e01b8152fd5b60405163873cf48b60e01b8152fd5b346102fe5760203660031901126102fe573561099360175482106137d3565b6000526018602052600160406000206109d5604051916109be836109b78184613039565b0384612f74565b6109ce6040518095819301613039565b0383612f74565b6109e4604051928392836130cf565b0390f35b60203660031901126102fe5780359060ff600654161561085057610a0f60175483106137d3565b3415610a325750600052600b6020526040600020610a2e348254613289565b9055005b60649060206040519162461bcd60e51b835282015260086024820152676e6f2076616c756560c01b6044820152fd5b346102fe5760203660031901126102fe576001600160a01b03610a82612ee5565b16600052600a6020526020604060002054604051908152f35b346102fe5760003660031901126102fe5760065460405160089190911c6001600160a01b03168152602090f35b346102fe5760203660031901126102fe576001600160a01b03610ae9612ee5565b16600052600e6020526020604060002054604051908152f35b346102fe5760403660031901126102fe576001600160a01b038135818116928382036102fe57610b30612ff0565b92807f0000000000000000000000000000000000000000000000000000000000000000163314908115610bd9575b5015610bca575060068054610100600160b01b03191660089290921b610100600160a81b03169190911791151560a881901b60ff60a81b169290921790556040519081527fbc4904a0d966a8e4425b1f254fbc8c0e7ad6a82d6df04834fc136017fbabe0da90602090a2005b60405163c8ee2d1d60e01b8152fd5b90507f000000000000000000000000000000000000000000000000000000000000000016331485610b5e565b346102fe5760603660031901126102fe57602435906001600160401b0382116102fe57610c3491369101612efb565b50506132ac565b346102fe5760003660031901126102fe576040517f00000000000000000000000000000000000000000000000000000000000000006001600160a01b03168152602090f35b346102fe5760003660031901126102fe57602060ff60125460101c166040519015158152f35b346102fe5760203660031901126102fe5735600052601a602052602060ff604060002054166040519015158152f35b346102fe5760603660031901126102fe5780359060243561ffff81168091036102fe57604435918215158093036102fe577f00000000000000000000000000000000000000000000000000000000000000006001600160a01b03163303610db85760ff6006541615610850576127108211610da9577fddb90d16162bf80f3a2eef91afa4209060997fa5804c0582625f721bae9429556060858585826011558061ffff19601254161760125560105461ff008360081b169061ff0019161760105560405192835260208301526040820152a1005b604051638bff87cf60e01b8152fd5b604051636dd80efb60e01b8152fd5b346102fe5760403660031901126102fe57602435906001600160401b0382116102fe57610c3491369101612efb565b346102fe5760203660031901126102fe578035907f00000000000000000000000000000000000000000000000000000000000000006001600160a01b03163303610db85760ff60065416156108505760ff60105416610e80577f55d7e6f1a179e3ea50ffc19aaf954604d6fe7263c7afd9d254f0f52ec8c6396a60208380600855604051908152a1005b60405163072b8fab60e21b8152fd5b60603660031901126102fe57803590600782101590816102fe57602435916001600160401b036044358181116102fe57610ecc9036908501612efb565b60ff6006969296541615611335576001600160a01b03947f0000000000000000000000000000000000000000000000000000000000000000913387841614919082801561130a575b156112fa5784159081806112ab575b61129a5760175499600160401b8b10156112705760018b01601755610f478b613829565b5050610f528b613829565b5080546001600160a01b0319808216331783559a611285576001600160a81b0319163360ff60a01b19161760a08e901b60ff60a01b1617815560018101889055600201978211611270578190610fb282610fac8b54612fff565b8b61385e565b600090601f8311600114611203576000926111f8575b50508160011b916000199060031b1c19161786555b60009080156111ae575b5034106111a0575091868094927f77cab04088373d57fb883a7e27e3a4698242bf37032f5b1ca70f66a6b866eae3943461118b575b1561116057507f80ea24f07b68cea4c5718e5b12578e3191d61aad86d48bb974ceb3cd5bcd77446110fe7f0000000000000000000000000000000000000000000000000000000000000000945b8360005260209b8c96600c88528b60406000209116809b82541617905589600052601687528560406000205410156000146111465784600052600d87526040600020600160ff198254161790555b60ff604051911681528587820152847fffcd42e6086c659e0aa984404519562964882864865af05ba1f6737b7528566060403393a360405191829187835287830190613039565b0390a2604051908152a36006549060ff8260a81c169182611137575b5050611129575b604051908152f35b61113281613934565b611121565b60081c1615159050838061111a565b84600052600d8752604060002060ff1981541690556110b7565b6110fe7f80ea24f07b68cea4c5718e5b12578e3191d61aad86d48bb974ceb3cd5bcd77449194611069565b82600052600b6020523460406000205561101c565b60405162976f7560e21b8152fd5b603286810292508683041417156111e357612710900466038d7ea4c68000808211156111dc57505b8a610fe7565b90506111d6565b601182634e487b7160e01b6000525260246000fd5b013590508c80610fc8565b60008a815260208082209450919291601f19861691905b82821061125857505090846001959493921061123e575b505050811b018655610fdd565b0135600019600384901b60f8161c191690558c8080611231565b8060018597829496880135815501960193019061121a565b604184634e487b7160e01b6000525260246000fd5b602186634e487b7160e01b6000525260246000fd5b604051631fbaba3560e01b81528390fd5b50600097508a1580156112ec575b8881156112c7575b50610f23565b90506112d75760058b14886112c1565b602183634e487b7160e01b6000525260246000fd5b506000975060038b146112b9565b5060405163c8ee2d1d60e01b8152fd5b50877f0000000000000000000000000000000000000000000000000000000000000000163314610f14565b604051634065aaf160e11b81528590fd5b346102fe5760003660031901126102fe57602061ffff60125416604051908152f35b60003660031901126102fe5760ff60065416156108505760ff60105416156109565734156107cb5733600052601660205260406000206113a9348254613289565b90553360005260166020526040600020546040519034825260208201527fbf1aa192c46bca8374cb6283fdf4d37fb62c9c903f007cd6c85bdea930ca0ed860403392a26015548015159081611400575b506107cb57005b905033600052601660205260406000205410826113f9565b346102fe5760003660031901126102fe576020601754604051908152f35b346102fe5760003660031901126102fe576020601154604051908152f35b346102fe5760003660031901126102fe5760125460405160189190911c6001600160a01b03168152602090f35b346102fe5760003660031901126102fe5760ff60065416156108505760018060a01b03807f0000000000000000000000000000000000000000000000000000000000000000163314908115611574575b5015610bca5760125460ff8160101c166115645762010000600160b81b0319163360181b6301000000600160b81b03161762010000176012556011546115179042613289565b6013553360005260146020526040600020600160ff198254161790556013546040519081527f9126012700f3a7594e4990c0663b7ead6e59cf0d7e70a0e95d83b0c77d0a26d560203392a2005b506040516323355c1560e01b8152fd5b90507f0000000000000000000000000000000000000000000000000000000000000000163314826114d1565b346102fe5760003660031901126102fe576115da7f00000000000000000000000000000000000000000000000000000000000000006130f7565b906116047f00000000000000000000000000000000000000000000000000000000000000006131ed565b60405190602090818301938385106001600160401b038611176116ad575091816116608594611652979660405260008452604051978897600f60f81b895260e0858a015260e0890190612fb0565b908782036040890152612fb0565b91466060870152306080870152600060a087015285830360c0870152519182815201929160005b82811061169657505050500390f35b835185528695509381019392810192600101611687565b604190634e487b7160e01b6000525260246000fd5b346102fe5760003660031901126102fe5760ff60209154166040519015158152f35b346102fe5760203660031901126102fe57600261172761170f6109e4933561063360175482106137d3565b506117206040518094819301613039565b0382612f74565b604051918291602083526020830190612fb0565b346102fe5760003660031901126102fe57602060065460ff8160a81c16908161176a575b506040519015158152f35b60081c6001600160a01b0316151590508261175f565b346102fe5760003660031901126102fe576020600854604051908152f35b346102fe5760003660031901126102fe576040517f00000000000000000000000000000000000000000000000000000000000000006001600160a01b03168152602090f35b346102fe5760003660031901126102fe57602060ff601054166040519015158152f35b346102fe5760003660031901126102fe5760405160009060195461182981612fff565b8083526001918083169081156118ac5750600114611852575b6109e48361172781870382612f74565b6019600090815260209450917f944998273e477b495144fb8794c914197f3ccb46be2900f4698fd0ef743c96955b8284106118995750505081019091019061172781611842565b8054858501870152928501928101611880565b6109e4955061172793506020915091849260ff191682840152151560051b8201019350611842565b346102fe5760c03660031901126102fe576118ed612ff0565b90606435906001600160a01b039081831683036102fe576001600160401b03936084358581116102fe576119249036908401612efb565b93909460a4358781116102fe5761193e9036908601612efb565b9660ff6006541615612051577f00000000000000000000000000000000000000000000000000000000000000009684881633036120405761198d9291611985913691613306565b973691613306565b946017548535101561202f578282161561201e57604087511161200d57610200865111611ffc576119be8535613829565b5060038101805460ff8116611feb5761ffff191686151560081b61ff001617600117905585356000908152600b60205260409020805492908315159081611fe1575b50600093600c602052866040600020541691876001860154948a600014611eb5575050611e58575b5081611ced575b50505b818682015560058101600160ff19825416179055600642910155604051604081018181108a821117611c52576040528781526020810187815286356000526018602052604060002091518051908b8211611cd8578190611a9c82611a968754612fff565b8761385e565b602090601f8311600114611c7257600092611c67575b50508160011b916000199060031b1c19161782555b518051998a11611c5257611aeb8a611ae26001850154612fff565b6001850161385e565b602090601f8b11600114611bc15799806001927fb29443cc73fb0bd9a42a1f881bc6c674dfabfb7565c6fb98c92ab2f3b29796459b9c600092611bb6575b5050600019600383901b1c191690821b179101555b604051931515845260208401521660408201527fbc80199b8b6d57392fcdc07ab3ab44d4790a6793778077535a5ac9b5b19fb5186060833592a26040514281527fb894f5e1ecd878c1aa203fcddc4638ca3a97185ae7b965bc545afe736eb8c9e56020833592a261041d6040519283923595836130cf565b015190508c80611b29565b906001830160005260206000209160005b601f198d168110611c3a57509a60019283927fb29443cc73fb0bd9a42a1f881bc6c674dfabfb7565c6fb98c92ab2f3b29796459c9d83601f19811610611c21575b505050811b01910155611b3e565b015160001960f88460031b161c191690558c8080611c13565b91926020600181928685015181550194019201611bd2565b604187634e487b7160e01b6000525260246000fd5b015190508c80611ab2565b6000868152602081209350601f198516905b818110611cc05750908460019594939210611ca7575b505050811b018255611ac7565b015160001960f88460031b161c191690558c8080611c9a565b92936020600181928786015181550195019301611c84565b604189634e487b7160e01b6000525260246000fd5b6000818152601660205260409020549293509082611d13575050506000905b8980611a2f565b80831015611dec57816000526016602052600060408120556040519081528260208201528260408201527fcd60b499efa615cff4e7d50ac9776293a94cf420176cd6b1b8be23a139ef70c86060893592a27f965951a28e7153e192b02969d770243905e850ff56cefff8dccebd8247f90e716020604051848152a26000808080848888165af1611da16136fb565b5015611dae575b90611d0c565b838316600052600a6020526040600020611dc9828254613289565b9055604051818152600080516020613b80833981519152602086861692a2611da8565b91828103908111611e43578160005260166020526040600020557f965951a28e7153e192b02969d770243905e850ff56cefff8dccebd8247f90e716020604051848152a26000808080848888165af1611da16136fb565b601188634e487b7160e01b6000525260246000fd5b8684541690600080808084865af1611e6e6136fb565b5015611e7b575b50611a28565b6020600080516020613b808339815191529183600052600a82526040600020611ea5828254613289565b9055604051908152a28b80611e75565b9294509250611ec7575b505050611a32565b600090828116611f74575b5016908115611f3857600080808084865af1611eec6136fb565b5015611efe575b50505b898481611ebf565b6020600080516020613b808339815191529183600052600a82526040600020611f28828254613289565b9055604051908152a28980611ef3565b905030600052600a6020526040600020611f53828254613289565b9055604051908152600080516020613b8083398151915260203092a2611ef6565b600080916040516020810190638da5cb5b60e01b82528d8152611f9681612f59565b51915afa611fa26136fb565b9080611fd5575b15611ed257808093506020925051810103126102fe57602001518581168091036102fe5785908c611ed2565b50602081511015611fa9565b600090558b611a00565b60405163f10068b560e01b81528890fd5b60405163bd3f9d0f60e01b81528590fd5b604051633ad93d5560e11b81528590fd5b604051634033e4e360e01b81528590fd5b60405163023dcbf960e51b81528590fd5b604051631777988560e11b81528790fd5b604051634065aaf160e11b81528690fd5b346102fe5760003660031901126102fe576109e460405161208281612f59565b601481527315195b5c1b185d1954995b9d10dbdb9d1c9858dd60621b6020820152604051918291602083526020830190612fb0565b346102fe5760003660031901126102fe5760028054146121b7576002805533600052600a60205260406000205490811561217c5733600052600a60205260006040812055600080808085335af161210c6136fb565b501561214657506040519081527f84511ecc081974f18e7f3e0dcc19db078b55bbd3852ddd0dd85b3aebb7bf94c260203392a26001600255005b60649060206040519162461bcd60e51b8352820152600f60248201526e15da5d1a191c985dc819985a5b1959608a1b6044820152fd5b60649060206040519162461bcd60e51b835282015260146024820152734e6f2066756e647320746f20776974686472617760601b6044820152fd5b604051633ee5aeb560e01b8152fd5b346102fe5760003660031901126102fe57602060ff60105460081c166040519015158152f35b346102fe5760003660031901126102fe57602061112161372b565b346102fe5760203660031901126102fe5735600052601b6020526020604060002054604051908152f35b346102fe5760203660031901126102fe5780356001600160401b0381116102fe5761225f9036908301612efb565b60ff6006541615612409576001600160a01b03917f000000000000000000000000000000000000000000000000000000000000000083169133831480156123de575b156123cd576122c86122d1916122c286946122ba61372b565b923691613306565b9061333d565b909291926133ff565b16923384036123be5783600052600f60205260ff604060002054166123af575082600052600f60205260406000209260ff19936001858254161790557f9857431f631691e1f06c88f0ff16dd0b4186442cea75ff32797fcbb94e585f286020604051428152a2600052600f60205260ff604060002054169081612379575b508061236c575b61235c57005b6001906010541617601055600080f35b5060ff6010541615612356565b90507f00000000000000000000000000000000000000000000000000000000000000001660005260ff604060002054168261234f565b60405163585eb56560e11b8152fd5b604051630e751dc360e31b8152fd5b60405163c8ee2d1d60e01b81528590fd5b50837f00000000000000000000000000000000000000000000000000000000000000001633146122a1565b604051634065aaf160e11b81528390fd5b346102fe5760003660031901126102fe5760ff6006541615610850576001600160a01b03337f0000000000000000000000000000000000000000000000000000000000000000821614801561250e575b156112fa5760125460ff8160101c16156124fd5760181c1633146124ee5733600052601460205260ff604060002054166124df573360005260146020526040600020600160ff19825416179055337f36dd776851abba943db092881b249cd975f9187e89eefc980f489a459916e600600080a2005b60405163080fc0bd60e11b8152fd5b60405163215af1ad60e11b8152fd5b6040516399fcd6df60e01b81528390fd5b50807f000000000000000000000000000000000000000000000000000000000000000016331461246a565b346102fe5760003660031901126102fe576109e460405161255981612f59565b60018152603160f81b6020820152604051918291602083526020830190612fb0565b60003660031901126102fe5760ff6006541615610850576001600160a01b03907f00000000000000000000000000000000000000000000000000000000000000008216330361281b5760125460ff8160101c161561280b5761ffff8116806126f2575b50506006549060ff8216156126e3575060ff199081166006556012805462ff0000191681557f000000000000000000000000000000000000000000000000000000000000000083166000908152601460205260408082208054851690557f0000000000000000000000000000000000000000000000000000000000000000851682528120805490931690925580546301000000600160b81b0319811690915560139190915560181c8116806126de5750335b167f127a6f1a35dab59c491a32a71869783bdb5702256f5709cb1e60f322ac1529d4600080a2337f4f21b2ca7ec7dda0fd6fe7d3a95d41ea761769df6e1db889d65943ad2de21865600080a2005b612690565b60405163232990cb60e01b8152fd5b612706612710916127016135e7565b6135d4565b04908134106127fb5783907f00000000000000000000000000000000000000000000000000000000000000009060181c8216818316036127f657507f00000000000000000000000000000000000000000000000000000000000000005b8261276f575b506125de565b1690600080808084865af16127826136fb565b50156127bd575b6040519081527f1be0ae4000a6b9a3a509e243d7a015c99eec4953d0a9197f6844a7904a2c6bbb60203392a3828281612769565b81600052600a60205260406000206127d6828254613289565b905581600080516020613b808339815191526020604051848152a2612789565b612763565b60405162976f7560e21b81528390fd5b506040516399fcd6df60e01b8152fd5b604051631777988560e11b8152fd5b346102fe5760003660031901126102fe576020601354604051908152f35b346102fe5760203660031901126102fe5760018060a01b03807f000000000000000000000000000000000000000000000000000000000000000016331490811561289f575b5015610bca5761289d9035613934565b005b90507f00000000000000000000000000000000000000000000000000000000000000001633148261288d565b346102fe5760203660031901126102fe576001600160a01b036128ec612ee5565b16600052600f602052602060ff604060002054166040519015158152f35b346102fe5760203660031901126102fe5761112160209135613808565b346102fe5760a03660031901126102fe576001600160401b039080356024358381116102fe5761295a9036908401612efb565b9390604435916084359081116102fe576129779036908601612efb565b90948315612b765761298a368885613306565b9182516020809401209687600052601a845260ff60406000205416612b3d57612a27916122c26122c8926122ba6129c38d36908b613306565b888151910120604051898101917f6a5d549bc06bb91708418ef9ae7e948aef42ab925ab8ce5b1acb80eadc9c536c83528d60408301528c606083015260643560808301523360a083015260c082015260c08152612a1f81612f28565b519020613484565b6001600160a01b0316338103612ad95750507f10991e8f7e7beee5c54f4c2aadd4bfc06ec25b487a6e800adecfb06ef88e4e1092916040879287600052601a815281600020600160ff19825416179055601b81528482600020558151943389897fae15643747230560610304fe9253c92ead4485f1a378ac7e00b190ce76080ee4600080a4855284015281604084015260608301376000606086830101526060813396601f80199101168101030190a4005b9160649287876040519283527fa639501eb9eb8f0b1a8bebf597ae815288302a99aab858a877e11593910d50de843394a460405162461bcd60e51b8152918201526011602482015270496e76616c6964207369676e617475726560781b6044820152fd5b60405162461bcd60e51b8152808401859052601260248201527145766964656e6365206475706c696361746560701b6044820152606490fd5b60649060206040519162461bcd60e51b8352820152601660248201527510dbdb9d195b9d111a59d95cdd081c995c5d5a5c995960521b6044820152fd5b346102fe5760003660031901126102fe576040517f00000000000000000000000000000000000000000000000000000000000000006001600160a01b03168152602090f35b346102fe5760203660031901126102fe573560005260076020526020604060002054604051908152f35b346102fe5760203660031901126102fe576001600160a01b03612c43612ee5565b166000526014602052602060ff604060002054166040519015158152f35b346102fe5760003660031901126102fe57602060ff60065460a81c166040519015158152f35b346102fe5760203660031901126102fe576001600160a01b03612ca8612ee5565b1660005260166020526020604060002054604051908152f35b346102fe5760003660031901126102fe5760206111216135e7565b60003660031901126102fe576001600160a01b03907f0000000000000000000000000000000000000000000000000000000000000000821633036109655760ff60065416156108505760ff601054161561095657612d386135e7565b34106105af57600160ff19825416179055612d5534600554613289565b6005557f000000000000000000000000000000000000000000000000000000000000000016600080808034855af1612d8b6136fb565b5015612dc7575b604051348152600060208201527fa0e44cc6f4f184bc83e145bf7f0cc703b7f698476124cf6a9d7d403d202e77fd60403392a2005b80600052600a6020526040600020612de0348254613289565b9055600080516020613b808339815191526020604051348152a280612d92565b346102fe5760003660031901126102fe57602060ff60095416604051908152f35b346102fe5760003660031901126102fe57602060ff600654166040519015158152f35b90346102fe5760203660031901126102fe5780359160ff83168093036102fe577f00000000000000000000000000000000000000000000000000000000000000006001600160a01b03163303612ed9575060ff6006541615610850577f1f00fcf307a35be155989649663855bd59c43b39cba01f65853483c25cf63c566020838060ff196009541617600955604051908152a1005b636dd80efb60e01b8152fd5b600435906001600160a01b03821682036102fe57565b9181601f840112156102fe578235916001600160401b0383116102fe57602083818601950101116102fe57565b60e081019081106001600160401b03821117612f4357604052565b634e487b7160e01b600052604160045260246000fd5b604081019081106001600160401b03821117612f4357604052565b90601f801991011681019081106001600160401b03821117612f4357604052565b6001600160401b038111612f4357601f01601f191660200190565b919082519283825260005b848110612fdc575050826000602080949584010152601f8019910116010190565b602081830181015184830182015201612fbb565b6024359081151582036102fe57565b90600182811c9216801561302f575b602083101461301957565b634e487b7160e01b600052602260045260246000fd5b91607f169161300e565b906000929180549161304a83612fff565b9182825260019384811690816000146130ac575060011461306c575b50505050565b90919394506000526020928360002092846000945b838610613098575050505001019038808080613066565b805485870183015294019385908201613081565b9294505050602093945060ff191683830152151560051b01019038808080613066565b90916130e66130f493604084526040840190612fb0565b916020818403910152612fb0565b90565b60ff81146131355760ff811690601f8211613123576040519161311983612f59565b8252602082015290565b604051632cd44ac360e21b8152600490fd5b5060405160008181549161314883612fff565b8083526001938085169081156131cc575060011461316e575b506130f492500382612f74565b60008080527f290decd9548b62a8d60345a988386fc84ba6bc95484008f6362f93160ef3e56394602093509091905b8183106131b45750506130f4935082010138613161565b8554878401850152948501948694509183019161319d565b90506130f494506020925060ff191682840152151560051b82010138613161565b60ff811461320f5760ff811690601f8211613123576040519161311983612f59565b50604051600081600191825461322481612fff565b808452908481169081156131cc575060011461324757506130f492500382612f74565b9280915060005260209081600020936000915b8183106132715750506130f4935082010138613161565b8554878401850152948501948694509183019161325a565b9190820180921161329657565b634e487b7160e01b600052601160045260246000fd5b60405162461bcd60e51b815260206004820152602c60248201527f557365207375626d697445766964656e6365576974685369676e61747572652060448201526b666f7220736563757269747960a01b6064820152608490fd5b92919261331282612f95565b916133206040519384612f74565b8294818452818301116102fe578281602093846000960137010152565b815191906041830361336e5761336792506020820151906060604084015193015160001a90613379565b9192909190565b505060009160029190565b91906fa2a8918ca85bafe22016d0b997e4df60600160ff1b0384116133f357926020929160ff608095604051948552168484015260408301526060820152600092839182805260015afa156133e75780516001600160a01b038116156133de57918190565b50809160019190565b604051903d90823e3d90fd5b50505060009160039190565b600481101561346e5780613411575050565b6001810361342b5760405163f645eedf60e01b8152600490fd5b6002810361344c5760405163fce698f760e01b815260048101839052602490fd5b6003146134565750565b602490604051906335e2f38360e21b82526004820152fd5b634e487b7160e01b600052602160045260246000fd5b60429061348f6134aa565b906040519161190160f01b8352600283015260228201522090565b307f00000000000000000000000000000000000000000000000000000000000000006001600160a01b031614806135ab575b15613505577f000000000000000000000000000000000000000000000000000000000000000090565b60405160208101907f8b73c3c69bb8fe3d512ecc4cf759cc79239f7b179b0ffacaa9a75d522b39400f82527f000000000000000000000000000000000000000000000000000000000000000060408201527f000000000000000000000000000000000000000000000000000000000000000060608201524660808201523060a082015260a0815260c081018181106001600160401b03821117612f435760405251902090565b507f000000000000000000000000000000000000000000000000000000000000000046146134dc565b8181029291811591840414171561329657565b604051633fabe5a360e21b815260a0816004817f00000000000000000000000000000000000000000000000000000000000000006001600160a01b03165afa9081156136d857600091613689575b506000811315613678576003546305f5e10090818102918183041490151715613296578115613662570490565b634e487b7160e01b600052601260045260246000fd5b60405162bfc92160e01b8152600490fd5b9060a0823d82116136d0575b816136a260a09383612f74565b810103126136cd57506136b4816136e4565b506136c66080602083015192016136e4565b5038613635565b80fd5b3d9150613695565b6040513d6000823e3d90fd5b519069ffffffffffffffffffff821682036102fe57565b3d15613726573d9061370c82612f95565b9161371a6040519384612f74565b82523d6000602084013e565b606090565b6130f46003546008546040519060208201927fc3c36f1afc30ba5f82b8e21c3357404dd1f6837934ac8d4adcf2f9f3fbb18321845230604084015260018060a01b03807f00000000000000000000000000000000000000000000000000000000000000001660608501527f000000000000000000000000000000000000000000000000000000000000000016608084015260a083015260c082015260c08152612a1f81612f28565b156137da57565b60405162461bcd60e51b8152602060048201526006602482015265189859081a5960d21b6044820152606490fd5b60175481101561382357600052600b60205260406000205490565b50600090565b6017548110156138485760176000526007602060002091020190600090565b634e487b7160e01b600052603260045260246000fd5b90601f811161386c57505050565b600091825260208220906020601f850160051c830194106138a8575b601f0160051c01915b82811061389d57505050565b818155600101613891565b9092508290613888565b6000929181546138c181612fff565b9260019180831690811561391957506001146138dd5750505050565b90919293945060005260209081600020906000915b8583106139085750505050019038808080613066565b8054858401529183019181016138f2565b60ff1916845250505081151590910201915038808080613066565b6006549060ff8260a81c16158015613b6a575b613b6657601754811015613b665761395e81613829565b509060ff6003830154168015613b58575b613b535760408051602093848201943060601b86528460348401524260548401526054835260808301966001600160401b0390848910828a1117612f4357888652845190972083546001600160a01b03908116996002860199919660a0810191906139f0906139de848e6138b2565b03609f1981018352607f190182612f74565b5190209160018601549288519061010082019582871090871117612f4357613ab09c87968b5283835230878401528b8b84015260608301526080820152611720613a3f8c8b5192838092613039565b60a08201528360c082015260e042910152898851613a7281613a6488820180956138b2565b03601f198101835282612f74565b5190209288519b8c9b8c9586946306d9f63760e01b865260048601523060248601528c6044860152606485015260e0608485015260e4840190613039565b9060a4830152600160c48301528760009c8d92039360081c165af1879681613b20575b50613ae2575b50505050505050565b7fbc88cd3bb31b6e8e0df53ad910b3ac822102afd04c1f71486b348a01016e35259360078792878a525287205554169380a438808080808080613ad9565b9096508181813d8311613b4c575b613b388183612f74565b81010312613b4857519538613ad3565b8780fd5b503d613b2e565b505050565b5060ff60058301541661396f565b5050565b50600882901c6001600160a01b03161561394756febf377c684817c24483856b59fef97f3394a5556f5e6e25b2d922e951f4944d2ba2646970667358221220aa7215cec5ce575e38a4d34ba1a85123c841e7ab4d180d9056768a548af59b0364736f6c63430008140033",
  "linkReferences": {},
  "deployedLinkReferences": {}
}